:100000000C9483020C945D2C0C948F2C0C94C12CBA
:100010000C94A2020C94A2020C94A2020C94A202D0
:100020000C94A2020C942B2C0C94A2020C94A2020D
:100030000C94A2020C948A2A0C94A2020C948A2A90
:100040000C94A2020C94A2020C94A2020C94A202A0
:100050000C94A2020C94A2020C94A2020C94A20290
:100060000C94A2020C946A120C94A2020C94A202A8
:100070000C94A2020C94A2020C94A2020C94A20270
:100080000C94BD2A0C94A2020C94A2020C94A2021D
:100090000C94A2020C94A2020C94A2020C94A20250
:1000A0000C94A2020C94A2020C94A2020C94A20240
:1000B0000C94A2020C94A2020C94A2020C94A20230
:1000C0000C94A2020C94A2020C94A2020C94A20220
:1000D0000C94A2020C94A2020C94A2020C94A20210
:1000E0000C94A2020C9486100C9477100C94471078
:1000F0000C9446110C9438100C9429100C94171081
:100100000C9408100C94A2020C94A2020C94A2026B
:100110000C94A2020C94A2020C94A2020C94A202CF
:10012000461351135C13671372137D138813A713BF
:10013000B313BF13CB13D713E313E3130114031447
:100140000514071409140B140D142B144B146B1401
:100150008B14AB14CB14EB1421152D153915451543
:1001600051155D15691581158C159715A215AD15DD
:10017000B815C3156C197219751978197B197E1980
:100180008419811987198A198D19961999199C1939
:100190009F19931969196F19A219A5199019661950
:1001A0003B1A3E1A491A4E1A551A5E1A611A661AF5
:1001B0006D1A761A4661696C656420746F207265E9
:1001C000676973746572207369676E616C0D0A00EC
:1001D000424D41432054583A20576F6B652075704B
:1001E000206F6E2077726F6E67207369676E616C27
:1001F0000D0A00424D41432054583A204572726F17
:10020000722063616C6C696E67206576656E742020
:10021000776169740D0A00424D4143204552524FA7
:10022000523A206372656174696E6720656E61621F
:100230006C65207369676E616C206661696C6564CA
:100240000D0A00424D4143204552524F523A20631D
:1002500072656174696E67207478207369676E6176
:100260006C206661696C65640D0A00424D41432053
:100270004552524F523A206372656174696E67202D
:100280007278207369676E616C206661696C656461
:100290000D0A007561727420727820736967206698
:1002A00061696C65640D0A00554E4B4F574E004511
:1002B000787465726E616C20526573657400427269
:1002C0006F776E204F7574204465746563740046C3
:1002D00061696C656420746F206372656174652068
:1002E00053656D6170686F7265004661696C656425
:1002F00020746F20637265617465205369676E6155
:100300006C004B65726E656C2066756E6374696F08
:100310006E206E6F7420696D706C656D656E7465AE
:10032000640044657669636520447269766572206D
:100330004572726F72005761746368646F67205210
:1003400065737461727400535720576174636864F5
:100350006F6720526573746172740054696D6572C1
:10036000204F766572666C6F7700556E68616E64BB
:100370006C656420496E7465727275707420566580
:1003800063746F72004C6F7720566F6C7461676591
:10039000004578747261205461736B2073746172CC
:1003A0007465642C206973206E726B5F6366672EC0
:1003B00068206F6B3F0049646C65206F72204B654D
:1003C000726E656C20537461636B204F7665726644
:1003D0006C6F7700556E6578706563746564205244
:1003E000657374617274004475706C6963617465DF
:1003F00064205461736B20494400536368656475DD
:100400006C6572204D69737365642057616B657507
:1004100070005461736B2052657365727665205667
:10042000696F6C61746564005265736572766520EE
:100430004572726F7220696E205363686564756CD3
:10044000657200496E76616C696420537461636BF8
:1004500020506F696E746572005461736B20537421
:1004600061636B204F766572666C6F7700537461C1
:10047000636B20776173206E6F7420646566696EAC
:100480006564206173206C6172676520656E6F75AD
:10049000676821005461736B20706572696F642016
:1004A000746F6F206C617267652E20506572696F82
:1004B00064206D757374206265206C65737320749D
:1004C00068616E203631207365636F6E64732E0031
:1004D000293A20002A4E524B204552524F522800B2
:1004E0000D0A535441434B2044554D500D0A0045CD
:1004F000464765666700202B2D2E30313233343568
:1005000036373839680011241FBECFEFD1E4DEBF83
:10051000CDBF13E0A0E0B2E0E4E2F7E600E00BBFFD
:1005200002C007900D92AA34B107D9F71CE0AAE4E3
:10053000B3E001C01D92A73DB107E1F70E94E82D8D
:100540000C9490330C94802A0E94E8211F928F9380
:100550008BE592E09F938F930E945E310F900F90F6
:100560000F900F900E942C05811103C00E943B2028
:10057000F9CF0E945E04C82F0E94921CC12CD12C7E
:100580007601C39404C0CC0CDD1CEE1CFF1CCA9584
:10059000D2F780E090E00E94081665E082E294E0E5
:1005A0000E944604C701B6010E94381D80E090E019
:1005B0000E94F1150E943B20ECCF89E48093220435
:1005C00084E480932304109224048EEB90E09093B3
:1005D000260480932504089584EA92E090938D0A7E
:1005E00080938C0A40E052E067E274E087E89AE08A
:1005F0000E94352D82E080938F0A81E080938E0ADD
:100600008093900A8093910A83E090E0A0E0B0E0AC
:100610008093920A9093930AA093940AB093950AB8
:100620001092960A1092970A1092980A1092990ABC
:1006300080939A0A90939B0AA0939C0AB0939D0A78
:1006400010929E0A10929F0A1092A00A1092A10A7C
:100650001092A20A1092A30A1092A40A1092A50A5C
:100660001092A60A1092A70A1092A80A1092A90A3C
:1006700087E89AE00C94A91F0895643021F40E9441
:10068000A11081E008958FEF08958FEF089580E025
:1006900090E008950E94550D81E008950E944F0D4D
:1006A00081E008950E94490D81E008950E94430D64
:1006B00081E008950E945B0D81E0089590934D0ABA
:1006C00080934C0A81E008950E949F100895603144
:1006D00021F40E94A21081E008958FEF089581E037
:1006E000089581E00895803220F40E94390D81E060
:1006F00008958FEF0895809353030895992787FDF8
:1007000090950E94951081E00895CF93DF931F92FA
:10071000CDB7DEB78B3188F480935D0389830E9467
:10072000230D20E030E04FEF5FEF8981682F8AEAE8
:100730009AE00E947B0D81E001C08FEF0F90DF9166
:10074000CF91089580916003882301F18091570A29
:100750000E94921C61E070E080E090E00090570AF7
:1007600004C0660F771F881F991F0A94D2F70E9452
:10077000381D0090570A04C0969587957795679520
:100780000A94D2F760FD02C08FEF089581E00895CA
:10079000009751F09093B00A8093AF0A6093AE0A2D
:1007A00081E08093600308958FEF0895CF93DF93E6
:1007B000D82F10925F038FEF80935203C1E0C09354
:1007C0005303109262031092630310926403109219
:1007D0006503109254031092550310925603109221
:1007E000570340E051EE65EF75E040935803509396
:1007F000590360935A0370935B030E947D1B80939F
:10080000570A8F3F19F48BE692E008C00E947D1BC7
:100810008093370B8F3F71F483E492E00E94DE12E5
:10082000E091A20CF091A30C60858EE00E94CB19A0
:100830008FEF29C00E947D1B80934B088F3F19F4D6
:1008400087E192E0EBCF1092610310926003109267
:10085000B00A1092AF0A1092AE0A0E94230D20E057
:1008600030E04FEF5FEF6D2F8AEA9AE00E947B0D38
:10087000D0935D0380E090E00E949510C0935F03E9
:10088000C0935C0381E0DF91CF91089520916103D3
:10089000213059F021E0209361039093500A809316
:1008A0004F0A60934E0A81E008958FEF089580917A
:1008B000570A0E94921C8091570A08958091370B25
:1008C0000E94921C8091370B0895CF92DF92EF9295
:1008D000FF92CF93DF931F92CDB7DEB77C0180915B
:1008E00061038130F1F18091370B69830E94921C82
:1008F00081E080936103F092500AE0924F0A69818F
:1009000060934E0A61E070E080E090E00090370B69
:1009100004C0660F771F881F991F0A94D2F70E94A0
:10092000381D6B017C01611571058105910521F46C
:1009300083EF91E00E94DE120090370B04C0F69422
:10094000E794D794C7940A94D2F7C0FC04C080ED12
:1009500091E00E94DE1280915E03882311F081E015
:1009600001C08FEF0F90DF91CF91FF90EF90DF905C
:10097000CF90089520916003222339F0FC0110826A
:10098000FB01108280E090E008952091AD0AFC0107
:1009900020838091B20AFB0180838091AF0A9091FD
:1009A000B00A089581E090916003911180E008956C
:1009B00081E080936003089510925C030C94FD0C19
:1009C00081E080935C030E94230D80914B080C947E
:1009D000C31CCF93DF93CDB7DEB728970FB6F8943B
:1009E000DEBF0FBECDBF29833A834B835C836D830B
:1009F0007E838F83988749815A816B817C818D8129
:100A00009E81AF81B885411551056105710541F49D
:100A100081152DE2920721E3A20721E0B20790F0B1
:100A200040935403509355036093560370935703B8
:100A30008093580390935903A0935A03B0935B0398
:100A400081E001C08FEF28960FB6F894DEBF0FBE8D
:100A5000CDBFDF91CF91089580915F030895CF932B
:100A60000E94EA0D0E94340FC82F0E94340FC80F55
:100A70000E94340FC80F0E94F00D8C2F1C160CF42E
:100A800081E0CF9108950E94EA0D10924A031092DE
:100A90004B0310924C0310924D0380E4682F809317
:100AA0004E038BE480934F038CE4809350031092A9
:100AB000510320E030914B0340914C0350914D0382
:100AC0007BE490E00E943C210E94620F8130E9F0BB
:100AD0008091620390916303A0916403B0916503D8
:100AE0008F3F2FEF9207A105B10558F40196A11D84
:100AF000B11D8093620390936303A0936403B0934A
:100B000065030E94F00D80E00895109260030E943A
:100B1000F00D81E008958091620390916303089540
:100B200010926203109263031092640310926503A3
:100B300081E00895823050F0883008F086E091E03E
:100B400020E0990F2F5F2817E0F302C081E008959D
:100B5000892F0895EF92FF920F931F93CF93DF9306
:100B600080915303882309F447C084E593E00E94F1
:100B70006623EC010E94BE306AE070E00E949F2F65
:100B8000BC016F5F7F4FCE010E948B2FCB010E9473
:100B9000E520FF24F394CAE0D0E00E942F05E82E60
:100BA00081E0E81649F10E94BE308C018F2D0E9431
:100BB0009A05682F70E0C8010E949F2F99270E9414
:100BC0007820F39486E08F1510F486E0F82E84E503
:100BD00093E00E9466238C010E94BE30BE010E94F9
:100BE0009F2FBC016F5F7F4FC8010E948B2FCB01ED
:100BF0000E94E520EE2089F21092510A1092520ACA
:100C0000209154033091550388EE93E0289FE00132
:100C1000299FD00D389FD00D1124609158037091F9
:100C2000590380915A0390915B0320E432E44FE032
:100C300050E00E94B32FC20FD31F0E94EA0DBE01E5
:100C40008CE49AE00E94F60D80935E030E94F00D02
:100C5000109261038091370B0E94C31C81E0DF91E9
:100C6000CF911F910F91FF90EF90089580915F03B6
:100C7000811103C00E943B20F9CF80914B080E9454
:100C8000921C8F3F21F484EB91E00E94DE12C12C74
:100C9000D12C7601C3940E94230D80915C0388239C
:100CA00069F180916003813041F40E942F05811128
:100CB00008C00E944305813021F48091570A0E94A8
:100CC000C31C80916103813011F40E94AA050E9427
:100CD000F00D0E94FD0C209154033091550340917A
:100CE00056035091570360915803709159038091B6
:100CF0005A0390915B030E943C21CDCF80914B0819
:100D00000E94921CC701B60100904B0804C0660FF8
:100D1000771F881F991F0A94D2F70E94381D0090F0
:100D20004B0804C096958795779567950A94D2F7F6
:100D300060FFE4CFB0CF66E376E086EE93E00E94FA
:100D4000312D40E850E066E673E086EE93E00E94C5
:100D5000352D84E18093EE0381E08093ED03809351
:100D6000EF038093F0031092F1031092F2031092BC
:100D7000F3031092F40380E09DE2A1E3B1E08093DD
:100D8000F5039093F603A093F703B093F803109242
:100D9000F9031092FA031092FB031092FC031092D5
:100DA000FD031092FE031092FF03109200041092B4
:100DB0000104109202041092030410920404109291
:100DC000050410920604109207041092080486EE9F
:100DD00093E00C94A91F8091670B813011F48FEF81
:100DE000089581E08093670B60FF18C0809128020E
:100DF0000E94341310926C0B80917C00807E809353
:100E00007C0090917C0080917C00807E892B809377
:100E10007C0088EE93E00E942E2905C0862F867004
:100E2000F1F66770E1F281E00895809128020E9456
:100E300095131092670B0E948E0BEAE7F0E0808119
:100E40008F77808381E00895613019F480916C0B75
:100E500008958FEF0895613069F52C3069F420937F
:100E60006C0B80917C00807E80937C0080917C0064
:100E700090917C00836014C02E3020F081E00E94AD
:100E80001C1918C020936C0B80917C00807E80938D
:100E90007C0080917C0090917C0020916C0B822BD7
:100EA000907E892B80937C0088EC90E00E942E2914
:100EB00081E008958FEF0895CF93DF93CDB7DEB72C
:100EC00066970FB6F894DEBF0FBECDBFAE014F5F81
:100ED0005F4F66E170E08AEA90E00E94980BFE01A5
:100EE00032966DE37BE09E01285E3F4FCF01019774
:100EF000DC018C9190E0982F88274081842BDB01C6
:100F00008D939D93BD013296E217F30779F76696AC
:100F10000FB6F894DEBF0FBECDBFDF91CF9108951D
:100F2000EAE7F0E083E0808380818068808310922C
:100F30006C0BACE7B0E08C91807E8C939C918C9193
:100F4000807E892B8C9380818F7780830895CF93C7
:100F5000C091280261E08C2F0E940D158C2F0E94F9
:100F60003413C091130260E08C2F0E940D158C2F5A
:100F70000E949513C091290260E08C2F0E940D15EC
:100F80008C2F0E94951380E00E941F160E949007EC
:100F90000E947E0B8EEE0E947B0B0E945C071092DB
:100FA000670B81E0CF91089588EC90E00C942E2996
:100FB00080917A00806480937A0080917A0084FF27
:100FC000FCCF0E94D407809178002091790090E0B6
:100FD000922B08954F925F926F927F928F929F9281
:100FE000AF92BF92CF92DF92EF92FF921F93CF9377
:100FF000DF9300D000D0CDB7DEB7182F8090630B01
:101000009090640BA090650BB090660B80EA881AF4
:101010008FE0980AA108B1088092530B9092540B6C
:10102000A092550BB092560BA5019401C501B401D5
:101030000E947B2F20E030E140E050E00E94D52F5D
:1010400029833A834B835C83C0903D0BD0903E0B49
:10105000EE24D7FCE094FE2CF2E0CC0CDD1CEE1C60
:10106000FF1CFA95D1F7A0914B0BB0914C0B0E944D
:10107000732F20E038E040E050E00E94D52F290196
:101080003A01A0913F0BB091400BA50194010E9441
:10109000732F20E038E040E050E00E94D52F420E50
:1010A000531E641E751EC40CD51CE61CF71C012EB5
:1010B00004C0CC0CDD1CEE1CFF1C0A94D2F7E2E04D
:1010C000CE0ED11CE11CF11CA4E04A2E512C612C47
:1010D000712CC701B601A30192010E94D52F6901AD
:1010E0007A012093820B3093830B4093840B5093AF
:1010F000850BA091410BB091420BA50194010E9478
:10110000732F20E030E240E050E00E94D52F4901EB
:101110005A01A091490BB0914A0B29813A814B8128
:101120005C810E94732F20E030E041E050E00E949B
:10113000D52F820E931EA41EB51EF2E08F0E911CB9
:10114000A11CB11CC501B401A30192010E94D52FBD
:1011500020936D0B30936E0B40936F0B5093700B7D
:10116000A091430BB091440B30584F4F5F4F0E94FA
:10117000682F20E030E840E050E00E94D52F490180
:101180005A012093710B3093720B4093730B509361
:10119000740B20917A0B30917B0B40917C0B50911A
:1011A0007D0B2C193D094E095F0960E573EC80E069
:1011B00090E004C095958795779567951A95D2F735
:1011C0000E947B2F6093760B7093770B8093780B44
:1011D0009093790B97FD09C0660F771F881F991FA1
:1011E000A50194010E94B32F08C0A50194010E949B
:1011F000B32F220F331F441F551F20937E0B3093B4
:101200007F0B4093800B5093810BC0907E0BD0904E
:101210007F0BE090800BF090810BC701B60120E0BE
:1012200031E040E050E00E94D52FCA01B9010E9490
:101230007B2F9B01AC01AEEDBBE00E94682F412CDF
:10124000512C32016394A30192010E94D52F4901D0
:101250005A012093680B3093690B40936A0B5093AB
:101260006B0BA3E4B3EEA70196010E94762FA301B6
:1012700092010E94D52F20935B0B30935C0B40931F
:101280005D0B50935E0BC501B401620F731F841F89
:10129000951F6153714F8F4F9F4F20E130E040E029
:1012A00050E00E94D52F2C0D3D1D4E1D5F1D20933B
:1012B0007E0B30937F0B4093800B5093810BCA01C0
:1012C000B9010F900F900F900F90DF91CF911F9168
:1012D000FF90EF90DF90CF90BF90AF909F908F9056
:1012E0007F906F905F904F900895CF92DF92EF9232
:1012F000FF928091470B9091480B2091570B3091B2
:10130000580B4091590B50915A0B281B390B41092E
:101310005109A091450BB091460B0E94682F20E027
:1013200030E840E050E00E94D52F69017A01209317
:10133000680B3093690B40936A0B50936B0B609171
:101340004F0B7091500B882777FD8095982FBBE04D
:10135000660F771F881F991FBA95D1F72091510BFF
:101360003091520B442737FD4095542F2C0D3D1DD5
:101370004E1D5F1D0E94D52F20935B0B30935C0B9D
:1013800040935D0B50935E0BC20ED31EE41EF51E00
:10139000C092630BD092640BE092650BF092660BE7
:1013A000C701B601685F7F4F8F4F9F4F20E130E04C
:1013B00040E050E00E94D52F20935F0B3093600BEC
:1013C0004093610B5093620BCA01B901FF90EF90FB
:1013D000DF90CF900895CF93DF9300D01F92CDB7C9
:1013E000DEB78EE28B83AE014D5F5F4F61E070E050
:1013F00084EF90E00E94B10C84E991E10E942E29D3
:10140000AE014F5F5F4F62E070E086EF90E00E94B8
:10141000980B898190E0982F88272A81822BA0E061
:10142000B0E08093570B9093580BA093590BB09357
:101430005A0B0F900F900F90DF91CF9108950E945B
:10144000EB090C9475091F93CF93DF9300D000D064
:10145000CDB7DEB7182F982F9295990F990F907CE2
:101460009C5C9C83AE014C5F5F4F61E070E084EF59
:1014700090E00E94B10C84E991E10E942E29AE0116
:101480004F5F5F4F63E070E086EF90E00E94980B43
:101490008A81498150E060E070E0BA015527442715
:1014A000582B8B81480F511D611D711D28E030E0C4
:1014B000211B310904C075956795579547952A9565
:1014C000D2F740937A0B50937B0B60937C0B709315
:1014D0007D0B0F900F900F900F90DF91CF911F9188
:1014E0000895CF93C82F0E94230A8C2FCF910C947C
:1014F000EA07AF92BF92CF92DF92EF92FF920F93E3
:101500001F93CF93DF931F92CDB7DEB75A0180911F
:101510007A00806880937A008FEF820F823018F013
:10152000243009F0B3C080916C0B883090F429838B
:101530000E94D8072981223021F4F501808391830C
:1015400021C0213009F065C09695879596958795BD
:1015500021C08D3011F51091290261E0812F29837E
:101560000E940D15812F0E94951360E0812F0E942B
:101570000D152981223041F4812F0E94F113F501CC
:101580008083118281E07BC0213009F042C0812F2D
:101590000E94F113F50180833CC08C30E1F5C12C31
:1015A000DD24D394E12CF12C01E014E080917A0049
:1015B000806480937A0080917A0084FFFCCF80E27F
:1015C00090E029830E942E29809178003091790043
:1015D00090E0932B29818017910708F48C01E8167D
:1015E000F90608F47C01F1E0CF1AD108C114D10446
:1015F000E9F6E01AF10A223021F4F501E082F182E5
:10160000C1CF213031F4F694E794F694E794F501D4
:10161000E08280E034C08B30E1F41092750B7A994F
:10162000FECF7A9BFECF8091750B8F5F8093750BF9
:101630007A99F9CFF50180838091750B90E0118242
:10164000330F220B322F2283990F880B982F83831D
:10165000E0CF97EF980F9230E0F62430B9F48A305B
:1016600019F40E941F0A05C00E941F0A80E00E9410
:10167000710AF501608371838283938383E0909183
:101680007A009F7790937A008F5F01C080E00F907F
:10169000DF91CF911F910F91FF90EF90DF90CF904E
:1016A000BF90AF900895823099F038F4882369F0A4
:1016B0008130C9F481E00C94EB06843089F058F055
:1016C000853089F485E00C94790A80E00C94A707B2
:1016D00082E00C941507613061F480916C0B0895E1
:1016E00084E00C942B0760E08CE00E94CB1980E032
:1016F00008958FEF08958093870B089582E080937B
:10170000B8001092B900E4E6F0E080818F77808322
:10171000ECEBF0E08081846080830895E4E6F0E003
:1017200080818083ECEBF0E080818B7F8083089563
:101730009770990F2091870B922B35E6F4EAA4EA73
:10174000E4E8B92FB160315009F48DC0A093BC001A
:101750002091BC0027FFFCCF2091B900287F209367
:10176000860B203129F0283389F3283009F07BC01B
:101770009093BB00E093BC002091BC0027FFFCCFFE
:101780002091B900287F2093860B2032E1F2283384
:10179000E9F2283109F060C08093BB00E093BC00FF
:1017A0002091BC0027FFFCCF2091B900287F209317
:1017B000860B203359F1283349F2283209F04CC006
:1017C000F093BC002091BC0027FFFCCF2091B90012
:1017D000287F2093860B203129F0283309F4B6CFD7
:1017E0002830D1F5B093BB00E093BC002091BC0041
:1017F00027FFFCCF2091B900287F2093860B20344F
:1018000041F0283419F0283339F5A0CF20E030E03A
:1018100025C0FA0194EC9F01241B350B1616170600
:10182000ECF46130710509F494E89093BC00809168
:10183000BC0087FFFCCF8091B900887F8093860B26
:10184000803521F0883541F460E070E08091BB0084
:10185000819361507109DFCF2FEF3FEF84E98093CF
:10186000BC00C90108958FEF9FEF0895680F791F9D
:101870009C0127606217730718F0B9016F5F7F4FF3
:10188000392F3770330F2091870B322BE5E6A4EA0E
:10189000F4E8E15009F462C0A093BC002091BC00C0
:1018A00027FFFCCF2091B900287F2093860B2031A1
:1018B00029F0283389F3283009F050C03093BB0059
:1018C000F093BC002091BC0027FFFCCF2091B90011
:1018D000287F2093860B2032E1F22833E9F2283169
:1018E000B1F58093BB00F093BC002091BC0027FFB2
:1018F000FCCF2091B900287F2093860B203359F02C
:10190000283351F2283219F5681B790BFA0120E0CF
:1019100030E044E810C020E030E01BC08091BC0003
:1019200087FFFCCF8091B900887F8093860B883237
:1019300071F42F5F3F4FCB01821B930B18161906D2
:1019400044F481918093BB004093BC00E7CF2FEF1C
:101950003FEF84E98093BC00C90108958FEF9FEFAA
:101960000895CF92DF92EF92FF920F931F93CF9340
:10197000DF936C018B017A01C0E0D0E0A701B801D0
:10198000C6010E94360C8F3F2FEF920769F0C80EF8
:10199000D91E081B190BE80EF91EC80FD91F101607
:1019A000110664F3CE0102C08FEF9FEFDF91CF915C
:1019B0001F910F91FF90EF90DF90CF90089580914D
:1019C000860B1F928F938CE692E09F938F930E94D9
:1019D0005E310F900F900F900F90089590914101FC
:1019E0009F719F31D9F380934201089581E08093E4
:1019F0008E0B089510928E0B0895809141018F7186
:101A00008F31D9F3809141018F71E1F08F30D1F0A6
:101A1000809141018F71883031F480913901826069
:101A2000809339010BC088E00E94EE0C8091410147
:101A30008F718830D9F7F1CF8F3021F0809141013B
:101A40008F71D1F70895809141018F718F31D9F352
:101A5000809141018F7111F08F3051F480913901E3
:101A60008D7F80933901809141018F718830D9F742
:101A70000895E5E4F1E09081907F908390818F70EC
:101A8000892B80830895E7E5F1E080818D7F808355
:101A90000895E7E5F1E08081826080830895EEE6B5
:101AA000F1E080818F7E80830895EEE6F1E0808111
:101AB0008061808308958093600190936101909389
:101AC000980B8093970B08959093920B8093910BB2
:101AD000E8E4F1E08081807E80838081682B6083F0
:101AE000089590930C0480930B04089590930A0436
:101AF0008093090408951F93CF93DF9370E270934E
:101B0000440170EC7093450160626093480165EC9C
:101B10006093490167EA60934B0160E860934C0170
:101B200020936001309361014093620150936301FF
:101B3000E6E4F1E0C081A08160811081C295C69584
:101B4000C77070E4C79FE0011124129516951370B9
:101B50001C2BA295A695A37070E1A79FD00111241C
:101B60001A2B629566956370A4E06A9FB0011124F8
:101B7000162B10936D01608170817295769573704C
:101B8000706462956670672B60936E0110926C01B1
:101B90006FEF60934E019093920B8093910B109294
:101BA000930B1092940B5093960B4093950B30939C
:101BB000980B2093970B1092990B81E08093B30BB5
:101BC0001092D20B1092A20B10928E0BDF91CF913C
:101BD0001F91089586E10C94EE0C86E10C94EE0CB6
:101BE00088E00E94EE0C1092D20B08953F924F9223
:101BF0005F926F927F928F929F92AF92BF92CF929D
:101C0000DF92EF92FF920F931F93CF93DF93EC013C
:101C10003B018091B30B811102C08FEF0FC19E81F8
:101C20008091930B8F5F8093930B80918101807ED5
:101C3000816090FB85F98F7380648093810188E8CF
:101C40008093820180918E0B882361F08FEF8093C7
:101C500083018AEA9AEA90938901809388018FEF41
:101C60009FEF10C08091930B8093830120916101BD
:101C70008091600190E0922B90938901809388017C
:101C800088819981909387018093860120916301D7
:101C90008091620190E0922B909385018093840162
:101CA0004A81552747FD50956B817C818AE891E0F8
:101CB0000E94D8308A81855F8093800180914101A4
:101CC000982F9F71392E8F709FEF980F9230B0F33D
:101CD0009FE1391699F398EF930D923018F0863002
:101CE00009F09BCF86E10E94EE0C8D8181110AC024
:101CF00089E00E94EE0C8E81882391F089E10E9498
:101D0000EE0C0EC08091480180688093480180915C
:101D1000410187FFFCCF8091410186FF7ECFE8CF54
:101D20006114710499F18AE99BE00E94EE2180918F
:101D30009A0B90919B0BA0919C0BB0919D0B809363
:101D4000B40B9093B50BA093B60BB093B70BD30124
:101D500020E432E44FE050E00E94682F00919E0B97
:101D600010919F0B2091A00B3091A10B600F711F60
:101D7000821F931F6093B80B7093B90B8093BA0BBB
:101D80009093BB0B84EB9BE00E94D8221092A20B95
:101D900082E00E94EE0C412C512C8091A20B81110B
:101DA00008C08FEF481A580A98EE49169DEF590659
:101DB000A1F76114710421F48E8181112DC034C00A
:101DC0008AE99BE00E94EE2180909A0B90909B0BF9
:101DD000A0909C0BB0909D0BC0909E0BD0909F0B41
:101DE000E090A00BF090A10B0091B40B1091B50BFB
:101DF0002091B60B3091B70B4091B80B5091B90BB5
:101E00006091BA0B7091BB0B83ED9BE00E944A225C
:101E10008F3F09F0BBCFD0CF80914201829586954C
:101E2000877011F0CFEF06C088EE48168DEF580688
:101E3000C9F3C1E0832D0E94EE0C8C2FDF91CF916E
:101E40001F910F91FF90EF90DF90CF90BF90AF90D8
:101E50009F908F907F906F905F904F903F900895EC
:101E600060E070E00C94F60DCF93DF938091B30B9C
:101E7000882321F180914101C82FCF718F709FEF8E
:101E8000980F9230B8F3CF31A9F3C83011F08630F3
:101E9000A9F486E10E94EE0C80914801806880934D
:101EA00048018091410187FFFCCFD09141018C2FE7
:101EB0000E94EE0CD6FB882780F901C08FEFDF91DE
:101EC000CF9108958091B30B882309F49FC080912E
:101ED000D20B882309F498C080917B01E091910B8B
:101EE000F091920B90E002972481332727FD3095E3
:101EF000281739070CF48AC0E091910BF091920BEE
:101F0000809182018083E091910BF091920B8091FE
:101F100087019091880192838183E091910BF091E8
:101F2000920B80917B018B508383A091910BB09198
:101F3000920BE091910BF091920B13969C918481FE
:101F400089173CF0E091910BF091920B838187FF10
:101F50000DC01092D20B80914C018F7780934C0171
:101F600080914C01806880934C0150C0A091910BEE
:101F7000B091920BE091910BF091920B13964C91D2
:101F8000552747FD509569E871E0858196810E944B
:101F9000D830E091910BF091920B8091800185FBFC
:101FA000882780F98783E091910BF091920B8091C3
:101FB00047018087E091910BF091920B809146014F
:101FC0008695869586958187E091910BF091920B8D
:101FD000809147018287E091910BF091920BA09143
:101FE0007B01B0E0A058BE4F8C9183871092D20B3A
:101FF00080914C018F7780934C0180914C018068D7
:1020000080934C0181E0089580E008958FEF08955A
:102010001F920F920FB60F9211248F9380E8809336
:102020004F018F910F900FBE0F901F9018951F9228
:102030000F920FB60F9211248F9381E08093A20B21
:1020400080E480934F018F910F900FBE0F901F90EF
:1020500018951F920F920FB60F9211248F9380E262
:1020600080934F018F910F900FBE0F901F90189586
:102070001F920F920FB60F9211248F9380E18093DD
:102080004F018F910F900FBE0F901F9018951F92C8
:102090000F920FB60F9211240BB60F922F933F930E
:1020A0004F935F936F937F938F939F93AF93BF9360
:1020B000EF93FF9384E080934F01E0910B04F09144
:1020C0000C04309709F00995FF91EF91BF91AF9102
:1020D0009F918F917F916F915F914F913F912F9140
:1020E0000F900BBE0F900FBE0F901F9018951F9270
:1020F0000F920FB60F9211248F9382E080934F01BD
:102100008F910F900FBE0F901F9018951F920F92F6
:102110000FB60F9211248F9381E080934F018F911E
:102120000F900FBE0F901F901895E9E4F1E0908199
:10213000907F908390818F70892B808308958FEF9B
:1021400008950895089508958FEF089580918C0B58
:1021500090918D0B089580E00895089581E0089591
:1021600081E0089581E008950895089508950895FF
:102170000895089508950895E7E3F1E0808183606C
:102180008083989AA09A8DB1806E8DB98EB1806E41
:102190008EB90895E7E3F1E0808183608083989AA7
:1021A000A0988DB1806E8DB98EB1806E8EB9089574
:1021B000CF92DF92EF92FF920F931F93CF93DF9313
:1021C000CDB7DEB727970FB6F894DEBF0FBECDBFF1
:1021D0000E943517E091910BF091920BC080D38053
:1021E00005811681E0840E94620F18161CF083E8B6
:1021F00092E006C0F801F080F11007C082EA92E098
:102200000E9476310E94371732C0F5E0FF1204C0F9
:102210008AE090E00E947031C80101969F938F93ED
:102220008E2D992787FD90959F93EF921F92FF9295
:102230001F92CF9284EC92E09F938F930E945E3125
:102240001D830C83FA94F801F082DB821E821F82C8
:102250008FEF9FEF9A8389830E943717CE010196F3
:102260000E94300F0FB6F894DEBF0FBECDBF279689
:102270000FB6F894DEBF0FBECDBFDF91CF911F9197
:102280000F91FF90EF90DF90CF9008951F920F92E3
:102290000FB60F9211240BB60F922F933F934F93CB
:1022A0005F936F937F938F939F93AF93BF93EF93BE
:1022B000FF9380E090917B01891710F48F5FFACF34
:1022C0008091460187FF04C081E08093D20B04C057
:1022D0008DEE92E00E94763188E080934F018091EC
:1022E000460187FF05C080918E0B81110E94D81096
:1022F000E0910904F0910A04309709F00995FF91E3
:10230000EF91BF91AF919F918F917F916F915F916D
:102310004F913F912F910F900BBE0F900FBE0F90DA
:102320001F901895E3EAFBE0DC018C9181938D917D
:1023300080933F018BE0E33BF807B9F780E110920F
:102340003E018150E1F780E880933C0180913D019E
:1023500080FFFCCFECEBFBE080913F0181938BE0B1
:10236000EC3CF807C9F70895CF93662309F447C0FA
:10237000262F2F7009F043C0E3EAFBE02191209360
:102380003F012BE0E33BF207C9F7A0E070E0B0E2C9
:1023900020E1A29FA00111244617570774F5A1114F
:1023A00003C010923C0102C0B0933C0120E030E039
:1023B000480F591FFA01E20FF31FE081E0933E013D
:1023C0002F5F3F4F20313105A9F720913C01206854
:1023D00020933C0120913D0120FFFCCF20E030E024
:1023E000C0913E01FA01E20FF31FC0832F5F3F4F00
:1023F00020313105A9F7AF5FCBCF80E001C081E08C
:10240000CF9108950F931F93CF93DF93613009F419
:102410004FC0262F2F7009F04BC0ECEBFBE0219151
:1024200020933F012BE0EC3CF207C9F762956F70F7
:10243000615008E06F3FD1F100933C0120E162025E
:10244000A001112420E030E0FC01E40FF51FDF01C2
:10245000A20FB31F7C9170933E012F5F3F4F20313D
:102460003105A9F720913C01206820933C0120917F
:102470003D0120FFFCCF4051510920E030E0480FE2
:10248000591F10913E01DF01A20FB31F1C93662359
:1024900031F0EA01C20FD31F788171277C932F5F3F
:1024A0003F4F2031310569F76150C4CF80E001C052
:1024B00081E0DF91CF911F910F9108959091C0001D
:1024C00095FFFCCF9091C0009F7D9093C0008093BA
:1024D000C60008951F920F920FB60F9211240BB6EB
:1024E0000F922F933F934F935F936F937F938F93AD
:1024F0009F93AF93BF93EF93FF930E943517809103
:10250000C00087FFFCCF8091C0008F778093C00010
:102510002091C60080911E0490911F04FC01E25F8F
:10252000FB4F208301968031910529F090931F0481
:1025300080931E0404C010921F0410921E04809108
:102540000D040E94C31C8091C0008F778093C0004F
:102550000E943717FF91EF91BF91AF919F918F919B
:102560007F916F915F914F913F912F910F900BBE93
:102570000F900FBE0F901F90189581110DC02091E4
:1025800020043091210480911E0490911F0428178B
:10259000390741F480E008958130E1F78091C80067
:1025A00087FFF8CF81E0089580910D048F3F19F4E3
:1025B0008EE00E94C01980910D040895CF93DF939F
:1025C000FC012491EC012196222351F06091CF0C63
:1025D0007091D00C822F90E00E942C31CE01F0CF70
:1025E000DF91CF91089520912004309121048091B2
:1025F0001E0490911F042817390769F480910D0477
:102600000E94921C60910D04772767FD7095872FBB
:10261000972F0E94381D6F3F21F483E992E00E94BA
:10262000DE122091200430912104F901E25FFB4F7A
:1026300080812F5F3F4F2031310528F430932104F2
:1026400020932004089510922104109220040895EC
:1026500086E084B985B988EF8AB980EF8BB982E0CA
:102660008DB908950C9428138F3F09F45CC0482F4E
:10267000477050E04730510508F055C0FA01E05767
:10268000FF4F8695869586950C94533092B121E044
:1026900030E0082E01C0220F0A94EAF7922B92B97B
:1026A00040C095B121E030E0082E01C0220F0A940D
:1026B000EAF7922B95B935C098B121E030E0082EA9
:1026C00001C0220F0A94EAF7922B98B92AC09BB155
:1026D00021E030E0082E01C0220F0A94EAF7922B85
:1026E0009BB91FC09EB121E030E0082E01C0220F2F
:1026F0000A94EAF7922B9EB914C091B321E030E01E
:10270000082E01C0220F0A94EAF7922B91BB09C050
:1027100094B321E030E001C0220F8A95EAF7922BB2
:1027200094BB81E008958FEF08958F3F09F457C05F
:10273000482F477050E04730510508F050C0FA016B
:10274000E956FF4F8695869586950C94533092B145
:1027500021E030E0082E01C0220F0A94EAF720950C
:10276000292322B93AC095B121E030E0082E01C0FA
:10277000220F0A94EAF72095292325B92EC098B193
:1027800021E030E0082E01C0220F0A94EAF72095DC
:10279000292328B922C09BB121E030E0082E01C0D6
:1027A000220F0A94EAF7209529232BB916C09EB16F
:1027B00021E030E0082E01C0220F0A94EAF72095AC
:1027C00029232EB90AC091B321E030E001C0220FC5
:1027D0008A95EAF72095292321BB81E008958FEFA0
:1027E00008958F3F21F1482F477050E04730510541
:1027F000F0F4FA01E256FF4F8695869586950C9483
:10280000533020B10BC023B109C026B107C029B194
:1028100005C02CB103C02FB101C022B330E002C00B
:10282000359527958A95E2F7822F817008958FEF6D
:1028300008958F3F09F4EFC0482F477050E04730AC
:10284000510508F0E8C0FA01EB55FF4F86958695D3
:1028500086950C94533020B130E0082E02C0359597
:1028600027950A94E2F792B120FD0AC021E030E0FA
:10287000082E01C0220F0A94EAF7922B92B91EC0CB
:1028800021E030E0082E01C0220F0A94EAF72095DB
:10289000292322B913C023B130E0082E02C0359598
:1028A00027950A94E2F795B120FD0AC021E030E0B7
:1028B00001C0220F8A95EAF7922B95B981E008951D
:1028C00021E030E0082E01C0220F0A94EAF720959B
:1028D000292325B9F3CF26B130E0082E02C0359563
:1028E00027950A94E2F798B120FD0AC021E030E074
:1028F000082E01C0220F0A94EAF7922B98B9DECF76
:1029000021E030E0082E01C0220F0A94EAF720955A
:10291000292328B9D3CF29B130E0082E02C035953C
:1029200027950A94E2F79BB120FD0AC021E030E030
:10293000082E01C0220F0A94EAF7922B9BB9BECF52
:1029400021E030E0082E01C0220F0A94EAF720951A
:1029500029232BB9B3CF2CB130E0082E02C0359516
:1029600027950A94E2F79EB120FD0AC021E030E0ED
:10297000082E01C0220F0A94EAF7922B9EB99ECF2F
:1029800021E030E0082E01C0220F0A94EAF72095DA
:1029900029232EB993CF2FB130E0082E02C03595F0
:1029A00027950A94E2F791B320FD0AC021E030E0B8
:1029B000082E01C0220F0A94EAF7922B91BB7ECF1A
:1029C00021E030E0082E01C0220F0A94EAF720959A
:1029D000292321BB73CF22B330E0082E02C03595E6
:1029E00027950A94E2F794B320FD0AC021E030E075
:1029F000082E01C0220F0A94EAF7922B94BB5ECFF7
:102A000021E030E0082E01C0220F0A94EAF7209559
:102A1000292324BB53CF8FEF08958F3F09F4BEC005
:102A2000482F477050E0611160C04730510508F0F1
:102A3000B5C0FA01E455FF4F8695869586950C94AE
:102A4000533091B121E030E0082E01C0220F0A94EA
:102A5000EAF72095292321B99FC094B121E030E005
:102A6000082E01C0220F0A94EAF72095292324B9E1
:102A700093C097B121E030E0082E01C0220F0A94E4
:102A8000EAF72095292327B987C09AB121E030E0E1
:102A9000082E01C0220F0A94EAF7209529232AB9AB
:102AA0007BC09DB121E030E0082E01C0220F0A94C6
:102AB000EAF7209529232DB96FC090B321E030E0CB
:102AC000082E01C0220F0A94EAF72095292320BB83
:102AD00063C093B321E030E0082E01C0220F0A94B6
:102AE000EAF72095292323BB57C04730510508F04A
:102AF00055C0FA01ED54FF4F8695869586950C9446
:102B0000533091B121E030E0082E01C0220F0A9429
:102B1000EAF7922B91B940C094B121E030E0082E41
:102B200001C0220F0A94EAF7922B94B935C097B1ED
:102B300021E030E0082E01C0220F0A94EAF7922B20
:102B400097B92AC09AB121E030E0082E01C0220FC7
:102B50000A94EAF7922B9AB91FC09DB121E030E0A8
:102B6000082E01C0220F0A94EAF7922B9DB914C0D7
:102B700090B321E030E0082E01C0220F0A94EAF75A
:102B8000922B90BB09C093B321E030E001C0220F2B
:102B90008A95EAF7922B93BB81E008958FEF089511
:102BA000811106C080B18695817091E089270895D2
:102BB0008FEF0895009711F483E20DC081309105E5
:102BC00011F48BE208C08230910511F483E303C055
:102BD000039729F48BE30E94191481E008958FEF85
:102BE0000895009711F483E20DC08130910511F42E
:102BF0008BE208C08230910511F483E303C0039790
:102C000029F48BE30E94341381E008958FEF089537
:102C1000009711F483E20DC08130910511F48BE22D
:102C200008C08230910511F483E303C0039729F4AF
:102C30008BE30E94951381E008958FEF0895882318
:102C400019F085B78F7E02C085B7806185BF81E0AE
:102C500008959091C80095FFFCCF8093CE00089511
:102C60009093C5008093C40086E08093C200E1EC9D
:102C7000F0E080818B7F8083A0ECB0E08C9182605B
:102C80008C9380818861808308959093CD00809398
:102C9000CC0086E08093CA00E9ECF0E080818B7F75
:102CA0008083A8ECB0E08C9182608C9380818861F5
:102CB000808308950E94301663EF72E18EE592E101
:102CC0000E94E1309093D00C8093CF0C63EF72E1BF
:102CD0008EE592E10E94E1309093CE0C8093CD0C72
:102CE0000E947D1B80930D048F3F19F48EE00E949B
:102CF000C019109221041092200410921F04109207
:102D00001E048091C10080688093C1000895809165
:102D1000C80087FFFCCF8091C8008F778093C800E0
:102D20008091CE000895000000000000000001978F
:102D30000097C9F708950C9430320E9438320895F4
:102D4000EF92FF920F931F93CF93DF93EC0180E0FC
:102D500090E00E943032F82E8B8381E090E00E9458
:102D60003032E82E8A8382E090E00E943032082FD1
:102D7000898383E090E00E943032182F888384E0BA
:102D800090E00E9430329E2D9F0D900F910F89137D
:102D900002C081E001C08FEFDF91CF911F910F91B1
:102DA000FF90EF900895CF93DF93EC0185E090E0E2
:102DB0000E943032888381E0DF91CF910895FC0139
:102DC000608186E090E00E94383281E00895CF93E0
:102DD000DF93EC0186E090E00E943032888381E04E
:102DE000DF91CF9108950F931F93CF93DF938C01C1
:102DF000C8E0D0E0CE010E943032F80181938F010B
:102E00002196C831D105B1F781E0DF91CF911F91B3
:102E10000F9108950F931F93CF93DF938C01C8E018
:102E2000D0E0F80161918F01CE010E9438322196E5
:102E3000C831D105B1F781E0DF91CF911F910F919A
:102E40000895CF93DF93EC0187E090E00E94303249
:102E5000888381E0DF91CF910895FC01608187E054
:102E600090E00E94383281E00895F89408957894B3
:102E700008950E943517FFCF1F93CF93DF93CDB7EF
:102E8000DEB7A3970FB6F894DEBF0FBECDBF0E948A
:102E90007D1B8093920C8F3F21F460E08EE00E94B6
:102EA000CB190E94F92A182F80FF04C060E086E049
:102EB0000E94CB1911FF04C060E084E10E94CB198D
:102EC00012FF04C060E083E10E94CB191092950CC0
:102ED0001092A30C1092A20C1092940C1092930CCE
:102EE0001092A40C1092A10C8FEF80938B0C809306
:102EF0008D0C80938C0C80938E0C8093900C80931F
:102F00008F0C93E69093E70B8093E50B9093120C54
:102F10008093100C90933D0C80933B0C9093680C25
:102F20008093660C2AEA3CE03093A90C2093A80C0D
:102F300085EA9CE09093AC0C8093AB0C4FEA5CE08C
:102F40005093AE0C4093AD0C3093B10C2093B00C69
:102F500024EB3CE03093B30C2093B20C5093B60CAE
:102F60004093B50C49EB5CE05093B80C4093B70C20
:102F70003093BB0C2093BA0C1092A70C1092A60CA5
:102F80001092BD0C1092BC0C1092980C1092970CE1
:102F90009093DC0B8093DB0B6FE075E2CE01019622
:102FA0000E94312D40E850E067EB7AE0CE010196B7
:102FB0000E94352D85E58093B70A19861C861D86EB
:102FC0001E861F86188A198A1A8A1B8A1C8A1D8ADD
:102FD0001E8A1F8A188E198E1A8E1B8E1C8E1D8EAD
:102FE0001E8E1F8E18A219A21AA21BA281E088872A
:102FF00092E09A878B87CE0101960E94A91FA39623
:103000000FB6F894DEBF0FBECDBFDF91CF911F91F9
:103010000895C5EEDBE0F12CD8808FEFD81221C0E7
:10302000F394AB9694E0F912F7CF0E94A61E9BE2B0
:103030008902F0011124E352F44F82858093A40C9D
:10304000F093A30CE093A20CF093940CE093930CF8
:103050008093950C0E94B92D0E94A32D0E94BD2D36
:1030600014C005EE1BE0E12CFE1441F0F801808154
:10307000D81204C06D2D85E00E94CB19E394055D44
:103080001F4FF4E0EF12F0CFCBCFFFCFAF92BF9244
:10309000CF92DF92EF92FF920F931F93CF93DF9324
:1030A0001F92CDB7DEB75C016B017A01DC01199686
:1030B0008C911997823021F08091910C8C9302C0F1
:1030C000F50110828091910C843020F060E087E05F
:1030D0000E94CB19D50119968C91823029F08091EC
:1030E000910C8F5F8093910C8091910C811103C0A2
:1030F00081E08093910CF50130812BE23203F001E5
:103100001124E352F44FD182C082D50118968C91DC
:10311000189782873C913203F0011124E352F44F57
:1031200083E081873C913203F0011124E352F44F94
:1031300030870C910203800111240352144FF801CF
:103140001582C5010B960E945C24D80191966D935F
:103150007D938D939C939497F50183859485A585A4
:10316000B68588339948A144B10528F0D5016C9102
:1031700086E10E94CB19F5010081112707FD10950A
:10318000C5014B960E945C244BE2409FF001419F99
:10319000F00D1124E352F44F658B768B878B908F63
:1031A000D5012C91240360011124F601E352F44F60
:1031B0006F01058916892789308D81A192A1A3A16C
:1031C000B4A1080F191F2A1F3B1F018F128F238FD5
:1031D000348FC501439649830E945C24F60165A3A0
:1031E00076A387A390A7D5012C9149812403F001F0
:1031F0001124E352F44F85A196A1A7A1B0A5858F14
:10320000968FA78FB0A381E090E092A781A7F38269
:10321000E28281E084870F90DF91CF911F910F911F
:10322000FF90EF90DF90CF90BF90AF9008950C94F7
:10323000332585E690E00895E091A20CF091A30C6F
:1032400084870895E091A20CF091A30C84850895E1
:103250002091B60A222341F0FB0120832091270808
:10326000FC01208381E0089580E008958091B60AF2
:10327000882309F483C00E94351784ED94E00E94EE
:10328000DE12809127081F928F9386E093E09F9330
:103290008F930E945E3180ED94E00E94DE120F90C9
:1032A0000F900F900F908091B60A883110F0109215
:1032B000B60A8091B60A90E0FC013197E631F1053B
:1032C00008F046C0E654FF4F0C94533084E994E074
:1032D00041C08DE694E03EC089E594E03BC083E4C4
:1032E00094E038C088E294E035C082E194E032C0D6
:1032F0008AEF93E02FC087EE93E02CC084ED93E03B
:1033000029C086EB93E026C081E993E023C085E8DD
:1033100093E020C08AE693E01DC08BE593E01AC0DD
:1033200087E493E017C086E393E014C082E293E061
:1033300011C082E093E00EC08AEE92E00BC08FECE9
:1033400092E008C08EEB92E005C08FEA92E002C0E6
:1033500088EA92E00E94DE126091CF0C7091D00C4E
:103360008DE090E00E942C316091CF0C7091D00CD8
:103370008AE090E00E942C311092B60A80E0089515
:103380008093B60AE091A20CF091A30C8085809303
:1033900027080C9436198093B60A609327080C947A
:1033A0003619CF93DF931F92CDB7DEB7198289818B
:1033B000843640F480ED97E00E942E2989818F5F4A
:1033C0008983F5CF0F90DF91CF91089581E090E050
:1033D0000E9408160E94D1190E94D1190E94D11989
:1033E00081E090E00E94F1150C94D11981E090E009
:1033F0000E9408160E94D11981E090E00E94F11508
:103400000C94D119FF920F931F93CF93DF9300D0A9
:103410001F92CDB7DEB71F928F9386E093E09F9304
:103420008F938E010F5F1F4F1F930F930E94A33145
:103430000F900F900F900F900F900F90F12CF801BC
:1034400001900020E9F73197E01BF10B8F2D90E000
:103450008E179F0708F05CC0F801E80FF91F808104
:1034600090E0FC01F097EA30F10508F049C0E05324
:10347000FF4F0C9453300E94E61902C00E94F619C7
:103480000E94E6190E94E6190E94E6190E94E619B8
:1034900037C00E94F6190E94F619F4CF0E94F6195F
:1034A0000E94F6190E94F619EFCF0E94F6190E94A9
:1034B000F6190E94F6190E94F619E8CF0E94F61933
:1034C00002C00E94E6190E94F61904C00E94E61983
:1034D0000E94E6190E94F61906C00E94E6190E9491
:1034E000E6190E94E6190E94F61908C00E94E61922
:1034F0000E94E6190E94E6190E94E6190E94F61938
:103500000E94D1190E94D1190E94D119F39497CF2A
:103510000F900F900F90DF91CF911F910F91FF901F
:1035200008956F927F928F929F92AF92BF92CF92A7
:10353000DF92EF92FF920F931F93CF93DF9380EE72
:1035400094E00E94DE12E091A20CF091A30C208581
:10355000822F992787FD90959F932F9389E093E081
:103560009F938F930E945E31E091A20CF091A30C87
:10357000C281D381DF93CF938DE393E09F938F93A9
:103580000E945E3188811F928F9382E193E09F9326
:103590008F930E945E31E091A20CF091A30C818187
:1035A0008F9380818F938FE193E09F938F930E94FD
:1035B0005E318091A30C8F938091A20C8F9389E24E
:1035C00093E09F938F930E945E31CDEDDBE0EDB7EA
:1035D000FEB774960FB6F894FEBF0FBEEDBF00E0C5
:1035E00010E089E3682E83E0782E92E1892E93E043
:1035F000992E2FE1A22E23E0B22E39E2C32E33E022
:10360000D32EEA80FB80FF92EF921F930F937F925D
:103610006F920E945E31F70180811F928F939F927B
:103620008F920E945E3189818F9388818F93BF92A0
:10363000AF920E945E31DF93CF93DF92CF920E94D0
:103640005E310F5F1F4FAB96EDB7FEB772960FB6A8
:10365000F894FEBF0FBEEDBF0430110591F6DF9167
:10366000CF911F910F91FF90EF90DF90CF90BF907F
:10367000AF909F908F907F906F900895CF93DF933E
:10368000E091A20CF091A30CC281D3818881853591
:1036900039F00E94911A81E00E94C01985E5888363
:1036A000E091A20CF091A30C80819181811592444C
:1036B00038F00E94911A82E1DF91CF910C94C019E9
:1036C000DF91CF9108952BE28202F0011124E352A1
:1036D000F44FA281B3818C91853519F085E58C93E7
:1036E00008C0808191818115924428F082E10E9476
:1036F000C0198FEF089581E008950F931F930091F3
:10370000530A1091540A2091550A3091560A80E0CC
:1037100090E0B901A801082E04C0769567955795E9
:1037200047950A94D2F740FD19C041E050E060E0AF
:1037300070E0082E04C0440F551F661F771F0A94BF
:10374000D2F7402B512B622B732B4093530A50938B
:10375000540A6093550A7093560A05C00196803248
:103760009105B9F68FEF1F910F910895E091A20C8A
:10377000F091A30C65857685878590890895CF9211
:10378000DF92EF92FF920F931F93CF93DF931F92DD
:10379000CDB7DEB7C12CD12C7601C394082E04C05E
:1037A000CC0CDD1CEE1CFF1C0A94D2F74091530A8E
:1037B0005091540A6091550A7091560A4C215D212E
:1037C0006E217F21452B462B472B09F463C089834B
:1037D0000E943517E6EEFBE09701860100951095F3
:1037E0002095309593E08981DF0111974C914F3FEF
:1037F00049F144815581668177814C155D056E05DF
:103800007F0541F41086118612861386DF01129718
:103810001C92908344815581668177814023512396
:103820006223732344835583668377834085518560
:103830006285738540235123622373234087518718
:1038400062877387BB964CE0E239F40769F64EEF66
:103850005FEF6FEF7FEF04C0440F551F661F771FA8
:103860008A95D2F78091530A9091540AA091550AF3
:10387000B091560A84239523A623B7238093530A35
:103880009093540AA093550AB093560A0E94371792
:1038900081E001C08FEF0F90DF91CF911F910F91C9
:1038A000FF90EF90DF90CF9008950F931F9341E02A
:1038B00050E060E070E004C0440F551F661F771FA2
:1038C0008A95D2F7E091A20CF091A30C858596859C
:1038D000A785B0898A019B01082319232A233B234A
:1038E000012B022B032BD1F04095509560957095DC
:1038F00084239523A623B72385879687A787B08B34
:1039000081899289A389B48984239523A623B72327
:10391000818B928BA38BB48B81E001C08FEF1F91C1
:103920000F9108954091530A5091540A6091550A9D
:103930007091560A082E04C076956795579547955D
:103940000A94D2F740FF1DC0E091A20CF091A30CA5
:1039500041E050E060E070E004C0440F551F661F76
:10396000771F8A95D2F785859685A785B089842BA0
:10397000952BA62BB72B85879687A787B08B81E0E1
:1039800008958FEF0895CF92DF92EF92FF921F93E9
:10399000CF93DF93C12CD12C7601C39404C0CC0CFF
:1039A000DD1CEE1CFF1C8A95D2F78091530A909182
:1039B000540AA091550AB091560A8C219D21AE213E
:1039C000BF21892B8A2B8B2B11F481E044C00E94EC
:1039D0003517E4EEFBE0C6EEDBE010E023E080818B
:1039E0008130B9F482859385A485B5858C219D218C
:1039F000AE21BF21892B8A2B8B2B59F02883168669
:103A00001786108A118A1082C286D386E486F586CC
:103A100011E080818230A1F482859385A485B585EB
:103A20008C159D05AE05BF0559F4288316861786AB
:103A3000108A118A1082128613861486158611E068
:103A4000BB96AB968CE0E039F80749F60E94371731
:103A5000111105C082E00E941C198FEF01C081E0A6
:103A6000DF91CF911F91FF90EF90DF90CF9008955D
:103A70000F931F93E091A20CF091A30C058516857E
:103A8000278530890623172328233923012B022B6E
:103A9000032B19F1618B728B838B948B21E027832D
:103AA000DC01CB010090920C04C0B695A7959795C8
:103AB00087950A94D2F780FF03C00E94152104C0A5
:103AC00080E090E00E94E520E091A20CF091A30C30
:103AD000618972898389948903C060E070E0CB01B9
:103AE0001F910F9108959091A10C91111DC090917B
:103AF0008B0C9F3F31F090918E0C9F3F21F421E081
:103B000003C020E001C022E030E0F901EE0FFF1F0A
:103B1000E20FF31FE557F34F82838083618381E0D7
:103B20008093A10CCF01089580E090E008952CE0EF
:103B30008B38920729F08E589C4021F481E008953B
:103B400080E008958FEF08950E94971D8F3F11F434
:103B500081E002C0823021F40E941C198FEF089589
:103B6000992787FD9095FC01EE0FFF1FE80FF91FC5
:103B7000E557F34F82810895EF92FF920F931F93C1
:103B8000CF93DF931F92CDB7DEB70E94971D8F3F73
:103B900011F481E002C0823021F40E941C198FEFE1
:103BA00040C089830E9435178981E82EFF24E7FCF5
:103BB000F0948701000F111FD801AE0DBF1DA5574E
:103BC000B34F12969C91911116C0E091A20CF09106
:103BD000A30C978192609783992787FD9095A92FD1
:103BE000B92F818B928BA38BB48B0E94371780E007
:103BF00090E00E94E520F801EE0DFF1DE557F34F20
:103C0000828181508283A091A20CB091A30C81810A
:103C10001B968C931B9781E014968C930E94371708
:103C200081E00F90DF91CF911F910F91FF90EF9066
:103C30000895CF92DF92EF92FF920F931F93CF934D
:103C4000DF931F92CDB7DEB70E94971D8F3F11F40F
:103C500081E002C0823021F40E941C198FEF4BC01A
:103C6000282F332727FD30958901000F111F020FE0
:103C7000131F0557134FD80112962C9112979C9140
:103C80002917C4F589830E943517F80192819F5F37
:103C90009283E091A20CF091A30C1482E4EEFBE07D
:103CA00006EE1BE08981C82EDD24C7FCD094ED2CE4
:103CB000FD2C23E030813230A1F4428553856485A8
:103CC00075854C155D056E057F0559F4D8012C935B
:103CD00016861786108A118A108212861386148619
:103CE0001586BB96055D1F4FBCE0E039FB0711F759
:103CF0000E94371781E00F90DF91CF911F910F91B4
:103D0000FF90EF90DF90CF9008950E94971D8F3F16
:103D100011F481E002C0823021F40E941C198FEF5F
:103D20000895992787FD9095FC01EE0FFF1FE80F7E
:103D3000F91FE557F34F8FEF808382838183809152
:103D4000A10C81508093A10C81E00895E091970C23
:103D5000F091980C80810895E091970CF091980C67
:103D6000309721F00380F481E02DFACF0895CF92AF
:103D7000DF92EF92FF920F931F93CF93DF93E09127
:103D8000DB0BF091DC0B309709F48AC04091970C63
:103D90005091980C4115510509F446C0DA019BE297
:103DA000692F782F7603900111242352344F890113
:103DB000065F1F4F7901C4E0EC0EF11C255F3F4FF9
:103DC0006C9170E0969FE001979FD00D1124C35233
:103DD000D44FDC80DD2029F0DB84E801C880DC14CE
:103DE00028F1E701D880DD2061F0969FE001979FE0
:103DF000D00D1124C352D44FDA84E901C880DC14F9
:103E0000A8F0969FE001979FD00D1124C352D44F84
:103E10007A85E8016881761748F013960D90BC9179
:103E2000A02D109769F602C0A0E0B0E08083C381A6
:103E3000D481D093DC0BC093DB0BA417B507B1F48E
:103E4000109749F0B483A383128211821296FC93D7
:103E5000EE93119706C01482138212821182FA83A4
:103E6000E983F093980CE093970C1AC011968D910A
:103E70009C911297AC17BD0759F092838183B4834C
:103E8000A3831196CD91DC911297FC83EB8304C040
:103E900014821382928381831296FC93EE9311977E
:103EA000DF91CF911F910F91FF90EF90DF90CF9016
:103EB0000895CF93DF93E091970CF091980C309791
:103EC00009F444C0992787FD9095208130E0281798
:103ED000390781F4A381B481B093980CA093970C17
:103EE00012961C921E92119718C00380F481E02D47
:103EF000309761F1208130E028173907B1F7C1818F
:103F0000D281838194819C838B83A381B481109718
:103F100021F01296DC93CE931197A091DB0BB09118
:103F2000DC0B109739F4F093DC0BE093DB0B14827D
:103F300013820AC0B483A3831296FC93EE93119765
:103F4000F093DC0BE093DB0B12821182DF91CF91B7
:103F50000895EF92FF920F931F93CF93DF93EC019D
:103F60004B815C8169817A818D819E810E94542D73
:103F70002F81222371F04B815C81E12CF12C00E038
:103F800010E020E030E0BC01CE010E9446181F8204
:103F90000CC0E8812BE2E202F0011124E352F44F5D
:103FA00021852330B9F491838083E8818BE2E80294
:103FB000F0011124E352F44F458956896789708DC9
:103FC000452B462B472B41F482E0818788810E9454
:103FD000B71E02C08FEF01C081E0DF91CF911F912A
:103FE0000F91FF90EF9008951F93CF93DF93CDB77C
:103FF000DEB728970FB6F894DEBF0FBECDBF29837A
:104000003A834B835C836D837E838F8398870E9482
:1040100035170E947D2A182FCE0101960E945C243C
:104020006330710598F0E091A20CF091A30C212F60
:1040300030E0260F371FC901A0E0B0E0858B968BDA
:10404000A78BB08F0E94371781E001C08FEF2896B1
:104050000FB6F894DEBF0FBECDBFDF91CF911F9199
:1040600008950E94262DE091A20CF091A30C858169
:104070008111F7CF0895CF930E943E1B0E94351700
:10408000E091A20CF091A30C81E090E092A781A7AF
:1040900081E085830E947D2AC82F883F88F40E9492
:1040A000172A2C2F30E02F5F3F4F482F50E0241766
:1040B000350734F482E08C0F80933C0B0E941B2A5E
:1040C0000E9437170E94312081E0CF910895E0913E
:1040D000A20CF091A30C80850E94591FE091A20CC4
:1040E000F091A30C84E081870E943B2081E0089539
:1040F000CF93DF93EC010E943E1B209711F4C1E0A7
:10410000D0E00E943517E091A20CF091A30C81E061
:104110008583D2A7C1A70E947D2AC82F883F88F433
:104120000E94172A2C2F30E02F5F3F4F482F50E07E
:104130002417350734F482E08C0F80933C0B0E94E7
:104140001B2A0E9437170E94312081E0DF91CF9116
:104150000895FF920F931F93CF93DF938C010E94DA
:104160003517E091A20CF091A30C81E085830E94A9
:104170007D2AF82EE091A20CF091A30CC82FD0E07C
:10418000AE01400F511F60E070E0458B568B678B8E
:10419000708F87EF8F1570F00E94172A2196282FB5
:1041A00030E0C217D30734F482E08F0D80933C0BCC
:1041B0000E941B2A0E9437170E94312081E0DF9164
:1041C000CF911F910F91FF900895CF93DF93EC0152
:1041D0000E943517E091A20CF091A30C21E02583F9
:1041E000CE01A0E0B0E0858B968BA78BB08F0E94AC
:1041F0007D2AC82F883F88F40E94172A2C2F30E090
:104200002F5F3F4F482F50E02417350734F482E0EA
:104210008C0F80933C0B0E941B2A0E9437170E9430
:10422000312081E0DF91CF910895CF930E9435171F
:10423000E091A20CF091A30C81E0858386830E941B
:104240007D2AC82F883F88F40E94172A2C2F30E03F
:104250002F5F3F4F482F50E02417350734F482E09A
:104260008C0F80933C0B0E941B2A0E9437170E94E0
:10427000312081E0CF9108951F93CF93DF93CDB785
:10428000DEB728970FB6F894DEBF0FBECDBF2983E7
:104290003A834B835C836D837E838F8398870E94F0
:1042A0003E1B0E943517E091A20CF091A30C81E017
:1042B000858381E090E092A781A70E947D2A182F34
:1042C000CE0101960E945C24E091A20CF091A30C17
:1042D000610F711D811D911D658B768B878B908F72
:1042E000183F88F40E94172A212F30E02F5F3F4F9C
:1042F000482F50E02417350734F482E0810F809373
:104300003C0B0E941B2A0E9437170E94312081E03B
:1043100028960FB6F894DEBF0FBECDBFDF91CF91C8
:104320001F9108958F929F92AF92BF92CF92DF928A
:10433000EF92FF920F931F93CF93DF93CDB7DEB72A
:1043400060970FB6F894DEBF0FBECDBF29873A87BE
:104350004B875C876D877E878F87988BCE01019610
:104360000E94EE2189809A80AB80BC80CD80DE8067
:10437000EF80F88409851A852B853C854D855E85FF
:104380006F857889CE0109960E944A228F3F61F09D
:1043900029853A854B855C856D857E858F859889D5
:1043A0000E943C2181E001C08FEF60960FB6F89427
:1043B000DEBF0FBECDBFDF91CF911F910F91FF9058
:1043C000EF90DF90CF90BF90AF909F908F90089527
:1043D000E091A20CF091A30C80850895CF92DF921A
:1043E000EF92FF92CF93DF93EC011C821D821E821D
:1043F0001F824091990C50919A0C60919B0C709186
:104400009C0C488359836A837B83C0909D0CD09019
:104410009E0CE0909F0CF090A00CCC82DD82EE828E
:10442000FF820E947D2AA82FB0E023EB36EE4EE0FB
:1044300050E00E94682F6C0D7D1D8E1D9F1D6C83AA
:104440007D838E839F834C815D816E817F81411549
:104450008AEC58078AE968078BE37807A0F05A5C72
:104460006A497B434C835D836E837F834881598196
:104470006A817B814F5F5F4F6F4F7F4F48835983C6
:104480006A837B83E0CFDF91CF91FF90EF90DF9045
:10449000CF9008958F929F92AF92BF92CF92DF926A
:1044A000EF92FF920F931F93CF93DF93CDB7DEB7B9
:1044B00060970FB6F894DEBF0FBECDBFFC01098335
:1044C0001A832B833C834D835E836F837887898631
:1044D0009A86AB86BC86CD86DE86EF86F88A898092
:1044E0009A80AB80BC800D811E812F813885C98464
:1044F000DA84EB84FC844D855E856F8578898C1425
:104500009D04AE04BF0408F43FC0C814D904EA04F3
:10451000FB0491F40417150726073707A8F1041BBD
:10452000150B260B370B04831583268337831082E4
:1045300011821282138226C0041715072607370737
:1045400088F481E0881A9108A108B1088C189D08A8
:10455000AE08BF0880829182A282B382165325469C
:10456000344C08C08C189D08AE08BF088082918228
:10457000A282B382041B150B260B370B0483158311
:104580002683378381E001C08FEF60960FB6F894E1
:10459000DEBF0FBECDBFDF91CF911F910F91FF9076
:1045A000EF90DF90CF90BF90AF909F908F90089545
:1045B000FC01448155816681778141158AEC580759
:1045C0008AE968078BE37807A0F05A5C6A497B4365
:1045D00044835583668377834081518162817381EF
:1045E0004F5F5F4F6F4F7F4F408351836283738371
:1045F000E0CF08958F929F92AF92BF92CF92DF92B9
:10460000EF92FF920F931F93CF93DF93CDB7DEB757
:1046100060970FB6F894DEBF0FBECDBF09831A8333
:104620002B833C834D835E836F83788789869A864C
:10463000AB86BC86CD86DE86EF86F88A49855A85AC
:104640006B857C8509811A812B813C81400F511F2C
:10465000621F731FFC0140835183628373834D8506
:104660005E856F8578890D811E812F813885400F89
:10467000511F621F731F44835583668377830E9493
:10468000D82281E060960FB6F894DEBF0FBECDBF92
:10469000DF91CF911F910F91FF90EF90DF90CF901E
:1046A000BF90AF909F908F9008956093990C7093F6
:1046B0009A0C80939B0C90939C0C20939D0C3093B0
:1046C0009E0C40939F0C5093A00C08952F923F9204
:1046D0004F925F926F927F928F929F92AF92BF9212
:1046E000CF92DF92EF92FF920F931F93CF93DF93BE
:1046F000CDB7DEB762970FB6F894DEBF0FBECDBF61
:10470000DC014D905D906D907C90139714966D91A7
:104710007D918D919C91179741145104610471040E
:1047200009F46CC0B2E44B1651046104710408F042
:104730006DC07B018C0120E030E0A9016983FA8221
:104740000B831C832D833E834F835887A0E0B0E00A
:10475000198A1A8A312C812CF0E0E0E0912C9D011D
:1047600049895A89632D782D8F2F9E2FA980BA8071
:10477000CB80DC80ED80FE800F8118850E9459304F
:10478000222E39874A875B876C877D878E879F8734
:104790009D0149895A89632D782D8F2F9E2F36537D
:1047A0004546544C6F4F7F4F8F4F9F4FD901498BD8
:1047B0005A8B362E872EF82FE92F492D50E060E0D6
:1047C00070E0441555056605770510F49394C7CF3E
:1047D00083EBA82E96EEB92E2EE0C22ED12CE12C22
:1047E000F12C00E010E0222D39854A855B856C852F
:1047F0007D858E859F850E94EE2F06C023EB36EEC9
:104800004EE050E00E94B32FC90102C080E090E06A
:1048100062960FB6F894DEBF0FBECDBFDF91CF9189
:104820001F910F91FF90EF90DF90CF90BF90AF90CE
:104830009F908F907F906F905F904F903F902F90C0
:104840000895CF92DF92EF92FF92CF93DF93CDB78F
:10485000DEB728970FB6F894DEBF0FBECDBF6B0151
:104860007C013AE0F694E794D794C7943A95D1F74F
:10487000C982DA82EB82FC829B01AC01337044274F
:10488000552763EB76EE8EE090E00E947B2F6D83E0
:104890007E838F8398872C2D3A814B815C8128966B
:1048A0000FB6F894DEBF0FBECDBFDF91CF91FF9062
:1048B000EF90DF90CF9008952F923F924F925F92AA
:1048C0006F927F928F929F92AF92BF92CF92DF9220
:1048D000EF92FF920F931F93CF93DF93CDB7DEB785
:1048E00062970FB6F894DEBF0FBECDBFDC014D90CE
:1048F0005D906D907C90139714966D917D918D9144
:104900009C911797411451046104710409F466C025
:104910007B018C0120E030E0A9016983FA820B83DE
:104920001C832D833E834F835887A0E0B0E0198A13
:104930001A8A312C812CF0E0E0E0912C9D0149890C
:104940005A89632D782D8F2F9E2FA980BA80CB8016
:10495000DC80ED80FE800F8118850E945930222E68
:1049600039874A875B876C877D878E879F879D0104
:1049700049895A89632D782D8F2F9E2F36534546AE
:10498000544C6F4F7F4F8F4F9F4FD901498B5A8B9C
:10499000362E872EF82FE92F492D50E060E070E089
:1049A000441555056605770510F49394C7CF43EB7E
:1049B000A42E56EEB52E6EE0C62ED12CE12CF12C95
:1049C00000E010E0222D39854A855B856C857D8568
:1049D0008E859F850E94EE2FCA0107C023EB36EE1D
:1049E0004EE050E00E94B32FCA01B90162960FB6A3
:1049F000F894DEBF0FBECDBFDF91CF911F910F9115
:104A0000FF90EF90DF90CF90BF90AF909F908F90EE
:104A10007F906F905F904F903F902F900895C2E0ED
:104A2000D1E00E943E1B0E94172A843028F4D093C4
:104A3000960C0E94262D08C08AE090E00E942E2944
:104A4000C093960C0E941A2D8091B70A853519F0F3
:104A500088E00E94C01980917E41853511F388E07D
:104A60000E94C019DECF2F923F924F925F926F92B9
:104A70007F928F929F92AF92BF92CF92DF92EF92EE
:104A8000FF920F931F93CF93DF93CDB7DEB7299794
:104A90000FB6F894DEBF0FBECDBF0E944B290E9417
:104AA00037170E9469290E9471299F838E838AEF9C
:104AB0000E941B2AA0913C0BB0E023EB36EE4EE0A7
:104AC00050E00E94682F6B017C0180919D0C9091B9
:104AD0009E0CA0919F0CB091A00CC80ED91EEA1E8E
:104AE000FB1EC701B6010E94B32F0091990C1091D3
:104AF0009A0C20919B0C30919C0CC61AD70AE80A9C
:104B0000F90A63EB462E66EE562E6EE0662E712C89
:104B1000480159018FEF881A980AA80AB80AC114E7
:104B20009AECD9069AE9E9069BE3F90698F02AEC93
:104B3000D21A2AE9E20A2BE3F20AC701B601A3015D
:104B400092010E94B32FC61AD70AE80AF90A950102
:104B50008401DECF0093990C10939A0C20939B0C48
:104B600030939C0CC0929D0CD0929E0CE0929F0CB6
:104B7000F092A00CE091A20CF091A30C8581882307
:104B800039F18185843021F18781823029F08823B1
:104B900041F08681811102C085E001C083E08187F8
:104BA00014C083E081871782168285899689A78938
:104BB000B08D892B8A2B8B2B41F4818D928DA38D07
:104BC000B48D858B968BA78BB08F80850E94591FE3
:104BD000E091A20CF091A30C85A196A1A7A1B0A58C
:104BE000892B8A2B8B2B09F444C02085222309F4BE
:104BF00040C081858430E9F1458D568D678D70A167
:104C000080913C0B90E0A0E0B0E0481759076A079C
:104C10007B0768F4622F82E00E94CB19E091A20C1E
:104C2000F091A30C158E168E178E10A208C0481B8B
:104C3000590B6A0B7B0B458F568F678F70A3E091E2
:104C4000A20CF091A30C1085458D568D678D70A137
:104C5000452B462B472B69F4612F83E00E94CB192B
:104C6000E091A20CF091A30C83E08187812F0E9438
:104C7000591F05EE1BE036EE232E3BE0332E42EFAC
:104C8000A42E4BE0B42EA4EEBBE0BA83A983E3EEDE
:104C9000FBE0FC83EB8352EE852E5BE0952E20E655
:104CA0003AEE398728871D82D8018C918F3F09F40D
:104CB0002AC1F40110828C91882309F46AC0D101C1
:104CC0008C91843009F465C0F501C080D180E28008
:104CD000F38060913C0B70E080E090E0C616D70650
:104CE000E806F90648F0C61AD70AE80AF90AC082A7
:104CF000D182E282F38205C0F50110821182128214
:104D00001382D8015196CD90DD90ED90FC90549790
:104D1000C616D706E806F90650F0C61AD70AE80AFA
:104D2000F90AF801C18AD28AE38AF48A21C0D8013B
:104D300059962D913D914D915C915C976217730747
:104D40008407950760F469017A01C61AD70AE80A50
:104D5000F90AF801C18AD28AE38AF48A09C00E945A
:104D6000B32FD80151966D937D938D939C93549757
:104D7000F80181899289A389B489892B8A2B8B2B8D
:104D800041F4818D928DA38DB48D818B928BA38BF9
:104D9000B48BD1018C91833009F0B5C0F5018081CD
:104DA0009181A281B381892B8A2B8B2B09F096C02C
:104DB000A981BA818C918823B9F0EB81FC81808133
:104DC000882391F081E090E0A0E0B0E00090920CA8
:104DD00004C0880F991FAA1FBB1F0A94D2F7F801BD
:104DE00081879287A387B487A981BA811C92EB81BE
:104DF000FC811082D4011C92F50184899589D80127
:104E00005D964D915D916D917C919097F801458BE8
:104E1000568B678B708F019729F5E2E0D101EC93F7
:104E2000F80181899289A389B489F50180839183EE
:104E3000A283B383F801818D928DA38DB48D892BCC
:104E40008A2B8B2B59F42AEFC22ED12CE12CF12C7A
:104E5000D501CD92DD92ED92FC9213978D810E9447
:104E6000B71E3CC0D50154964D905C905597B1E06B
:104E70004B1A5108612C712C618D728D838D948D2C
:104E8000A30192010E947B2FF501608371838283CD
:104E90009383D8015996CD90DD90ED90FC905C976E
:104EA000C701B6010E947B2FF801618B728B838B47
:104EB000948BCD28CE28CF2859F49AEFC92ED12C27
:104EC000E12CF12CD501CD92DD92ED92FC9213975D
:104ED000CC24C394D12CF501D58AC48AF5018081F4
:104EE0009181A281B3810097A105B10561F0C884C9
:104EF000D984A60160E070E084179507A607B7077C
:104F000010F4998788872D812F5F2D83055D1F4FB2
:104F10003BE2230E311C8BE2A80EB11CA981BA81A1
:104F20009B96BA83A983EB81FC81BB96FC83EB83C0
:104F3000FBE28F0E911C243009F0B6CE0E94A61E13
:104F4000F82E2BE28202F0011124E352F44F828505
:104F50008093A40CF093940CE093930CFF2021F128
:104F600045A156A167A170A5452B462B472BB1F053
:104F7000458D568D678D70A14A3F510561057105BC
:104F800068F4C884D984860120E030E040175107D6
:104F90006207730748F55987488726C028853985F1
:104FA0002B3F310508F119C028853985243031059A
:104FB000D8F0235031092A3F310550F4398728872A
:104FC0002230310588F4A2E0B0E0B987A8870CC090
:104FD000288539852D3F310519F0AAEFB0E0F5CFCE
:104FE00027EF30E0398728878093950CF093A30C46
:104FF000E093A20C388530933C0B0E947D2A282F29
:1050000030E02F5F3F4FC884D9842C153D0558F000
:105010000E947D2AC82ED12C96012E5F3F4F3987E2
:10502000288720933C0BF1101092960C88850E94E3
:105030001B2A6CED75E08E819F810E9483290E945E
:10504000B22D29960FB6F894DEBF0FBECDBFDF910B
:10505000CF911F910F91FF90EF90DF90CF90BF9075
:10506000AF909F908F907F906F905F904F903F9008
:105070002F900C94BD2D4091BF0C141694F054E069
:10508000450290011124F901E054F34F6083F901C6
:10509000EE53F34F918380834F5F4093BF0C81E0C9
:1050A00008958FEF08950F931F93CF93DF93062FEB
:1050B0004091BF0C552747FD509510E0E82FF0E0D8
:1050C000212F30E0241735078CF5E901CC0FDD1FC7
:1050D000CC0FDD1FDE01A054B34F8C91992787FDC3
:1050E00090958E179F0701F5F901EC53F34F8081DE
:1050F00081110EC081E08083FE01EE53F34F0190D9
:10510000F081E02D20E040E050E0602F80E0099544
:10511000CE53D34FE881F98120E040E050E0602F8A
:1051200081E00995812F03C01F5FCACF8FEFDF9108
:10513000CF911F910F910895E82FF0E08091BF0C5F
:10514000992787FD90958E179F077CF0EE0FFF1F24
:10515000EE0FFF1FEE53F34F0190F081E02D20E0A2
:1051600040E050E060E082E0099481E00E941C1978
:105170008FEF0895242FE82FF0E08091BF0C99273E
:1051800087FD90958E179F076CF0EE0FFF1FEE0FB7
:10519000FF1FEE53F34F0190F081E02DAB0160E073
:1051A00086E0099481E00E941C198FEF0895242F56
:1051B000E82FF0E08091BF0C992787FD90958E171E
:1051C0009F076CF0EE0FFF1FEE0FFF1FEE53F34F24
:1051D0000190F081E02DAB0160E085E0099481E071
:1051E0000E941C198FEF0895242FE82FF0E0809182
:1051F000BF0C992787FD90958E179F076CF0EE0FD7
:10520000FF1FEE0FFF1FEE53F34F0190F081E02DD3
:1052100040E050E084E0099481E00E941C198FEF87
:105220000895E82FF0E08091BF0C992787FD9095B5
:105230008E179F0774F0EE0FFF1FEE0FFF1FEE5348
:10524000F34F0190F081E02D20E040E050E083E05A
:10525000099481E00E941C198FEF0895000000005E
:10526000000000000000000000000000000000003E
:10527000000000000197009789F70895109221011E
:10528000089589E0809321018DE89CE390932901A2
:105290008093280108951092250110922401089509
:1052A000CF93DF9300D0CDB7DEB7809124019091EA
:1052B00025019A83898389819A810F900F90DF91CC
:1052C000CF91089510928100089581E0809381002C
:1052D000089583B5816083BD10928500109284008B
:1052E0000895CF93DF9300D0CDB7DEB780918400CF
:1052F000909185009A83898389819A810F900F907C
:10530000DF91CF910895CF92DF92EF92FF92CF93EA
:10531000DF93EC01CC0FDD1FC9378FEFD80710F0FA
:10532000C0E0D0E06B01E12CF12CCC0EDD1EE11CC5
:10533000F11C81E0C816D104E806F10440F081E0D8
:10534000E81AF1080E947129C817D907D8F30E94FA
:1053500071298C159D05D8F3DF91CF91FF90EF90C7
:10536000DF90CF9008951092B100E0E7F0E08081E7
:105370008D7F808380818E7F808308958093B200AB
:105380000895E0E7F0E080818360808383E080938C
:10539000B100089583B5826083BD1092B20010926F
:1053A0003A0B10923C0B0895CF93DF938EEF8093CE
:1053B0003C0B80E28093B60080913C0B8093B3005D
:1053C00083E087BB92E09093B0008093B10093B5E7
:1053D000926093BD87BB84BD83B5826083BD10920C
:1053E000800081E0809381001092850010928400FB
:1053F00083B5826083BD83B5816083BD1092200137
:10540000C4E2D1E01982188283B5826083BD83B57E
:10541000816083BD0E94CA29198218820E94C12915
:105420000E94412910923A0BDF91CF91089580910B
:10543000B3008F5F089581508093B3000895811168
:1054400002C0109271008FEF0895811106C0109272
:1054500095001092940081E008958FEF08958111D6
:1054600005C08091940090919500089580E090E0AF
:105470000895811105C082E08093710081E0089554
:105480008FEF0895811135C0CB010197059710F476
:1054900060933B0B1092900088E0809391005093B2
:1054A0009900409398003093390B2093380B8091EA
:1054B0003B0B813021F480919100816011C08230DA
:1054C00021F48091910082600BC0833021F480919F
:1054D0009100836005C0843031F480919100846034
:1054E0008093910008C0853031F4809191008560EF
:1054F000F7CF8FEF089581E008958091B20008956D
:105500001F920F920FB60F92112460E08AE00E9462
:10551000CB19FFCF0F920FB60F921F922F923F928F
:105520004F925F926F927F928F929F92AF92BF92B3
:10553000CF92DF92EF92FF920F931F932F933F939F
:105540004F935F936F937F938F939F93AF93BF938B
:10555000CF93DF93EF93FF93A091A20CB091A30C94
:105560000DB60D920EB60D921F92A091620AB091E7
:10557000630A1E90BEBFADBF08951F920F920FB673
:105580000F9211240BB60F922F933F934F935F937B
:105590006F937F938F939F93AF93BF93EF93FF93FB
:1055A000E091380BF091390B309711F0099504C058
:1055B00060E08AE00E94CB19FF91EF91BF91AF911B
:1055C0009F918F917F916F915F914F913F912F911B
:1055D0000F900BBE0F900FBE0F901F9018951F924B
:1055E0000F920FB60F9211240F900FBE0F901F90C5
:1055F000189504B603FC02C080E001C080E104B647
:1056000002FE06C094B79B7F94BF04B600FE846080
:1056100004B601FE05C094B79D7F94BF82600895D3
:1056200081110CC004B600FE04C094B79E7F94BFE5
:1056300001C081E09091B000911181E00895811145
:1056400002C0E89A39C0813011F4E99A0895823095
:1056500011F4EA9A31C0833021F480916B008160AB
:1056600029C0843021F480916B00826023C0853092
:1056700021F480916B0084601DC0863021F48091FC
:105680006B00886017C0873021F480916B008061C7
:1056900011C0883021F480916B0080620BC089308A
:1056A00021F480916B00806405C08A3039F48091C8
:1056B0006B00806880936B0081E008958FEF089500
:1056C000811102C0E89839C0813011F4E998089539
:1056D000823011F4E99831C0833021F480916B005D
:1056E0008E7F29C0843021F480916B008D7F23C090
:1056F000853021F480916B008B7F1DC0863021F4B2
:1057000080916B00877F17C0873021F480916B00F8
:105710008F7E11C0883021F480916B008F7D0BC08B
:10572000893021F480916B008F7B05C08A3039F479
:1057300080916B008F7780936B0081E008958FEFED
:105740000895811126C05093C80C4093C70C611175
:1057500004C0809169008C7F3DC0613049F4809124
:1057600069008D7F8093690080916900816032C0FB
:10577000623049F480916900826080936900809171
:1057800069008E7F27C0633039F58091690083609E
:1057900021C0813049F55093C60C4093C50C61116E
:1057A00004C080916900837F15C0613049F4809105
:1057B0006900877F809369008091690084600AC0D6
:1057C000623061F480916900886080936900809103
:1057D00069008B7F8093690081E008956330E1F771
:1057E000809169008C60F6CF823031F55093CA0CFD
:1057F0004093C90C611104C0809169008F7CEACF8D
:10580000613049F4809169008F7D809369008091B7
:1058100069008061DFCF623049F480916900806265
:1058200080936900809169008F7ED4CF6330A1F6A8
:10583000809169008063CECF8350883050F480918E
:1058400068008160809368005093CC0C4093CB0C2F
:10585000C3CF8FEF08951F920F920FB60F921124AE
:105860000BB60F922F933F934F935F936F937F935A
:105870008F939F93AF93BF93EF93FF93E091CB0CE4
:10588000F091CC0C309711F0099504C060E08AE0EB
:105890000E94CB19FF91EF91BF91AF919F918F9192
:1058A0007F916F915F914F913F912F910F900BBE20
:1058B0000F900FBE0F901F9018951F920F920FB66A
:1058C0000F9211240BB60F922F933F934F935F9338
:1058D0006F937F938F939F93AF93BF93EF93FF93B8
:1058E000E091C70CF091C80C309711F0099504C0F5
:1058F00060E08AE00E94CB19FF91EF91BF91AF91D8
:105900009F918F917F916F915F914F913F912F91D7
:105910000F900BBE0F900FBE0F901F9018951F9207
:105920000F920FB60F9211240BB60F922F933F9345
:105930004F935F936F937F938F939F93AF93BF9397
:10594000EF93FF93E091C50CF091C60C309711F0E6
:10595000099504C060E08AE00E94CB19FF91EF91A5
:10596000BF91AF919F918F917F916F915F914F9177
:105970003F912F910F900BBE0F900FBE0F901F9075
:1059800018951F920F920FB60F9211240BB60F921B
:105990002F933F934F935F936F937F938F939F9337
:1059A000AF93BF93EF93FF93E091C90CF091CA0CB2
:1059B000309711F0099504C060E08AE00E94CB198D
:1059C000FF91EF91BF91AF919F918F917F916F91D7
:1059D0005F914F913F912F910F900BBE0F900FBE93
:1059E0000F901F9018950E943517A89584B7877F50
:1059F00084BFE0E6F0E080818861808310820C94AF
:105A000037170E943517A89584B7877F84BFE0E6D3
:105A1000F0E08081886180838DE080830C9437176B
:105A200004B603FC02C081E008958FEF0895A895A5
:105A30000895089583B7817F866083BF83B78160AF
:105A400083BF889583B78E7F83BF089583B7817F97
:105A500083BF83B7816083BF889583B78E7F83BF01
:105A60000895FC01768365830895EF92FF920F936A
:105A70001F93CF93DF93EC018B017A0140325105E4
:105A800018F481E10E94C019A70141505109400F4B
:105A9000511F5A8349831C830B83DF91CF911F9140
:105AA0000F91FF90EF90089525E5FA012083FB0107
:105AB00032979083FB0131978083FB0134971182E9
:105AC0001082FB01369711821082FB0138971182F8
:105AD0001082FB013A9711821082FB013C971182E0
:105AE0001082FB013E9711821082FB017097118298
:105AF0001082FB01729711821082FB017497118250
:105B00001082FB01769711821082FB017897118237
:105B10001082FB017A9711821082FB017C9711821F
:105B20001082FB017E9711821082FB01B0971182D7
:105B30001082FB01B29711821082CB018497FC0185
:105B400011821082089585E580937E41EEEFF1E4A5
:105B5000F093630AE093620A87E199E1908380936E
:105B6000FF41089587E199E19093FE418093FF41C1
:105B700008950E94D4290C943717A091930CB091EA
:105B8000940CCD91CDBFDD91DEBFFF91EF91DF9100
:105B9000CF91BF91AF919F918F917F916F915F91C5
:105BA0004F913F912F911F910F91FF90EF90DF90B8
:105BB000CF90BF90AF909F908F907F906F905F90AD
:105BC0004F903F902F901F900F900FBE0F90189501
:105BD0000E94321380E190E00E945A160E943C1706
:105BE0000E94DD0280E090E00E94F11581E090E0EB
:105BF0000E94F11582E090E00E94F11583E090E0B0
:105C00000E94F11520E030E0A90160E070E0CB01D6
:105C10000E9455230E949B0683E10E94D60364E7FD
:105C200088E59AE00E94C8030E94EC020E940918CD
:105C300080E090E008956F927F929F92AF92BF9222
:105C4000CF92DF92EF92FF920F931F93CF93DF9348
:105C5000CDB7DEB72C970FB6F894DEBF0FBECDBF21
:105C60008C017B013A01FC0117821682838181FF3E
:105C700019C1CE0101965C01F801D380F701D3FC74
:105C80002591D3FE21917F01222309F407C12532FA
:105C900049F4D3FC2591D3FE21917F01253211F0E7
:105CA000912C1BC0B801822F90E00E942C3163011F
:105CB0003601E2CF222309F4F1C0622F70E086EFB3
:105CC00094E02C870E94CD302C85892B49F0F70178
:105CD000D3FC2591D3FE21917F0197FEEBCF0CC021
:105CE000233221F4F92DF0619F2EF1CF2C3639F4B7
:105CF000292D2068922EEBCF222309F4CFC0622FEA
:105D000070E08FEE94E02C870E94CD302C85892B9B
:105D100041F06301F4E0CF0ED11CB8018FE390E0B5
:105D200012C0233641F0233789F0233521F5F92DB0
:105D3000F1609F2E0BC0630122E0C20ED11CB8019E
:105D4000F301808191810E942C31B2CF630122E066
:105D5000C20ED11CF30160807180F30190FC85912B
:105D600090FE81913F01882309F4A2CFB80190E011
:105D70000E942C31F2CF243611F0293639F5630117
:105D800097FE09C0F4E0CF0ED11CF3016081718150
:105D9000828193810AC0F2E0CF0ED11CF3016081B1
:105DA0007181882777FD8095982FF92DFF7E9F2E92
:105DB00097FF09C090958095709561957F4F8F4FA3
:105DC0009F4FF0649F2E2AE030E038C02037A1F0CA
:105DD00040F42835D1F02F3609F060C028E030E0DB
:105DE00019C0253719F0283751F058C0292D2F7EBA
:105DF000922E2AE030E00EC0892D8061982E992DD8
:105E00009462992E20E130E005C0E92DE4609E2ED9
:105E100020E132E0630197FE09C0F4E0CF0ED11C0F
:105E2000F301608171818281938108C0F2E0CF0E1D
:105E3000D11CF3016081718180E090E0A5010E9496
:105E4000D231782E7A1896FE05C0B8018DE290E026
:105E50000E942C3194FE16C0FE01E70DF11D8081D9
:105E6000803381F0B80180E390E00E942C3192FEF3
:105E700009C0292D2072822F90E0B801885A9F4FC7
:105E80000E942C317A94F501E70DF11D8081B80153
:105E900090E00E942C317110F5CF0ACFF801868175
:105EA000978102C08FEF9FEF2C960FB6F894DEBF5C
:105EB0000FBECDBFDF91CF911F910F91FF90EF905B
:105EC000DF90CF90BF90AF909F907F906F9008959C
:105ED0000E946230A59F900DB49F900DA49F800DED
:105EE000911D11240895B7FF0C94682F0E94682F0C
:105EF000821B930B0895DB018F939F930E94682F61
:105F0000BF91AF91A29F800D911DA39F900DB29F55
:105F1000900D11240895AA1BBB1B51E107C0AA1FB5
:105F2000BB1FA617B70710F0A61BB70B881F991F3A
:105F30005A95A9F780959095BC01CD01089597FBDE
:105F4000072E16F4009407D077FD09D00E948B2FFE
:105F500007FC05D03EF4909581959F4F089570956C
:105F600061957F4F0895A1E21A2EAA1BBB1BFD016C
:105F70000DC0AA1FBB1FEE1FFF1FA217B307E40728
:105F8000F50720F0A21BB30BE40BF50B661F771F80
:105F9000881F991F1A9469F7609570958095909560
:105FA0009B01AC01BD01CF010895052E97FB1EF4A6
:105FB00000940E944B3057FD07D00E94B32F07FC7E
:105FC00003D04EF40C944B3050954095309521956C
:105FD0003F4F4F4F5F4F0895689401C0E8948F92F0
:105FE0009F92CF93DF930E94FA2FDF91CF919F90E2
:105FF0008F90089588249924F401E401B0E49F93DC
:10600000AA279A158B049C04ED05FE05CF05D00741
:10601000A10798F4AD2FDC2FCF2FFE2FE92D982C60
:10602000892E982F872F762F652F542F432F322FAD
:106030002227B85031F7BF9127C01B2EBF91BB2735
:10604000220F331F441F551F661F771F881F991F7C
:10605000881C991CEE1FFF1FCC1FDD1FAA1FBB1F32
:106060008A149B04EC05FD05CE05DF05A007B107EA
:1060700048F08A189B08EC09FD09CE09DF09A00B3E
:10608000B10B21601A94E1F62EF49401AF01BE0128
:10609000CD01000C089590958095709561957F4F86
:1060A0008F4F9F4F0895EE0FFF1F0590F491E02D45
:1060B00009942A0D3B1D4C1D5D1D6E1D7F1D801F0B
:1060C000911F0895A29FB001B39FC001A39F700DBF
:1060D000811D1124911DB29F700D811D1124911DF0
:1060E00008958F929F92AF92BF92CF92DF92EF92DC
:1060F000FF92CF93DF93EC01688179818A819B8144
:10610000611571058105910521F464E279ED8BE556
:1061100097E02DE133EF41E050E00E94D52F490197
:106120005A019B01AC01A7EAB1E40E94682F6B0100
:106130007C01ACEEB4EFA50194010E94762FC60E4F
:10614000D71EE81EF91EF7FE06C081E0C81AD10866
:10615000E10880E8F80AC882D982EA82FB82C60197
:106160009F77DF91CF91FF90EF90DF90CF90BF901E
:10617000AF909F908F9008950C94713080E092E0E2
:106180000C947130A0E0B0E0809300029093010283
:10619000A0930202B09303020895FC010590061635
:1061A00021F00020D9F7C00108953197CF0108955B
:1061B000FB01DC0102C001900D9241505040D8F724
:1061C00008950F931F93CF93DF93EC018B010097FA
:1061D00031F46115710519F480E090E038C06EE08B
:1061E00070E081E090E00E944632FC010097A1F34C
:1061F00080E883830115110571F01387028781E818
:1062000083838091CD0C9091CE0C892B21F4F09357
:10621000CE0CE093CD0C2097C9F0D187C087838145
:10622000826083838091CF0C9091D00C892B71F484
:10623000F093D00CE093CF0C8091D10C9091D20CC4
:10624000892B21F4F093D20CE093D10CCF01DF9194
:10625000CF911F910F9108950F931F93CF93DF93C9
:10626000182F092FEB018B8181FD03C08FEF9FEF6A
:1062700020C082FF10C04E815F812C813D8142177A
:1062800053077CF4E881F9819F012F5F3F4F3983E9
:106290002883108306C0E885F985812F0995892B0D
:1062A00029F72E813F812F5F3F4F3F832E83812F20
:1062B000902FDF91CF911F910F910895CF93DF938E
:1062C000CDB7DEB7FE01359661917191AF01809136
:1062D000CF0C9091D00C0E941B2EDF91CF9108958E
:1062E0006091CF0C7091D00C0C942C310F931F93B4
:1062F000CF93DF93E091CF0CF091D00C238121FF5D
:106300001BC0EC0100E010E089916091CF0C70910E
:10631000D00CDB011896ED91FC911997882331F090
:106320000995892B89F30FEF1FEFEECF8AE00995CE
:10633000892B11F4C80102C08FEF9FEFDF91CF913D
:106340001F910F9108950F931F93CF93DF93CDB7B4
:10635000DEB72E970FB6F894DEBF0FBECDBF0D8906
:106360001E8986E08C831A8309838FEF9FE79E83C3
:106370008D83AE01475E5F4F6F89788DCE010196A8
:106380000E941B2EEF81F885E00FF11F10822E96E0
:106390000FB6F894DEBF0FBECDBFDF91CF911F9136
:1063A0000F910895FA01AA27283051F1203181F187
:1063B000E8946F936E7F6E5F7F4F8F4F9F4FAF4F0D
:1063C000B1E03ED0B4E03CD0670F781F891F9A1F20
:1063D000A11D680F791F8A1F911DA11D6A0F711DD4
:1063E000811D911DA11D20D009F468943F912AE0E0
:1063F000269F11243019305D3193DEF6CF010895C8
:10640000462F4770405D4193B3E00FD0C9F7F6CFF8
:10641000462F4F70405D4A3318F0495D31FD4052C0
:10642000419302D0A9F7EACFB4E0A6959795879556
:1064300077956795BA95C9F7009761057105089535
:106440009B01AC010A2E06945795479537952795E1
:10645000BA95C9F7620F731F841F951FA01D089579
:10646000F999FECF92BD81BDF89A992780B508951C
:10647000262FF999FECF1FBA92BD81BD20BD0FB660
:10648000F894FA9AF99A0FBE019608950F931F9304
:10649000CF93DF93869F8001879F100D969F100DED
:1064A0001124C8010E946232EC01009729F0A80172
:1064B00060E070E00E948933CE01DF91CF911F919F
:1064C0000F910895CF93DF938230910510F482E00D
:1064D00090E0E091D50CF091D60C20E030E0A0E007
:1064E000B0E0309739F14081518148175907B8F031
:1064F0004817590771F482819381109729F01396F8
:106500009C938E9312972CC09093D60C8093D50CAD
:1065100027C02115310531F04217530718F0A901A2
:10652000DB0101C0EF019A01BD01DF010280F381AF
:10653000E02DD7CF21153105F9F0281B390B243078
:10654000310580F48A819B816115710521F0FB0181
:106550009383828304C09093D60C8093D50CFE0164
:10656000329644C0FE01E20FF31F819391932250B3
:106570003109398328833AC02091D30C3091D40C4F
:10658000232B41F420910602309107023093D40C62
:106590002093D30C2091040230910502211531057E
:1065A00041F42DB73EB74091080250910902241BD7
:1065B000350BE091D30CF091D40CE217F307A0F463
:1065C0002E1B3F0B2817390778F0AC014E5F5F4F49
:1065D0002417350748F04E0F5F1F5093D40C40939B
:1065E000D30C8193919302C0E0E0F0E0CF01DF9102
:1065F000CF910895CF93DF93009709F487C0FC01F2
:10660000329713821282C091D50CD091D60C20976C
:1066100081F420813181280F391F8091D30C909112
:10662000D40C8217930779F5F093D40CE093D30C34
:106630006DC0DE0120E030E0AE17BF0750F41296C7
:106640004D915C9113979D014115510509F1DA01B6
:10665000F3CFB383A28340815181840F951F8A17A2
:106660009B0771F48D919C911197840F951F029651
:106670009183808312968D919C911397938382834B
:106680002115310529F4F093D60CE093D50C3EC0CA
:10669000D9011396FC93EE9312974D915D91A40F3F
:1066A000B51FEA17FB0779F480819181840F951F4C
:1066B0000296D90111969C938E93828193811396B1
:1066C0009C938E931297E0E0F0E08A819B81009783
:1066D00019F0FE01EC01F9CFCE0102962881398133
:1066E000820F931F2091D30C3091D40C28173907B7
:1066F00069F4309729F41092D60C1092D50C02C090
:1067000013821282D093D40CC093D30CDF91CF911B
:106710000895DC0101C06D9341505040E0F70895A9
:04672000F894FFCF1B
:10672400010000000000D70C20003D352D251D156B
:106734000D053D352D251D150D052E261E160E069F
:10674400FFFF0C043C342C241C140C043B332B237B
:106754001B130B3B332B231B130B03FFFFFFFFFF09
:10676400FFFFFF393129211911090119110901FF0D
:10677400FFFFFFFFFFFFFFFFFFFFFF74785F746100
:10678400736B205049443D25640D0A006572726F95
:10679400723A205457492073746174757320252309
:1067A400780A0072665F72785F7061636B65745F0C
:1067B4006E6F6E626C6F636B206661696C65645D9D
:1067C4000D005061636B657420697320646F6E659E
:1067D40020626F756E63696E672061726F756E6497
:1067E400210D0A005345513A2534750954544C3A45
:1067F40025326409525353493A2534640950617966
:106804006C6F61643A205B25735D0D0A0052582059
:10681400656E64206661696C656420636865636B9A
:1068240073756D210D002564006375723A2025642B
:10683400200063616E617279203D20257820007309
:10684400746B203D202578200074636220616464A9
:1068540072203D2025780D0A0025643A20626F7469
:0A686400746F6D203D2025782000A0
:00000001FF
