Archive member included because of file (symbol)

/usr/lib/gcc/avr/4.8.2/../../../avr/lib/avr51/libprintf_min.a(vfprintf_min.o)
                              (vfprintf)
/usr/lib/gcc/avr/4.8.2/avr51/libgcc.a(_muluhisi3.o)
                              ../../../src/drivers/platform/firefly3/source/ff_basic_sensor.o (__muluhisi3)
/usr/lib/gcc/avr/4.8.2/avr51/libgcc.a(_mulshisi3.o)
                              ../../../src/drivers/platform/firefly3/source/ff_basic_sensor.o (__mulshisi3)
/usr/lib/gcc/avr/4.8.2/avr51/libgcc.a(_mulsi3.o)
                              ../../../src/drivers/platform/firefly3/source/ff_basic_sensor.o (__mulsi3)
/usr/lib/gcc/avr/4.8.2/avr51/libgcc.a(_udivmodhi4.o)
                              ../../../src/net/bmac/rf231_soc/bmac.o (__udivmodhi4)
/usr/lib/gcc/avr/4.8.2/avr51/libgcc.a(_divmodhi4.o)
                              main.o (__divmodhi4)
/usr/lib/gcc/avr/4.8.2/avr51/libgcc.a(_udivmodsi4.o)
                              ../../../src/net/bmac/rf231_soc/bmac.o (__udivmodsi4)
/usr/lib/gcc/avr/4.8.2/avr51/libgcc.a(_divmodsi4.o)
                              ../../../src/drivers/platform/firefly3/source/ff_basic_sensor.o (__divmodsi4)
/usr/lib/gcc/avr/4.8.2/avr51/libgcc.a(_udivdi3.o)
                              ../../../src/kernel/source/nrk_time.o (__udivdi3)
/usr/lib/gcc/avr/4.8.2/avr51/libgcc.a(_udivmod64.o)
                              /usr/lib/gcc/avr/4.8.2/avr51/libgcc.a(_udivdi3.o) (__udivmod64)
/usr/lib/gcc/avr/4.8.2/avr51/libgcc.a(_negsi2.o)
                              /usr/lib/gcc/avr/4.8.2/avr51/libgcc.a(_divmodsi4.o) (__negsi2)
/usr/lib/gcc/avr/4.8.2/avr51/libgcc.a(_exit.o)
                              /usr/lib/gcc/avr/4.8.2/../../../avr/lib/avr51/crtm128rfa1.o (exit)
/usr/lib/gcc/avr/4.8.2/avr51/libgcc.a(_tablejump.o)
                              ../../../src/platform/firefly3/source/ulib.o (__tablejump2__)
/usr/lib/gcc/avr/4.8.2/avr51/libgcc.a(_copy_data.o)
                              main.o (__do_copy_data)
/usr/lib/gcc/avr/4.8.2/avr51/libgcc.a(_clear_bss.o)
                              main.o (__do_clear_bss)
/usr/lib/gcc/avr/4.8.2/avr51/libgcc.a(_adddi3.o)
                              ../../../src/kernel/source/nrk_time.o (__adddi3)
/usr/lib/gcc/avr/4.8.2/avr51/libgcc.a(_umulhisi3.o)
                              /usr/lib/gcc/avr/4.8.2/avr51/libgcc.a(_muluhisi3.o) (__umulhisi3)
/usr/lib/gcc/avr/4.8.2/../../../avr/lib/avr51/libc.a(rand.o)
                              ../../../src/net/bmac/rf231_soc/bmac.o (rand)
/usr/lib/gcc/avr/4.8.2/../../../avr/lib/avr51/libc.a(strchr_P.o)
                              /usr/lib/gcc/avr/4.8.2/../../../avr/lib/avr51/libprintf_min.a(vfprintf_min.o) (strchr_P)
/usr/lib/gcc/avr/4.8.2/../../../avr/lib/avr51/libc.a(memcpy.o)
                              ../../../src/radio/rf231_soc/source/basic_rf.o (memcpy)
/usr/lib/gcc/avr/4.8.2/../../../avr/lib/avr51/libc.a(fdevopen.o)
                              ../../../src/platform/firefly3/source/ulib.o (fdevopen)
/usr/lib/gcc/avr/4.8.2/../../../avr/lib/avr51/libc.a(fputc.o)
                              ../../../src/platform/firefly3/source/ulib.o (fputc)
/usr/lib/gcc/avr/4.8.2/../../../avr/lib/avr51/libc.a(iob.o)
                              ../../../src/platform/firefly3/source/ulib.o (__iob)
/usr/lib/gcc/avr/4.8.2/../../../avr/lib/avr51/libc.a(printf.o)
                              main.o (printf)
/usr/lib/gcc/avr/4.8.2/../../../avr/lib/avr51/libc.a(putchar.o)
                              ../../../src/radio/rf231_soc/source/basic_rf.o (putchar)
/usr/lib/gcc/avr/4.8.2/../../../avr/lib/avr51/libc.a(puts.o)
                              main.o (puts)
/usr/lib/gcc/avr/4.8.2/../../../avr/lib/avr51/libc.a(sprintf.o)
                              ../../../src/kernel/source/nrk_error.o (sprintf)
/usr/lib/gcc/avr/4.8.2/../../../avr/lib/avr51/libc.a(ultoa_invert.o)
                              /usr/lib/gcc/avr/4.8.2/../../../avr/lib/avr51/libprintf_min.a(vfprintf_min.o) (__ultoa_invert)
/usr/lib/gcc/avr/4.8.2/../../../avr/lib/avr51/libc.a(eerd_byte_atmega128rfa1.o)
                              ../../../src/platform/firefly3/source/nrk_eeprom.o (__eerd_byte_m128rfa1)
/usr/lib/gcc/avr/4.8.2/../../../avr/lib/avr51/libc.a(eewr_byte_atmega128rfa1.o)
                              ../../../src/platform/firefly3/source/nrk_eeprom.o (__eewr_byte_m128rfa1)
/usr/lib/gcc/avr/4.8.2/../../../avr/lib/avr51/libc.a(calloc.o)
                              /usr/lib/gcc/avr/4.8.2/../../../avr/lib/avr51/libc.a(fdevopen.o) (calloc)
/usr/lib/gcc/avr/4.8.2/../../../avr/lib/avr51/libc.a(malloc.o)
                              /usr/lib/gcc/avr/4.8.2/../../../avr/lib/avr51/libc.a(calloc.o) (malloc)
/usr/lib/gcc/avr/4.8.2/../../../avr/lib/avr51/libc.a(memset.o)
                              /usr/lib/gcc/avr/4.8.2/../../../avr/lib/avr51/libc.a(calloc.o) (memset)

Allocating common symbols
Common symbol       size              file

rx_ctr              0x4               ../../../src/radio/rf231_soc/source/basic_rf.o
t                   0x1               ../../../src/kernel/source/nrk_scheduler.o
_free_node          0x2               ../../../src/kernel/source/nrk.o
app_timer0_callback
                    0x2               ../../../src/net/bmac/rf231_soc/bmac.o
nrk_task_TCB        0x102             ../../../src/kernel/source/nrk.o
next_next_wakeup    0x2               ../../../src/kernel/source/nrk.o
ext_int1_callback   0x2               ../../../src/kernel/hal/atmega128rfa1/nrk_ext_int.o
radio_sem           0x2               ../../../src/radio/rf231_soc/source/basic_rf.o
use_glossy          0x1               ../../../src/radio/rf231_soc/source/basic_rf.o
packet              0x23              main.o
tx_task_stack       0x200             main.o
twst                0x1               ../../../src/drivers/platform/firefly3/source/twi_base_calls.o
ext_int0_callback   0x2               ../../../src/kernel/hal/atmega128rfa1/nrk_ext_int.o
eeprom_values       0x16              ../../../src/drivers/platform/firefly3/source/ff_basic_sensor.o
nrk_sem_list        0x6               ../../../src/kernel/source/nrk.o
sensors_task_stack  0x200             main.o
nrk_task_init_cnt   0x1               ../../../src/kernel/source/nrk.o
error_task          0x1               main.o
MULTI_SENSING_TASK  0x23              main.o
B6                  0x4               ../../../src/drivers/platform/firefly3/source/ff_basic_sensor.o
UT                  0x4               ../../../src/drivers/platform/firefly3/source/ff_basic_sensor.o
X2                  0x4               ../../../src/drivers/platform/firefly3/source/ff_basic_sensor.o
mdmctrl0            0x2               ../../../src/radio/rf231_soc/source/basic_rf.o
b_packet            0x5               main.o
rfSettings          0x9               ../../../src/radio/rf231_soc/source/basic_rf.o
_nrk_time_trigger   0x1               ../../../src/net/bmac/rf231_soc/bmac.o
ext_int2_callback   0x2               ../../../src/kernel/hal/atmega128rfa1/nrk_ext_int.o
__brkval            0x2               /usr/lib/gcc/avr/4.8.2/../../../avr/lib/avr51/libc.a(malloc.o)
T                   0x4               ../../../src/drivers/platform/firefly3/source/ff_basic_sensor.o
nrk_wakeup_signal   0x1               ../../../src/kernel/source/nrk.o
nrk_high_ready_TCB  0x2               ../../../src/kernel/source/nrk.o
pc_int0_callback    0x2               ../../../src/kernel/hal/atmega128rfa1/nrk_ext_int.o
nrk_cur_task_prio   0x1               ../../../src/kernel/source/nrk.o
_nrk_cpu_state      0x1               ../../../src/kernel/source/nrk.o
B5                  0x4               ../../../src/drivers/platform/firefly3/source/ff_basic_sensor.o
is_open             0x1               ../../../src/drivers/platform/firefly3/source/ff_basic_sensor.o
bmac_enable_signal  0x1               main.o
rx_task_stack       0x200             main.o
bmac_rfTxInfo       0x7               main.o
_head_node          0x2               ../../../src/kernel/source/nrk.o
nrk_system_time     0x8               ../../../src/kernel/source/nrk.o
_nrk_signal_list    0x4               main.o
curr_time           0x8               main.o
curr_t              0x8               ../../../src/radio/rf231_soc/source/basic_rf.o
tx_done             0x1               ../../../src/radio/rf231_soc/source/basic_rf.o
ekey                0x10              ../../../src/radio/rf231_soc/source/basic_rf.o
_nrk_resource_cnt   0x1               ../../../src/kernel/source/nrk.o
bmac_rx_pkt_signal  0x1               main.o
rf_ready            0x1               ../../../src/radio/rf231_soc/source/basic_rf.o
X1                  0x4               ../../../src/drivers/platform/firefly3/source/ff_basic_sensor.o
channel             0x1               ../../../src/drivers/platform/firefly3/source/ff_basic_sensor.o
target_t            0x8               ../../../src/radio/rf231_soc/source/basic_rf.o
rx_buf              0x32              main.o
nrk_cur_task_TCB    0x2               ../../../src/kernel/source/nrk.o
X3                  0x4               ../../../src/drivers/platform/firefly3/source/ff_basic_sensor.o
_nrk_driver_count   0x1               ../../../src/kernel/source/nrk_driver.o
nrk_kernel_stk_ptr  0x2               main.o
nrk_drivers         0x4               ../../../src/kernel/source/nrk_driver.o
tx_buf              0x18              main.o
B4                  0x4               ../../../src/drivers/platform/firefly3/source/ff_basic_sensor.o
h_cnt               0x1               ../../../src/drivers/platform/firefly3/source/ff_basic_sensor.o
RX_TASK             0x23              main.o
dkey                0x10              ../../../src/radio/rf231_soc/source/basic_rf.o
TX_TASK             0x23              main.o
nrk_high_ready_prio
                    0x1               ../../../src/kernel/source/nrk.o
app_timer0_prescale
                    0x1               ../../../src/net/bmac/rf231_soc/bmac.o
nrk_driver_init     0x1               ../../../src/kernel/source/nrk_driver.o
tx_ctr              0x6               ../../../src/radio/rf231_soc/source/basic_rf.o
_nrk_prev_timer_val
                    0x1               ../../../src/net/bmac/rf231_soc/bmac.o
bmac_rfRxInfo       0xc               main.o
i2c_address         0x1               ../../../src/drivers/platform/firefly3/source/twi_base_calls.o
__flp               0x2               /usr/lib/gcc/avr/4.8.2/../../../avr/lib/avr51/libc.a(malloc.o)
B7                  0x4               ../../../src/drivers/platform/firefly3/source/ff_basic_sensor.o
error_num           0x1               main.o
_nrk_readyQ         0x23              ../../../src/kernel/source/nrk.o
UP                  0x4               ../../../src/drivers/platform/firefly3/source/ff_basic_sensor.o
__iob               0x6               /usr/lib/gcc/avr/4.8.2/../../../avr/lib/avr51/libc.a(iob.o)
rx_ready            0x1               ../../../src/radio/rf231_soc/source/basic_rf.o
nrk_idle_task_stk   0x80              main.o
bmac_tx_pkt_done_signal
                    0x1               main.o
P                   0x4               ../../../src/drivers/platform/firefly3/source/ff_basic_sensor.o
B3                  0x4               ../../../src/drivers/platform/firefly3/source/ff_basic_sensor.o
dummy_t             0x8               ../../../src/radio/rf231_soc/source/basic_rf.o

Memory Configuration

Name             Origin             Length             Attributes
text             0x00000000         0x00020000         xr
data             0x00800100         0x0000ff00         rw !x
eeprom           0x00810000         0x00010000         rw !x
fuse             0x00820000         0x00000400         rw !x
lock             0x00830000         0x00000400         rw !x
signature        0x00840000         0x00000400         rw !x
user_signatures  0x00850000         0x00000400         rw !x
*default*        0x00000000         0xffffffff

Linker script and memory map

Address of section .data set to 0x800200
LOAD /usr/lib/gcc/avr/4.8.2/../../../avr/lib/avr51/crtm128rfa1.o
LOAD main.o
LOAD ../../../src/net/bmac/rf231_soc/bmac.o
LOAD ../../../src/drivers/platform/firefly3/source/ff_basic_sensor.o
LOAD ../../../src/drivers/platform/firefly3/source/twi_base_calls.o
LOAD ../../../src/radio/rf231_soc/source/basic_rf.o
LOAD ../../../src/platform/firefly3/source/ulib.o
LOAD ../../../src/platform/firefly3/source/hal_wait.o
LOAD ../../../src/platform/firefly3/source/nrk_eeprom.o
LOAD ../../../src/kernel/source/nrk.o
LOAD ../../../src/kernel/source/nrk_stats.o
LOAD ../../../src/kernel/source/nrk_error.o
LOAD ../../../src/kernel/source/nrk_stack_check.o
LOAD ../../../src/kernel/source/nrk_events.o
LOAD ../../../src/kernel/source/nrk_task.o
LOAD ../../../src/kernel/source/nrk_time.o
LOAD ../../../src/kernel/source/nrk_idle_task.o
LOAD ../../../src/kernel/source/nrk_scheduler.o
LOAD ../../../src/kernel/source/nrk_driver.o
LOAD ../../../src/kernel/source/nrk_reserve.o
LOAD ../../../src/kernel/source/nrk_sw_wdt.o
LOAD ../../../src/kernel/hal/atmega128rfa1/nrk_timer.o
LOAD ../../../src/kernel/hal/atmega128rfa1/nrk_status.o
LOAD ../../../src/kernel/hal/atmega128rfa1/nrk_ext_int.o
LOAD ../../../src/kernel/hal/atmega128rfa1/nrk_watchdog.o
LOAD ../../../src/kernel/hal/atmega128rfa1/nrk_cpu.o
LOAD ../../../src/kernel/hal/atmega128rfa1/atmel_hw_specific.o
LOAD /usr/lib/gcc/avr/4.8.2/../../../avr/lib/avr51/libprintf_min.a
LOAD /usr/lib/gcc/avr/4.8.2/../../../avr/lib/avr51/libm.a
START GROUP
LOAD /usr/lib/gcc/avr/4.8.2/avr51/libgcc.a
LOAD /usr/lib/gcc/avr/4.8.2/../../../avr/lib/avr51/libm.a
LOAD /usr/lib/gcc/avr/4.8.2/../../../avr/lib/avr51/libc.a
END GROUP

.hash
 *(.hash)

.dynsym
 *(.dynsym)

.dynstr
 *(.dynstr)

.gnu.version
 *(.gnu.version)

.gnu.version_d
 *(.gnu.version_d)

.gnu.version_r
 *(.gnu.version_r)

.rel.init
 *(.rel.init)

.rela.init
 *(.rela.init)

.rel.text
 *(.rel.text)
 *(.rel.text.*)
 *(.rel.gnu.linkonce.t*)

.rela.text
 *(.rela.text)
 *(.rela.text.*)
 *(.rela.gnu.linkonce.t*)

.rel.fini
 *(.rel.fini)

.rela.fini
 *(.rela.fini)

.rel.rodata
 *(.rel.rodata)
 *(.rel.rodata.*)
 *(.rel.gnu.linkonce.r*)

.rela.rodata
 *(.rela.rodata)
 *(.rela.rodata.*)
 *(.rela.gnu.linkonce.r*)

.rel.data
 *(.rel.data)
 *(.rel.data.*)
 *(.rel.gnu.linkonce.d*)

.rela.data
 *(.rela.data)
 *(.rela.data.*)
 *(.rela.gnu.linkonce.d*)

.rel.ctors
 *(.rel.ctors)

.rela.ctors
 *(.rela.ctors)

.rel.dtors
 *(.rel.dtors)

.rela.dtors
 *(.rela.dtors)

.rel.got
 *(.rel.got)

.rela.got
 *(.rela.got)

.rel.bss
 *(.rel.bss)

.rela.bss
 *(.rela.bss)

.rel.plt
 *(.rel.plt)

.rela.plt
 *(.rela.plt)

.text           0x00000000     0x6ad8
 *(.vectors)
 .vectors       0x00000000      0x120 /usr/lib/gcc/avr/4.8.2/../../../avr/lib/avr51/crtm128rfa1.o
                0x00000000                __vectors
 *(.vectors)
 *(.progmem.gcc*)
 .progmem.gcc_sw_table
                0x00000120       0x54 ../../../src/platform/firefly3/source/ulib.o
 .progmem.gcc_sw_table
                0x00000174       0x40 ../../../src/kernel/source/nrk_error.o
 *(.progmem*)
 .progmem.data  0x000001b4       0x1f main.o
 .progmem.data  0x000001d3       0xdf ../../../src/net/bmac/rf231_soc/bmac.o
 .progmem.data  0x000002b2       0x15 ../../../src/platform/firefly3/source/ulib.o
 .progmem.data  0x000002c7      0x238 ../../../src/kernel/source/nrk_error.o
 .progmem.data  0x000004ff        0xf ../../../src/kernel/source/nrk_stack_check.o
 .progmem.data  0x0000050e       0x17 /usr/lib/gcc/avr/4.8.2/../../../avr/lib/avr51/libprintf_min.a(vfprintf_min.o)
                0x00000526                . = ALIGN (0x2)
 *fill*         0x00000525        0x1 
                0x00000526                __trampolines_start = .
 *(.trampolines)
 .trampolines   0x00000526        0x0 linker stubs
 *(.trampolines*)
                0x00000526                __trampolines_end = .
 *(.jumptables)
 *(.jumptables*)
 *(.lowtext)
 *(.lowtext*)
                0x00000526                __ctors_start = .
 *(.ctors)
                0x00000526                __ctors_end = .
                0x00000526                __dtors_start = .
 *(.dtors)
                0x00000526                __dtors_end = .
 SORT(*)(.ctors)
 SORT(*)(.dtors)
 *(.init0)
 .init0         0x00000526        0x0 /usr/lib/gcc/avr/4.8.2/../../../avr/lib/avr51/crtm128rfa1.o
                0x00000526                __init
 *(.init0)
 *(.init1)
 *(.init1)
 *(.init2)
 .init2         0x00000526        0xc /usr/lib/gcc/avr/4.8.2/../../../avr/lib/avr51/crtm128rfa1.o
 *(.init2)
 *(.init3)
 *(.init3)
 *(.init4)
 .init4         0x00000532       0x1a /usr/lib/gcc/avr/4.8.2/avr51/libgcc.a(_copy_data.o)
                0x00000532                __do_copy_data
 .init4         0x0000054c       0x10 /usr/lib/gcc/avr/4.8.2/avr51/libgcc.a(_clear_bss.o)
                0x0000054c                __do_clear_bss
 *(.init4)
 *(.init5)
 *(.init5)
 *(.init6)
 *(.init6)
 *(.init7)
 *(.init7)
 *(.init8)
 *(.init8)
 *(.init9)
 .init9         0x0000055c        0x8 /usr/lib/gcc/avr/4.8.2/../../../avr/lib/avr51/crtm128rfa1.o
 *(.init9)
 *(.text)
 .text          0x00000564        0x4 /usr/lib/gcc/avr/4.8.2/../../../avr/lib/avr51/crtm128rfa1.o
                0x00000564                __vector_38
                0x00000564                __vector_22
                0x00000564                __vector_28
                0x00000564                __vector_67
                0x00000564                __vector_71
                0x00000564                __vector_34
                0x00000564                __vector_24
                0x00000564                __vector_12
                0x00000564                __vector_55
                0x00000564                __vector_69
                0x00000564                __vector_46
                0x00000564                __bad_interrupt
                0x00000564                __vector_6
                0x00000564                __vector_31
                0x00000564                __vector_35
                0x00000564                __vector_39
                0x00000564                __vector_23
                0x00000564                __vector_68
                0x00000564                __vector_30
                0x00000564                __vector_45
                0x00000564                __vector_11
                0x00000564                __vector_54
                0x00000564                __vector_17
                0x00000564                __vector_19
                0x00000564                __vector_56
                0x00000564                __vector_7
                0x00000564                __vector_49
                0x00000564                __vector_41
                0x00000564                __vector_43
                0x00000564                __vector_27
                0x00000564                __vector_5
                0x00000564                __vector_33
                0x00000564                __vector_47
                0x00000564                __vector_52
                0x00000564                __vector_37
                0x00000564                __vector_4
                0x00000564                __vector_44
                0x00000564                __vector_51
                0x00000564                __vector_21
                0x00000564                __vector_66
                0x00000564                __vector_36
                0x00000564                __vector_70
                0x00000564                __vector_29
                0x00000564                __vector_40
                0x00000564                __vector_8
                0x00000564                __vector_26
                0x00000564                __vector_48
                0x00000564                __vector_14
                0x00000564                __vector_53
                0x00000564                __vector_10
                0x00000564                __vector_50
                0x00000564                __vector_16
                0x00000564                __vector_18
                0x00000564                __vector_20
                0x00000564                __vector_42
                0x00000564                __vector_65
 .text          0x00000568      0x502 main.o
                0x00000568                rx_task
                0x00000664                tx_task
                0x000006d6                read_sensors
                0x00000846                init_node
                0x0000085a                nrk_create_taskset
                0x00000a52                nrk_register_drivers
 .text          0x00000a6a      0x75e ../../../src/net/bmac/rf231_soc/bmac.o
                0x00000a6a                rf_rx_callback
                0x00000a6c                bmac_encryption_set_ctr_counter
                0x00000a7c                bmac_tx_reserve_set
                0x00000a80                bmac_tx_reserve_get
                0x00000a86                bmac_auto_ack_disable
                0x00000a8e                bmac_auto_ack_enable
                0x00000a96                bmac_addr_decode_disable
                0x00000a9e                bmac_addr_decode_enable
                0x00000aa6                bmac_addr_decode_set_my_mac
                0x00000aae                bmac_addr_decode_dest_mac
                0x00000aba                bmac_rx_pkt_is_encrypted
                0x00000ac0                bmac_encryption_set_key
                0x00000ad0                bmac_encryption_enable
                0x00000ad4                bmac_encryption_disable
                0x00000ad8                bmac_set_rf_power
                0x00000ae8                bmac_set_cca_active
                0x00000aee                bmac_set_cca_thresh
                0x00000afc                bmac_set_channel
                0x00000b36                bmac_wait_until_rx_pkt
                0x00000b82                bmac_rx_pkt_set_buffer
                0x00000b9e                bmac_init
                0x00000c7e                bmac_tx_pkt_nonblocking
                0x00000ca0                bmac_get_rx_pkt_signal
                0x00000cae                bmac_get_tx_done_signal
                0x00000cbc                bmac_tx_pkt
                0x00000d66                bmac_rx_pkt_get
                0x00000d96                bmac_rx_pkt_ready
                0x00000da2                bmac_rx_pkt_release
                0x00000daa                bmac_disable
                0x00000db2                bmac_enable
                0x00000dc4                bmac_set_rx_check_rate
                0x00000e4a                bmac_started
                0x00000e50                _bmac_channel_check
                0x00000e78                _bmac_rx
                0x00000f08                bmac_rx_failure_count_get
                0x00000f12                bmac_rx_failure_count_reset
                0x00000f26                _b_pow
                0x00000f46                _bmac_tx
                0x0000105e                bmac_nw_task
                0x00001128                bmac_task_config
 .text          0x000011c8      0x920 ../../../src/drivers/platform/firefly3/source/ff_basic_sensor.o
                0x000011c8                open
                0x0000121c                close
                0x0000123a                get_status
                0x00001248                set_status
                0x000012aa                get_eeprom_values
                0x00001312                init_adc
                0x00001340                init
                0x0000139a                delay
                0x000013a2                get_adc_val
                0x000013c6                calc_true_press
                0x000016dc                calc_true_temp
                0x000017c8                read_uncomp_temp
                0x00001830                calc_temp
                0x00001838                read_uncomp_press
                0x000018d4                calc_press
                0x000018e4                read
                0x00001a98                dev_manager_ff3_sensors
 .text          0x00001ae8      0x2e6 ../../../src/drivers/platform/firefly3/source/twi_base_calls.o
                0x00001ae8                set_i2c_device
                0x00001aee                init_i2c
                0x00001b0e                close_i2c
                0x00001b22                ee24xx_read_bytes
                0x00001c5e                ee24xx_write_page
                0x00001d54                ee24xx_write_bytes
                0x00001db0                error
 .text          0x00001dce      0xae0 ../../../src/radio/rf231_soc/source/basic_rf.o
                0x00001dde                rf_enable_glossy
                0x00001de6                rf_disable_glossy
                0x00001dec                rf_power_down
                0x00001e38                rf_power_up
                0x00001e64                rf_tx_power
                0x00001e78                rf_addr_decode_enable
                0x00001e84                rf_addr_decode_disable
                0x00001e90                rf_auto_ack_enable
                0x00001e9c                rf_auto_ack_disable
                0x00001ea8                rf_addr_decode_set_my_mac
                0x00001eba                rf_set_rx
                0x00001ed4                rx_start_callback
                0x00001ede                rx_end_callback
                0x00001ee8                rf_init
                0x00001fc6                rf_rx_on
                0x00001fcc                rf_polling_rx_on
                0x00001fd2                rf_rx_off
                0x00001fde                rf_tx_packet_repeat
                0x00002252                rf_tx_packet
                0x0000225a                rf_cca_check
                0x000022b6                rf_rx_packet_nonblock
                0x00002402                __vector_64
                0x00002420                __vector_63
                0x00002444                __vector_62
                0x00002462                __vector_61
                0x00002480                __vector_59
                0x000024e0                __vector_58
                0x000024fe                __vector_57
                0x0000251c                rf_set_cca_thresh
                0x00002530                rf_security_last_pkt_status
                0x00002534                rf_security_set_ctr_counter
                0x00002536                rf_security_set_key
                0x00002538                rf_security_disable
                0x0000253a                rf_tx_tdma_packet
                0x0000253e                rf_get_sem
                0x00002548                rf_rx_packet
                0x0000254c                rf_flush_rx_fifo
                0x0000254e                rf_busy
                0x00002552                rf_rx_check_fifop
                0x00002556                rf_rx_check_sfd
                0x0000255a                rf_carrier_on
                0x0000255c                rf_carrier_off
                0x0000255e                rf_test_mode
                0x00002560                rf_data_mode
                0x00002562                rf_rx_set_serial
                0x00002564                rf_tx_set_serial
                0x00002566                rf_set_preamble_length
                0x00002568                rf_set_cca_mode
                0x0000256a                rf_cc2591_tx_on
                0x00002586                rf_cc2591_rx_on
                0x000025a2                rf_glossy_interrupt
                0x0000267e                __vector_60
                0x00002716                aes_setkey
                0x0000275a                aes_encrypt
                0x000027f6                aes_decrypt
 .text          0x000028ae      0x86a ../../../src/platform/firefly3/source/ulib.o
                0x000028ae                putc0
                0x000028c6                __vector_25
                0x0000296c                nrk_uart_data_ready
                0x0000299a                nrk_uart_rx_signal_get
                0x000029ae                nrk_kprintf
                0x000029d8                getc0
                0x00002a42                PORT_INIT
                0x00002a56                nrk_setup_ports
                0x00002a5a                nrk_gpio_set
                0x00002b1c                nrk_gpio_clr
                0x00002bd4                nrk_gpio_get
                0x00002c24                nrk_gpio_toggle
                0x00002e0c                nrk_gpio_direction
                0x00002f92                nrk_get_button
                0x00002fa6                nrk_led_toggle
                0x00002fd4                nrk_led_clr
                0x00003002                nrk_led_set
                0x00003030                nrk_gpio_pullups
                0x00003044                putc1
                0x00003052                setup_uart0
                0x0000307c                setup_uart1
                0x000030a6                nrk_setup_uart
                0x00003100                getc1
 .text          0x00003118       0x10 ../../../src/platform/firefly3/source/hal_wait.o
                0x00003118                halWait
 .text          0x00003128      0x134 ../../../src/platform/firefly3/source/nrk_eeprom.o
                0x00003128                nrk_eeprom_read_byte
                0x0000312c                nrk_eeprom_write_byte
                0x00003132                read_eeprom_mac_address
                0x00003198                read_eeprom_channel
                0x000031b0                write_eeprom_load_img_pages
                0x000031c0                read_eeprom_load_img_pages
                0x000031d8                read_eeprom_aes_key
                0x00003206                write_eeprom_aes_key
                0x00003234                read_eeprom_current_image_checksum
                0x0000324c                write_eeprom_current_image_checksum
 .text          0x0000325c      0x390 ../../../src/kernel/source/nrk.o
                0x0000325c                nrk_int_disable
                0x00003260                nrk_int_enable
                0x00003264                nrk_halt
                0x0000326a                nrk_init
                0x000033c6                nrk_start
                0x00003440                nrk_TCB_init
                0x000035e2                _nrk_timer_tick
                0x000035e6                nrk_version
 .text          0x000035ec        0x0 ../../../src/kernel/source/nrk_stats.o
 .text          0x000035ec      0x2ea ../../../src/kernel/source/nrk_error.o
                0x000035ec                _nrk_errno_set
                0x000035f8                nrk_errno_get
                0x00003604                nrk_error_get
                0x00003620                nrk_error_print
                0x00003734                nrk_error_add
                0x0000374a                nrk_kernel_error_add
                0x00003756                pause
                0x00003780                blink_dash
                0x000037a0                blink_dot
                0x000037b8                blink_morse_code_error
 .text          0x000038d6      0x1d8 ../../../src/kernel/source/nrk_stack_check.o
                0x000038d6                dump_stack_info
                0x00003a30                nrk_stack_check
                0x00003a7a                nrk_stack_check_pid
 .text          0x00003aae      0x652 ../../../src/kernel/source/nrk_events.o
                0x00003aae                nrk_signal_create
                0x00003b20                nrk_signal_get_registered_mask
                0x00003b32                nrk_signal_delete
                0x00003c5e                nrk_signal_unregister
                0x00003cd8                nrk_signal_register
                0x00003d3a                nrk_event_signal
                0x00003e24                nrk_event_wait
                0x00003e9a                nrk_sem_create
                0x00003ee2                nrk_get_resource_index
                0x00003efc                nrk_sem_query
                0x00003f2c                nrk_sem_pend
                0x00003fe6                nrk_sem_post
                0x000040be                nrk_sem_delete
 .text          0x00004100      0x690 ../../../src/kernel/source/nrk_task.o
                0x00004100                nrk_get_high_ready_task_ID
                0x0000410c                nrk_print_readyQ
                0x00004122                nrk_add_to_readyQ
                0x00004266                nrk_rem_from_readyQ
                0x00004306                nrk_activate_task
                0x0000439c                nrk_set_next_wakeup
                0x00004416                _nrk_wait_for_scheduler
                0x0000442a                nrk_wait_until_next_period
                0x00004482                nrk_terminate_task
                0x000044a4                nrk_wait_until_next_n_periods
                0x00004506                nrk_wait_ticks
                0x0000457e                nrk_wait_until_ticks
                0x000045de                nrk_wait_until_nw
                0x0000462c                nrk_wait
                0x000046d8                nrk_wait_until
                0x00004784                nrk_get_pid
 .text          0x00004790      0x642 ../../../src/kernel/source/nrk_time.o
                0x00004790                nrk_time_get
                0x00004848                nrk_time_sub
                0x00004964                nrk_time_compact_nanos
                0x000049a8                nrk_time_add
                0x00004a5e                nrk_time_set
                0x00004a80                _nrk_time_to_ticks
                0x00004bf6                _nrk_ticks_to_time
                0x00004c6c                _nrk_time_to_ticks_long
 .text          0x00004dd2       0x48 ../../../src/kernel/source/nrk_idle_task.o
                0x00004dd2                nrk_idle_task
 .text          0x00004e1a      0x610 ../../../src/kernel/source/nrk_scheduler.o
                0x00004e1a                _nrk_scheduler
 .text          0x0000542a      0x1e6 ../../../src/kernel/source/nrk_driver.o
                0x0000542a                nrk_register_driver
                0x0000545a                nrk_open
                0x000054ec                nrk_close
                0x00005528                nrk_write
                0x00005562                nrk_read
                0x0000559c                nrk_set_status
                0x000055d6                nrk_get_status
 .text          0x00005610        0x0 ../../../src/kernel/source/nrk_reserve.o
 .text          0x00005610        0x0 ../../../src/kernel/source/nrk_sw_wdt.o
 .text          0x00005610      0x396 ../../../src/kernel/hal/atmega128rfa1/nrk_timer.o
                0x00005610                nrk_spin_wait_us
                0x00005630                _nrk_precision_os_timer_stop
                0x00005636                _nrk_precision_os_timer_start
                0x0000564a                _nrk_precision_os_timer_reset
                0x00005654                _nrk_precision_os_timer_get
                0x00005678                _nrk_high_speed_timer_stop
                0x0000567e                _nrk_high_speed_timer_start
                0x00005686                _nrk_high_speed_timer_reset
                0x00005696                _nrk_high_speed_timer_get
                0x000056ba                nrk_high_speed_timer_wait
                0x0000571a                _nrk_os_timer_stop
                0x00005730                _nrk_os_timer_set
                0x00005736                _nrk_os_timer_start
                0x00005748                _nrk_os_timer_reset
                0x0000575c                _nrk_setup_timer
                0x000057e2                _nrk_get_next_wakeup
                0x000057ea                _nrk_set_next_wakeup
                0x000057f2                nrk_timer_int_stop
                0x000057fe                nrk_timer_int_reset
                0x00005812                nrk_timer_int_read
                0x00005826                nrk_timer_int_start
                0x00005838                nrk_timer_int_configure
                0x000058ae                _nrk_os_timer_get
                0x000058b4                __vector_default
                0x000058c8                __vector_13
                0x000058c8                __vector_15
                0x0000592e                __vector_32
                0x00005992                SIG_OUTPUT_COMPARE1A
 .text          0x000059a6       0x4c ../../../src/kernel/hal/atmega128rfa1/nrk_status.o
                0x000059a6                _nrk_startup_error
 .text          0x000059f2      0x3a8 ../../../src/kernel/hal/atmega128rfa1/nrk_ext_int.o
                0x000059f2                nrk_ext_int_enable
                0x00005a74                nrk_ext_int_disable
                0x00005af6                nrk_ext_int_configure
                0x00005c0a                __vector_9
                0x00005c6e                __vector_1
                0x00005cd2                __vector_2
                0x00005d36                __vector_3
 .text          0x00005d9a       0x4c ../../../src/kernel/hal/atmega128rfa1/nrk_watchdog.o
                0x00005d9a                nrk_watchdog_disable
                0x00005db6                nrk_watchdog_enable
                0x00005dd4                nrk_watchdog_check
                0x00005de2                nrk_watchdog_reset
 .text          0x00005de6      0x148 ../../../src/kernel/hal/atmega128rfa1/nrk_cpu.o
                0x00005de6                nrk_battery_save
                0x00005de8                nrk_sleep
                0x00005e00                nrk_idle
                0x00005e16                nrk_task_set_entry_function
                0x00005e1e                nrk_task_set_stk
                0x00005e5c                nrk_task_stk_init
                0x00005efa                nrk_stack_pointer_init
                0x00005f18                nrk_stack_pointer_restore
                0x00005f26                nrk_target_start
 .text          0x00005f2e       0x56 ../../../src/kernel/hal/atmega128rfa1/atmel_hw_specific.o
                0x00005f2e                nrk_start_high_ready_task
 .text          0x00005f84        0x0 /usr/lib/gcc/avr/4.8.2/../../../avr/lib/avr51/libprintf_min.a(vfprintf_min.o)
 .text          0x00005f84        0x0 /usr/lib/gcc/avr/4.8.2/avr51/libgcc.a(_muluhisi3.o)
 .text          0x00005f84        0x0 /usr/lib/gcc/avr/4.8.2/avr51/libgcc.a(_mulshisi3.o)
 .text          0x00005f84        0x0 /usr/lib/gcc/avr/4.8.2/avr51/libgcc.a(_mulsi3.o)
 .text          0x00005f84        0x0 /usr/lib/gcc/avr/4.8.2/avr51/libgcc.a(_udivmodhi4.o)
 .text          0x00005f84        0x0 /usr/lib/gcc/avr/4.8.2/avr51/libgcc.a(_divmodhi4.o)
 .text          0x00005f84        0x0 /usr/lib/gcc/avr/4.8.2/avr51/libgcc.a(_udivmodsi4.o)
 .text          0x00005f84        0x0 /usr/lib/gcc/avr/4.8.2/avr51/libgcc.a(_divmodsi4.o)
 .text          0x00005f84        0x0 /usr/lib/gcc/avr/4.8.2/avr51/libgcc.a(_udivdi3.o)
 .text          0x00005f84        0x0 /usr/lib/gcc/avr/4.8.2/avr51/libgcc.a(_udivmod64.o)
 .text          0x00005f84        0x0 /usr/lib/gcc/avr/4.8.2/avr51/libgcc.a(_negsi2.o)
 .text          0x00005f84        0x0 /usr/lib/gcc/avr/4.8.2/avr51/libgcc.a(_exit.o)
 .text          0x00005f84        0x0 /usr/lib/gcc/avr/4.8.2/avr51/libgcc.a(_tablejump.o)
 .text          0x00005f84        0x0 /usr/lib/gcc/avr/4.8.2/avr51/libgcc.a(_copy_data.o)
 .text          0x00005f84        0x0 /usr/lib/gcc/avr/4.8.2/avr51/libgcc.a(_clear_bss.o)
 .text          0x00005f84        0x0 /usr/lib/gcc/avr/4.8.2/avr51/libgcc.a(_adddi3.o)
 .text          0x00005f84        0x0 /usr/lib/gcc/avr/4.8.2/avr51/libgcc.a(_umulhisi3.o)
 .text          0x00005f84        0x0 /usr/lib/gcc/avr/4.8.2/../../../avr/lib/avr51/libc.a(rand.o)
 .text          0x00005f84        0x0 /usr/lib/gcc/avr/4.8.2/../../../avr/lib/avr51/libc.a(strchr_P.o)
 .text          0x00005f84        0x0 /usr/lib/gcc/avr/4.8.2/../../../avr/lib/avr51/libc.a(memcpy.o)
 .text          0x00005f84        0x0 /usr/lib/gcc/avr/4.8.2/../../../avr/lib/avr51/libc.a(fdevopen.o)
 .text          0x00005f84        0x0 /usr/lib/gcc/avr/4.8.2/../../../avr/lib/avr51/libc.a(fputc.o)
 .text          0x00005f84        0x0 /usr/lib/gcc/avr/4.8.2/../../../avr/lib/avr51/libc.a(iob.o)
 .text          0x00005f84        0x0 /usr/lib/gcc/avr/4.8.2/../../../avr/lib/avr51/libc.a(printf.o)
 .text          0x00005f84        0x0 /usr/lib/gcc/avr/4.8.2/../../../avr/lib/avr51/libc.a(putchar.o)
 .text          0x00005f84        0x0 /usr/lib/gcc/avr/4.8.2/../../../avr/lib/avr51/libc.a(puts.o)
 .text          0x00005f84        0x0 /usr/lib/gcc/avr/4.8.2/../../../avr/lib/avr51/libc.a(sprintf.o)
 .text          0x00005f84        0x0 /usr/lib/gcc/avr/4.8.2/../../../avr/lib/avr51/libc.a(ultoa_invert.o)
 .text          0x00005f84        0x0 /usr/lib/gcc/avr/4.8.2/../../../avr/lib/avr51/libc.a(eerd_byte_atmega128rfa1.o)
 .text          0x00005f84        0x0 /usr/lib/gcc/avr/4.8.2/../../../avr/lib/avr51/libc.a(eewr_byte_atmega128rfa1.o)
 .text          0x00005f84        0x0 /usr/lib/gcc/avr/4.8.2/../../../avr/lib/avr51/libc.a(calloc.o)
 .text          0x00005f84        0x0 /usr/lib/gcc/avr/4.8.2/../../../avr/lib/avr51/libc.a(malloc.o)
 .text          0x00005f84        0x0 /usr/lib/gcc/avr/4.8.2/../../../avr/lib/avr51/libc.a(memset.o)
                0x00005f84                . = ALIGN (0x2)
 *(.text.*)
 .text.startup  0x00005f84       0x66 main.o
                0x00005f84                main
 .text.avr-libc
                0x00005fea      0x29a /usr/lib/gcc/avr/4.8.2/../../../avr/lib/avr51/libprintf_min.a(vfprintf_min.o)
                0x00005fea                vfprintf
 .text.libgcc.mul
                0x00006284       0x16 /usr/lib/gcc/avr/4.8.2/avr51/libgcc.a(_muluhisi3.o)
                0x00006284                __muluhisi3
 .text.libgcc.div
                0x0000629a        0x0 /usr/lib/gcc/avr/4.8.2/avr51/libgcc.a(_muluhisi3.o)
 .text.libgcc   0x0000629a        0x0 /usr/lib/gcc/avr/4.8.2/avr51/libgcc.a(_muluhisi3.o)
 .text.libgcc.prologue
                0x0000629a        0x0 /usr/lib/gcc/avr/4.8.2/avr51/libgcc.a(_muluhisi3.o)
 .text.libgcc.builtins
                0x0000629a        0x0 /usr/lib/gcc/avr/4.8.2/avr51/libgcc.a(_muluhisi3.o)
 .text.libgcc.fmul
                0x0000629a        0x0 /usr/lib/gcc/avr/4.8.2/avr51/libgcc.a(_muluhisi3.o)
 .text.libgcc.fixed
                0x0000629a        0x0 /usr/lib/gcc/avr/4.8.2/avr51/libgcc.a(_muluhisi3.o)
 .text.libgcc.mul
                0x0000629a       0x10 /usr/lib/gcc/avr/4.8.2/avr51/libgcc.a(_mulshisi3.o)
                0x0000629a                __mulshisi3
                0x000062a0                __mulohisi3
 .text.libgcc.div
                0x000062aa        0x0 /usr/lib/gcc/avr/4.8.2/avr51/libgcc.a(_mulshisi3.o)
 .text.libgcc   0x000062aa        0x0 /usr/lib/gcc/avr/4.8.2/avr51/libgcc.a(_mulshisi3.o)
 .text.libgcc.prologue
                0x000062aa        0x0 /usr/lib/gcc/avr/4.8.2/avr51/libgcc.a(_mulshisi3.o)
 .text.libgcc.builtins
                0x000062aa        0x0 /usr/lib/gcc/avr/4.8.2/avr51/libgcc.a(_mulshisi3.o)
 .text.libgcc.fmul
                0x000062aa        0x0 /usr/lib/gcc/avr/4.8.2/avr51/libgcc.a(_mulshisi3.o)
 .text.libgcc.fixed
                0x000062aa        0x0 /usr/lib/gcc/avr/4.8.2/avr51/libgcc.a(_mulshisi3.o)
 .text.libgcc.mul
                0x000062aa       0x20 /usr/lib/gcc/avr/4.8.2/avr51/libgcc.a(_mulsi3.o)
                0x000062aa                __mulsi3
 .text.libgcc.div
                0x000062ca        0x0 /usr/lib/gcc/avr/4.8.2/avr51/libgcc.a(_mulsi3.o)
 .text.libgcc   0x000062ca        0x0 /usr/lib/gcc/avr/4.8.2/avr51/libgcc.a(_mulsi3.o)
 .text.libgcc.prologue
                0x000062ca        0x0 /usr/lib/gcc/avr/4.8.2/avr51/libgcc.a(_mulsi3.o)
 .text.libgcc.builtins
                0x000062ca        0x0 /usr/lib/gcc/avr/4.8.2/avr51/libgcc.a(_mulsi3.o)
 .text.libgcc.fmul
                0x000062ca        0x0 /usr/lib/gcc/avr/4.8.2/avr51/libgcc.a(_mulsi3.o)
 .text.libgcc.fixed
                0x000062ca        0x0 /usr/lib/gcc/avr/4.8.2/avr51/libgcc.a(_mulsi3.o)
 .text.libgcc.mul
                0x000062ca        0x0 /usr/lib/gcc/avr/4.8.2/avr51/libgcc.a(_udivmodhi4.o)
 .text.libgcc.div
                0x000062ca       0x28 /usr/lib/gcc/avr/4.8.2/avr51/libgcc.a(_udivmodhi4.o)
                0x000062ca                __udivmodhi4
 .text.libgcc   0x000062f2        0x0 /usr/lib/gcc/avr/4.8.2/avr51/libgcc.a(_udivmodhi4.o)
 .text.libgcc.prologue
                0x000062f2        0x0 /usr/lib/gcc/avr/4.8.2/avr51/libgcc.a(_udivmodhi4.o)
 .text.libgcc.builtins
                0x000062f2        0x0 /usr/lib/gcc/avr/4.8.2/avr51/libgcc.a(_udivmodhi4.o)
 .text.libgcc.fmul
                0x000062f2        0x0 /usr/lib/gcc/avr/4.8.2/avr51/libgcc.a(_udivmodhi4.o)
 .text.libgcc.fixed
                0x000062f2        0x0 /usr/lib/gcc/avr/4.8.2/avr51/libgcc.a(_udivmodhi4.o)
 .text.libgcc.mul
                0x000062f2        0x0 /usr/lib/gcc/avr/4.8.2/avr51/libgcc.a(_divmodhi4.o)
 .text.libgcc.div
                0x000062f2       0x28 /usr/lib/gcc/avr/4.8.2/avr51/libgcc.a(_divmodhi4.o)
                0x000062f2                __divmodhi4
                0x000062f2                _div
 .text.libgcc   0x0000631a        0x0 /usr/lib/gcc/avr/4.8.2/avr51/libgcc.a(_divmodhi4.o)
 .text.libgcc.prologue
                0x0000631a        0x0 /usr/lib/gcc/avr/4.8.2/avr51/libgcc.a(_divmodhi4.o)
 .text.libgcc.builtins
                0x0000631a        0x0 /usr/lib/gcc/avr/4.8.2/avr51/libgcc.a(_divmodhi4.o)
 .text.libgcc.fmul
                0x0000631a        0x0 /usr/lib/gcc/avr/4.8.2/avr51/libgcc.a(_divmodhi4.o)
 .text.libgcc.fixed
                0x0000631a        0x0 /usr/lib/gcc/avr/4.8.2/avr51/libgcc.a(_divmodhi4.o)
 .text.libgcc.mul
                0x0000631a        0x0 /usr/lib/gcc/avr/4.8.2/avr51/libgcc.a(_udivmodsi4.o)
 .text.libgcc.div
                0x0000631a       0x44 /usr/lib/gcc/avr/4.8.2/avr51/libgcc.a(_udivmodsi4.o)
                0x0000631a                __udivmodsi4
 .text.libgcc   0x0000635e        0x0 /usr/lib/gcc/avr/4.8.2/avr51/libgcc.a(_udivmodsi4.o)
 .text.libgcc.prologue
                0x0000635e        0x0 /usr/lib/gcc/avr/4.8.2/avr51/libgcc.a(_udivmodsi4.o)
 .text.libgcc.builtins
                0x0000635e        0x0 /usr/lib/gcc/avr/4.8.2/avr51/libgcc.a(_udivmodsi4.o)
 .text.libgcc.fmul
                0x0000635e        0x0 /usr/lib/gcc/avr/4.8.2/avr51/libgcc.a(_udivmodsi4.o)
 .text.libgcc.fixed
                0x0000635e        0x0 /usr/lib/gcc/avr/4.8.2/avr51/libgcc.a(_udivmodsi4.o)
 .text.libgcc.mul
                0x0000635e        0x0 /usr/lib/gcc/avr/4.8.2/avr51/libgcc.a(_divmodsi4.o)
 .text.libgcc.div
                0x0000635e       0x2e /usr/lib/gcc/avr/4.8.2/avr51/libgcc.a(_divmodsi4.o)
                0x0000635e                __divmodsi4
 .text.libgcc   0x0000638c        0x0 /usr/lib/gcc/avr/4.8.2/avr51/libgcc.a(_divmodsi4.o)
 .text.libgcc.prologue
                0x0000638c        0x0 /usr/lib/gcc/avr/4.8.2/avr51/libgcc.a(_divmodsi4.o)
 .text.libgcc.builtins
                0x0000638c        0x0 /usr/lib/gcc/avr/4.8.2/avr51/libgcc.a(_divmodsi4.o)
 .text.libgcc.fmul
                0x0000638c        0x0 /usr/lib/gcc/avr/4.8.2/avr51/libgcc.a(_divmodsi4.o)
 .text.libgcc.fixed
                0x0000638c        0x0 /usr/lib/gcc/avr/4.8.2/avr51/libgcc.a(_divmodsi4.o)
 .text.libgcc.mul
                0x0000638c        0x0 /usr/lib/gcc/avr/4.8.2/avr51/libgcc.a(_udivdi3.o)
 .text.libgcc.div
                0x0000638c       0x1c /usr/lib/gcc/avr/4.8.2/avr51/libgcc.a(_udivdi3.o)
                0x0000638c                __umoddi3
                0x00006390                __udivdi3
                0x00006392                __udivdi3_umoddi3
 .text.libgcc   0x000063a8        0x0 /usr/lib/gcc/avr/4.8.2/avr51/libgcc.a(_udivdi3.o)
 .text.libgcc.prologue
                0x000063a8        0x0 /usr/lib/gcc/avr/4.8.2/avr51/libgcc.a(_udivdi3.o)
 .text.libgcc.builtins
                0x000063a8        0x0 /usr/lib/gcc/avr/4.8.2/avr51/libgcc.a(_udivdi3.o)
 .text.libgcc.fmul
                0x000063a8        0x0 /usr/lib/gcc/avr/4.8.2/avr51/libgcc.a(_udivdi3.o)
 .text.libgcc.fixed
                0x000063a8        0x0 /usr/lib/gcc/avr/4.8.2/avr51/libgcc.a(_udivdi3.o)
 .text.libgcc.mul
                0x000063a8        0x0 /usr/lib/gcc/avr/4.8.2/avr51/libgcc.a(_udivmod64.o)
 .text.libgcc.div
                0x000063a8       0xa2 /usr/lib/gcc/avr/4.8.2/avr51/libgcc.a(_udivmod64.o)
                0x000063a8                __udivmod64
 .text.libgcc   0x0000644a        0x0 /usr/lib/gcc/avr/4.8.2/avr51/libgcc.a(_udivmod64.o)
 .text.libgcc.prologue
                0x0000644a        0x0 /usr/lib/gcc/avr/4.8.2/avr51/libgcc.a(_udivmod64.o)
 .text.libgcc.builtins
                0x0000644a        0x0 /usr/lib/gcc/avr/4.8.2/avr51/libgcc.a(_udivmod64.o)
 .text.libgcc.fmul
                0x0000644a        0x0 /usr/lib/gcc/avr/4.8.2/avr51/libgcc.a(_udivmod64.o)
 .text.libgcc.fixed
                0x0000644a        0x0 /usr/lib/gcc/avr/4.8.2/avr51/libgcc.a(_udivmod64.o)
 .text.libgcc.mul
                0x0000644a        0x0 /usr/lib/gcc/avr/4.8.2/avr51/libgcc.a(_negsi2.o)
 .text.libgcc.div
                0x0000644a       0x10 /usr/lib/gcc/avr/4.8.2/avr51/libgcc.a(_negsi2.o)
                0x0000644a                __negsi2
 .text.libgcc   0x0000645a        0x0 /usr/lib/gcc/avr/4.8.2/avr51/libgcc.a(_negsi2.o)
 .text.libgcc.prologue
                0x0000645a        0x0 /usr/lib/gcc/avr/4.8.2/avr51/libgcc.a(_negsi2.o)
 .text.libgcc.builtins
                0x0000645a        0x0 /usr/lib/gcc/avr/4.8.2/avr51/libgcc.a(_negsi2.o)
 .text.libgcc.fmul
                0x0000645a        0x0 /usr/lib/gcc/avr/4.8.2/avr51/libgcc.a(_negsi2.o)
 .text.libgcc.fixed
                0x0000645a        0x0 /usr/lib/gcc/avr/4.8.2/avr51/libgcc.a(_negsi2.o)
 .text.libgcc.mul
                0x0000645a        0x0 /usr/lib/gcc/avr/4.8.2/avr51/libgcc.a(_exit.o)
 .text.libgcc.div
                0x0000645a        0x0 /usr/lib/gcc/avr/4.8.2/avr51/libgcc.a(_exit.o)
 .text.libgcc   0x0000645a        0x0 /usr/lib/gcc/avr/4.8.2/avr51/libgcc.a(_exit.o)
 .text.libgcc.prologue
                0x0000645a        0x0 /usr/lib/gcc/avr/4.8.2/avr51/libgcc.a(_exit.o)
 .text.libgcc.builtins
                0x0000645a        0x0 /usr/lib/gcc/avr/4.8.2/avr51/libgcc.a(_exit.o)
 .text.libgcc.fmul
                0x0000645a        0x0 /usr/lib/gcc/avr/4.8.2/avr51/libgcc.a(_exit.o)
 .text.libgcc.fixed
                0x0000645a        0x0 /usr/lib/gcc/avr/4.8.2/avr51/libgcc.a(_exit.o)
 .text.libgcc.mul
                0x0000645a        0x0 /usr/lib/gcc/avr/4.8.2/avr51/libgcc.a(_tablejump.o)
 .text.libgcc.div
                0x0000645a        0x0 /usr/lib/gcc/avr/4.8.2/avr51/libgcc.a(_tablejump.o)
 .text.libgcc   0x0000645a        0xc /usr/lib/gcc/avr/4.8.2/avr51/libgcc.a(_tablejump.o)
                0x0000645a                __tablejump2__
                0x0000645e                __tablejump__
 .text.libgcc.prologue
                0x00006466        0x0 /usr/lib/gcc/avr/4.8.2/avr51/libgcc.a(_tablejump.o)
 .text.libgcc.builtins
                0x00006466        0x0 /usr/lib/gcc/avr/4.8.2/avr51/libgcc.a(_tablejump.o)
 .text.libgcc.fmul
                0x00006466        0x0 /usr/lib/gcc/avr/4.8.2/avr51/libgcc.a(_tablejump.o)
 .text.libgcc.fixed
                0x00006466        0x0 /usr/lib/gcc/avr/4.8.2/avr51/libgcc.a(_tablejump.o)
 .text.libgcc.mul
                0x00006466        0x0 /usr/lib/gcc/avr/4.8.2/avr51/libgcc.a(_copy_data.o)
 .text.libgcc.div
                0x00006466        0x0 /usr/lib/gcc/avr/4.8.2/avr51/libgcc.a(_copy_data.o)
 .text.libgcc   0x00006466        0x0 /usr/lib/gcc/avr/4.8.2/avr51/libgcc.a(_copy_data.o)
 .text.libgcc.prologue
                0x00006466        0x0 /usr/lib/gcc/avr/4.8.2/avr51/libgcc.a(_copy_data.o)
 .text.libgcc.builtins
                0x00006466        0x0 /usr/lib/gcc/avr/4.8.2/avr51/libgcc.a(_copy_data.o)
 .text.libgcc.fmul
                0x00006466        0x0 /usr/lib/gcc/avr/4.8.2/avr51/libgcc.a(_copy_data.o)
 .text.libgcc.fixed
                0x00006466        0x0 /usr/lib/gcc/avr/4.8.2/avr51/libgcc.a(_copy_data.o)
 .text.libgcc.mul
                0x00006466        0x0 /usr/lib/gcc/avr/4.8.2/avr51/libgcc.a(_clear_bss.o)
 .text.libgcc.div
                0x00006466        0x0 /usr/lib/gcc/avr/4.8.2/avr51/libgcc.a(_clear_bss.o)
 .text.libgcc   0x00006466        0x0 /usr/lib/gcc/avr/4.8.2/avr51/libgcc.a(_clear_bss.o)
 .text.libgcc.prologue
                0x00006466        0x0 /usr/lib/gcc/avr/4.8.2/avr51/libgcc.a(_clear_bss.o)
 .text.libgcc.builtins
                0x00006466        0x0 /usr/lib/gcc/avr/4.8.2/avr51/libgcc.a(_clear_bss.o)
 .text.libgcc.fmul
                0x00006466        0x0 /usr/lib/gcc/avr/4.8.2/avr51/libgcc.a(_clear_bss.o)
 .text.libgcc.fixed
                0x00006466        0x0 /usr/lib/gcc/avr/4.8.2/avr51/libgcc.a(_clear_bss.o)
 .text.libgcc.mul
                0x00006466        0x0 /usr/lib/gcc/avr/4.8.2/avr51/libgcc.a(_adddi3.o)
 .text.libgcc.div
                0x00006466        0x0 /usr/lib/gcc/avr/4.8.2/avr51/libgcc.a(_adddi3.o)
 .text.libgcc   0x00006466       0x12 /usr/lib/gcc/avr/4.8.2/avr51/libgcc.a(_adddi3.o)
                0x00006466                __adddi3
 .text.libgcc.prologue
                0x00006478        0x0 /usr/lib/gcc/avr/4.8.2/avr51/libgcc.a(_adddi3.o)
 .text.libgcc.builtins
                0x00006478        0x0 /usr/lib/gcc/avr/4.8.2/avr51/libgcc.a(_adddi3.o)
 .text.libgcc.fmul
                0x00006478        0x0 /usr/lib/gcc/avr/4.8.2/avr51/libgcc.a(_adddi3.o)
 .text.libgcc.fixed
                0x00006478        0x0 /usr/lib/gcc/avr/4.8.2/avr51/libgcc.a(_adddi3.o)
 .text.libgcc.mul
                0x00006478       0x1e /usr/lib/gcc/avr/4.8.2/avr51/libgcc.a(_umulhisi3.o)
                0x00006478                __umulhisi3
 .text.libgcc.div
                0x00006496        0x0 /usr/lib/gcc/avr/4.8.2/avr51/libgcc.a(_umulhisi3.o)
 .text.libgcc   0x00006496        0x0 /usr/lib/gcc/avr/4.8.2/avr51/libgcc.a(_umulhisi3.o)
 .text.libgcc.prologue
                0x00006496        0x0 /usr/lib/gcc/avr/4.8.2/avr51/libgcc.a(_umulhisi3.o)
 .text.libgcc.builtins
                0x00006496        0x0 /usr/lib/gcc/avr/4.8.2/avr51/libgcc.a(_umulhisi3.o)
 .text.libgcc.fmul
                0x00006496        0x0 /usr/lib/gcc/avr/4.8.2/avr51/libgcc.a(_umulhisi3.o)
 .text.libgcc.fixed
                0x00006496        0x0 /usr/lib/gcc/avr/4.8.2/avr51/libgcc.a(_umulhisi3.o)
 .text.avr-libc
                0x00006496       0xb8 /usr/lib/gcc/avr/4.8.2/../../../avr/lib/avr51/libc.a(rand.o)
                0x0000652c                rand_r
                0x00006530                rand
                0x00006538                srand
 .text.avr-libc
                0x0000654e       0x16 /usr/lib/gcc/avr/4.8.2/../../../avr/lib/avr51/libc.a(strchr_P.o)
                0x0000654e                strchr_P
 .text.avr-libc
                0x00006564       0x12 /usr/lib/gcc/avr/4.8.2/../../../avr/lib/avr51/libc.a(memcpy.o)
                0x00006564                memcpy
 .text.avr-libc
                0x00006576       0x96 /usr/lib/gcc/avr/4.8.2/../../../avr/lib/avr51/libc.a(fdevopen.o)
                0x00006576                fdevopen
 .text.avr-libc
                0x0000660c       0x64 /usr/lib/gcc/avr/4.8.2/../../../avr/lib/avr51/libc.a(fputc.o)
                0x0000660c                fputc
 .text.avr-libc
                0x00006670       0x24 /usr/lib/gcc/avr/4.8.2/../../../avr/lib/avr51/libc.a(printf.o)
                0x00006670                printf
 .text.avr-libc
                0x00006694        0xc /usr/lib/gcc/avr/4.8.2/../../../avr/lib/avr51/libc.a(putchar.o)
                0x00006694                putchar
 .text.avr-libc
                0x000066a0       0x5a /usr/lib/gcc/avr/4.8.2/../../../avr/lib/avr51/libc.a(puts.o)
                0x000066a0                puts
 .text.avr-libc
                0x000066fa       0x5e /usr/lib/gcc/avr/4.8.2/../../../avr/lib/avr51/libc.a(sprintf.o)
                0x000066fa                sprintf
 .text.avr-libc
                0x00006758       0xbc /usr/lib/gcc/avr/4.8.2/../../../avr/lib/avr51/libc.a(ultoa_invert.o)
                0x00006758                __ultoa_invert
 .text.avr-libc
                0x00006814       0x10 /usr/lib/gcc/avr/4.8.2/../../../avr/lib/avr51/libc.a(eerd_byte_atmega128rfa1.o)
                0x00006814                __eerd_byte_m128rfa1
 .text.avr-libc
                0x00006824       0x1c /usr/lib/gcc/avr/4.8.2/../../../avr/lib/avr51/libc.a(eewr_byte_atmega128rfa1.o)
                0x00006824                __eewr_byte_m128rfa1
                0x00006826                __eewr_r18_m128rfa1
 .text.avr-libc
                0x00006840       0x38 /usr/lib/gcc/avr/4.8.2/../../../avr/lib/avr51/libc.a(calloc.o)
                0x00006840                calloc
 .text.avr-libc
                0x00006878      0x24e /usr/lib/gcc/avr/4.8.2/../../../avr/lib/avr51/libc.a(malloc.o)
                0x00006878                malloc
                0x000069a8                free
 .text.avr-libc
                0x00006ac6        0xe /usr/lib/gcc/avr/4.8.2/../../../avr/lib/avr51/libc.a(memset.o)
                0x00006ac6                memset
                0x00006ad4                . = ALIGN (0x2)
 *(.fini9)
 .fini9         0x00006ad4        0x0 /usr/lib/gcc/avr/4.8.2/avr51/libgcc.a(_exit.o)
                0x00006ad4                exit
                0x00006ad4                _exit
 *(.fini9)
 *(.fini8)
 *(.fini8)
 *(.fini7)
 *(.fini7)
 *(.fini6)
 *(.fini6)
 *(.fini5)
 *(.fini5)
 *(.fini4)
 *(.fini4)
 *(.fini3)
 *(.fini3)
 *(.fini2)
 *(.fini2)
 *(.fini1)
 *(.fini1)
 *(.fini0)
 .fini0         0x00006ad4        0x4 /usr/lib/gcc/avr/4.8.2/avr51/libgcc.a(_exit.o)
 *(.fini0)
                0x00006ad8                _etext = .

.data           0x00800200      0x18a load address 0x00006ad8
                0x00800200                PROVIDE (__data_start, .)
 *(.data)
 .data          0x00800200        0x0 /usr/lib/gcc/avr/4.8.2/../../../avr/lib/avr51/crtm128rfa1.o
 .data          0x00800200        0x0 main.o
 .data          0x00800200        0x0 ../../../src/net/bmac/rf231_soc/bmac.o
 .data          0x00800200        0x0 ../../../src/drivers/platform/firefly3/source/ff_basic_sensor.o
 .data          0x00800200        0x0 ../../../src/drivers/platform/firefly3/source/twi_base_calls.o
 .data          0x00800200        0x0 ../../../src/radio/rf231_soc/source/basic_rf.o
 .data          0x00800200        0x0 ../../../src/platform/firefly3/source/ulib.o
 .data          0x00800200        0x0 ../../../src/platform/firefly3/source/hal_wait.o
 .data          0x00800200        0x0 ../../../src/platform/firefly3/source/nrk_eeprom.o
 .data          0x00800200        0x0 ../../../src/kernel/source/nrk.o
 .data          0x00800200        0x0 ../../../src/kernel/source/nrk_stats.o
 .data          0x00800200        0x0 ../../../src/kernel/source/nrk_error.o
 .data          0x00800200        0x0 ../../../src/kernel/source/nrk_stack_check.o
 .data          0x00800200        0x0 ../../../src/kernel/source/nrk_events.o
 .data          0x00800200        0x0 ../../../src/kernel/source/nrk_task.o
 .data          0x00800200        0x0 ../../../src/kernel/source/nrk_time.o
 .data          0x00800200        0x0 ../../../src/kernel/source/nrk_idle_task.o
 .data          0x00800200        0x0 ../../../src/kernel/source/nrk_scheduler.o
 .data          0x00800200        0x0 ../../../src/kernel/source/nrk_driver.o
 .data          0x00800200        0x0 ../../../src/kernel/source/nrk_reserve.o
 .data          0x00800200        0x0 ../../../src/kernel/source/nrk_sw_wdt.o
 .data          0x00800200        0x0 ../../../src/kernel/hal/atmega128rfa1/nrk_timer.o
 .data          0x00800200        0x0 ../../../src/kernel/hal/atmega128rfa1/nrk_status.o
 .data          0x00800200        0x0 ../../../src/kernel/hal/atmega128rfa1/nrk_ext_int.o
 .data          0x00800200        0x0 ../../../src/kernel/hal/atmega128rfa1/nrk_watchdog.o
 .data          0x00800200        0x0 ../../../src/kernel/hal/atmega128rfa1/nrk_cpu.o
 .data          0x00800200        0x0 ../../../src/kernel/hal/atmega128rfa1/atmel_hw_specific.o
 .data          0x00800200        0x0 /usr/lib/gcc/avr/4.8.2/../../../avr/lib/avr51/libprintf_min.a(vfprintf_min.o)
 .data          0x00800200        0x0 /usr/lib/gcc/avr/4.8.2/avr51/libgcc.a(_muluhisi3.o)
 .data          0x00800200        0x0 /usr/lib/gcc/avr/4.8.2/avr51/libgcc.a(_mulshisi3.o)
 .data          0x00800200        0x0 /usr/lib/gcc/avr/4.8.2/avr51/libgcc.a(_mulsi3.o)
 .data          0x00800200        0x0 /usr/lib/gcc/avr/4.8.2/avr51/libgcc.a(_udivmodhi4.o)
 .data          0x00800200        0x0 /usr/lib/gcc/avr/4.8.2/avr51/libgcc.a(_divmodhi4.o)
 .data          0x00800200        0x0 /usr/lib/gcc/avr/4.8.2/avr51/libgcc.a(_udivmodsi4.o)
 .data          0x00800200        0x0 /usr/lib/gcc/avr/4.8.2/avr51/libgcc.a(_divmodsi4.o)
 .data          0x00800200        0x0 /usr/lib/gcc/avr/4.8.2/avr51/libgcc.a(_udivdi3.o)
 .data          0x00800200        0x0 /usr/lib/gcc/avr/4.8.2/avr51/libgcc.a(_udivmod64.o)
 .data          0x00800200        0x0 /usr/lib/gcc/avr/4.8.2/avr51/libgcc.a(_negsi2.o)
 .data          0x00800200        0x0 /usr/lib/gcc/avr/4.8.2/avr51/libgcc.a(_exit.o)
 .data          0x00800200        0x0 /usr/lib/gcc/avr/4.8.2/avr51/libgcc.a(_tablejump.o)
 .data          0x00800200        0x0 /usr/lib/gcc/avr/4.8.2/avr51/libgcc.a(_copy_data.o)
 .data          0x00800200        0x0 /usr/lib/gcc/avr/4.8.2/avr51/libgcc.a(_clear_bss.o)
 .data          0x00800200        0x0 /usr/lib/gcc/avr/4.8.2/avr51/libgcc.a(_adddi3.o)
 .data          0x00800200        0x0 /usr/lib/gcc/avr/4.8.2/avr51/libgcc.a(_umulhisi3.o)
 .data          0x00800200        0x4 /usr/lib/gcc/avr/4.8.2/../../../avr/lib/avr51/libc.a(rand.o)
 .data          0x00800204        0x0 /usr/lib/gcc/avr/4.8.2/../../../avr/lib/avr51/libc.a(strchr_P.o)
 .data          0x00800204        0x0 /usr/lib/gcc/avr/4.8.2/../../../avr/lib/avr51/libc.a(memcpy.o)
 .data          0x00800204        0x0 /usr/lib/gcc/avr/4.8.2/../../../avr/lib/avr51/libc.a(fdevopen.o)
 .data          0x00800204        0x0 /usr/lib/gcc/avr/4.8.2/../../../avr/lib/avr51/libc.a(fputc.o)
 .data          0x00800204        0x0 /usr/lib/gcc/avr/4.8.2/../../../avr/lib/avr51/libc.a(iob.o)
 .data          0x00800204        0x0 /usr/lib/gcc/avr/4.8.2/../../../avr/lib/avr51/libc.a(printf.o)
 .data          0x00800204        0x0 /usr/lib/gcc/avr/4.8.2/../../../avr/lib/avr51/libc.a(putchar.o)
 .data          0x00800204        0x0 /usr/lib/gcc/avr/4.8.2/../../../avr/lib/avr51/libc.a(puts.o)
 .data          0x00800204        0x0 /usr/lib/gcc/avr/4.8.2/../../../avr/lib/avr51/libc.a(sprintf.o)
 .data          0x00800204        0x0 /usr/lib/gcc/avr/4.8.2/../../../avr/lib/avr51/libc.a(ultoa_invert.o)
 .data          0x00800204        0x0 /usr/lib/gcc/avr/4.8.2/../../../avr/lib/avr51/libc.a(eerd_byte_atmega128rfa1.o)
 .data          0x00800204        0x0 /usr/lib/gcc/avr/4.8.2/../../../avr/lib/avr51/libc.a(eewr_byte_atmega128rfa1.o)
 .data          0x00800204        0x0 /usr/lib/gcc/avr/4.8.2/../../../avr/lib/avr51/libc.a(calloc.o)
 .data          0x00800204        0x6 /usr/lib/gcc/avr/4.8.2/../../../avr/lib/avr51/libc.a(malloc.o)
                0x00800204                __malloc_heap_end
                0x00800206                __malloc_heap_start
                0x00800208                __malloc_margin
 .data          0x0080020a        0x0 /usr/lib/gcc/avr/4.8.2/../../../avr/lib/avr51/libc.a(memset.o)
 *(.data*)
 *(.rodata)
 .rodata        0x0080020a       0x51 ../../../src/platform/firefly3/source/ulib.o
                0x0080020a                NRK_ADC_INPUT_7
                0x0080020b                NRK_ADC_INPUT_6
                0x0080020c                NRK_ADC_INPUT_5
                0x0080020d                NRK_ADC_INPUT_4
                0x0080020e                NRK_ADC_INPUT_3
                0x0080020f                NRK_ADC_INPUT_2
                0x00800210                NRK_ADC_INPUT_1
                0x00800211                NRK_ADC_INPUT_0
                0x00800212                NRK_PORTF_7
                0x00800213                NRK_PORTF_6
                0x00800214                NRK_PORTF_5
                0x00800215                NRK_PORTF_4
                0x00800216                NRK_PORTF_3
                0x00800217                NRK_PORTF_2
                0x00800218                NRK_PORTF_1
                0x00800219                NRK_PORTF_0
                0x0080021a                NRK_PORTG_5
                0x0080021b                NRK_PORTG_4
                0x0080021c                NRK_PORTG_3
                0x0080021d                NRK_PORTG_2
                0x0080021e                NRK_PORTG_1
                0x0080021f                NRK_PORTG_0
                0x00800220                NRK_ANT_1
                0x00800221                NRK_ANT_0
                0x00800222                NRK_UART0_TXD
                0x00800223                NRK_UART0_RXD
                0x00800224                NRK_PORTE_7
                0x00800225                NRK_PORTE_6
                0x00800226                NRK_PORTE_5
                0x00800227                NRK_PORTE_4
                0x00800228                NRK_PORTE_3
                0x00800229                NRK_PORTE_2
                0x0080022a                NRK_PORTE_1
                0x0080022b                NRK_PORTE_0
                0x0080022c                NRK_LED_3
                0x0080022d                NRK_LED_2
                0x0080022e                NRK_LED_1
                0x0080022f                NRK_LED_0
                0x00800230                NRK_UART1_TXD
                0x00800231                NRK_UART1_RXD
                0x00800232                NRK_BUTTON
                0x00800233                NRK_PORTD_7
                0x00800234                NRK_PORTD_6
                0x00800235                NRK_PORTD_5
                0x00800236                NRK_PORTD_4
                0x00800237                NRK_PORTD_3
                0x00800238                NRK_PORTD_2
                0x00800239                NRK_PORTD_1
                0x0080023a                NRK_PORTD_0
                0x0080023b                NRK_PORTC_7
                0x0080023c                NRK_PORTC_6
                0x0080023d                NRK_PORTC_5
                0x0080023e                NRK_PORTC_4
                0x0080023f                NRK_PORTC_3
                0x00800240                NRK_PORTC_2
                0x00800241                NRK_PORTC_1
                0x00800242                NRK_PORTC_0
                0x00800243                NRK_PORTB_7
                0x00800244                NRK_PORTB_6
                0x00800245                NRK_PORTB_5
                0x00800246                NRK_PORTB_4
                0x00800247                NRK_PORTB_3
                0x00800248                NRK_PORTB_2
                0x00800249                NRK_PORTB_1
                0x0080024a                NRK_PORTB_0
                0x0080024b                NRK_MISO
                0x0080024c                NRK_MOSI
                0x0080024d                NRK_SCK
                0x0080024e                NRK_SPI_SS
                0x0080024f                NRK_DEBUG_3
                0x00800250                NRK_DEBUG_2
                0x00800251                NRK_DEBUG_1
                0x00800252                NRK_DEBUG_0
                0x00800253                NRK_PORTA_7
                0x00800254                NRK_PORTA_6
                0x00800255                NRK_PORTA_5
                0x00800256                NRK_PORTA_4
                0x00800257                NRK_PORTA_3
                0x00800258                NRK_PORTA_2
                0x00800259                NRK_PORTA_1
                0x0080025a                NRK_PORTA_0
 *(.rodata*)
 .rodata.str1.1
                0x0080025b       0x51 main.o
 .rodata.str1.1
                0x008002ac       0x17 ../../../src/drivers/platform/firefly3/source/twi_base_calls.o
 .rodata.str1.1
                0x008002c3       0x83 ../../../src/radio/rf231_soc/source/basic_rf.o
 .rodata.str1.1
                0x00800346        0x3 ../../../src/kernel/source/nrk_error.o
 .rodata.str1.1
                0x00800349       0x41 ../../../src/kernel/source/nrk_stack_check.o
                                 0x4e (size before relaxing)
 *(.gnu.linkonce.d*)
                0x0080038a                . = ALIGN (0x2)
                0x0080038a                _edata = .
                0x0080038a                PROVIDE (__data_end, .)

.bss            0x0080038a      0xa58
                0x0080038a                PROVIDE (__bss_start, .)
 *(.bss)
 .bss           0x0080038a        0x0 /usr/lib/gcc/avr/4.8.2/../../../avr/lib/avr51/crtm128rfa1.o
 .bss           0x0080038a        0x0 main.o
 .bss           0x0080038a       0xbf ../../../src/net/bmac/rf231_soc/bmac.o
 .bss           0x00800449        0x0 ../../../src/drivers/platform/firefly3/source/ff_basic_sensor.o
 .bss           0x00800449        0x0 ../../../src/drivers/platform/firefly3/source/twi_base_calls.o
 .bss           0x00800449        0x4 ../../../src/radio/rf231_soc/source/basic_rf.o
                0x00800449                rx_end_func
                0x0080044b                rx_start_func
 .bss           0x0080044d       0x15 ../../../src/platform/firefly3/source/ulib.o
 .bss           0x00800462        0x0 ../../../src/platform/firefly3/source/hal_wait.o
 .bss           0x00800462        0x0 ../../../src/platform/firefly3/source/nrk_eeprom.o
 .bss           0x00800462        0x0 ../../../src/kernel/source/nrk.o
 .bss           0x00800462        0x0 ../../../src/kernel/source/nrk_stats.o
 .bss           0x00800462        0x0 ../../../src/kernel/source/nrk_error.o
 .bss           0x00800462        0x0 ../../../src/kernel/source/nrk_stack_check.o
 .bss           0x00800462        0x0 ../../../src/kernel/source/nrk_events.o
 .bss           0x00800462        0x0 ../../../src/kernel/source/nrk_task.o
 .bss           0x00800462        0x0 ../../../src/kernel/source/nrk_time.o
 .bss           0x00800462        0x0 ../../../src/kernel/source/nrk_idle_task.o
 .bss           0x00800462        0x0 ../../../src/kernel/source/nrk_scheduler.o
 .bss           0x00800462        0x0 ../../../src/kernel/source/nrk_driver.o
 .bss           0x00800462        0x0 ../../../src/kernel/source/nrk_reserve.o
 .bss           0x00800462        0x0 ../../../src/kernel/source/nrk_sw_wdt.o
 .bss           0x00800462        0x0 ../../../src/kernel/hal/atmega128rfa1/nrk_timer.o
 .bss           0x00800462        0x0 ../../../src/kernel/hal/atmega128rfa1/nrk_status.o
 .bss           0x00800462        0x0 ../../../src/kernel/hal/atmega128rfa1/nrk_ext_int.o
 .bss           0x00800462        0x0 ../../../src/kernel/hal/atmega128rfa1/nrk_watchdog.o
 .bss           0x00800462        0x0 ../../../src/kernel/hal/atmega128rfa1/nrk_cpu.o
 .bss           0x00800462        0x0 ../../../src/kernel/hal/atmega128rfa1/atmel_hw_specific.o
 .bss           0x00800462        0x0 /usr/lib/gcc/avr/4.8.2/../../../avr/lib/avr51/libprintf_min.a(vfprintf_min.o)
 .bss           0x00800462        0x0 /usr/lib/gcc/avr/4.8.2/avr51/libgcc.a(_muluhisi3.o)
 .bss           0x00800462        0x0 /usr/lib/gcc/avr/4.8.2/avr51/libgcc.a(_mulshisi3.o)
 .bss           0x00800462        0x0 /usr/lib/gcc/avr/4.8.2/avr51/libgcc.a(_mulsi3.o)
 .bss           0x00800462        0x0 /usr/lib/gcc/avr/4.8.2/avr51/libgcc.a(_udivmodhi4.o)
 .bss           0x00800462        0x0 /usr/lib/gcc/avr/4.8.2/avr51/libgcc.a(_divmodhi4.o)
 .bss           0x00800462        0x0 /usr/lib/gcc/avr/4.8.2/avr51/libgcc.a(_udivmodsi4.o)
 .bss           0x00800462        0x0 /usr/lib/gcc/avr/4.8.2/avr51/libgcc.a(_divmodsi4.o)
 .bss           0x00800462        0x0 /usr/lib/gcc/avr/4.8.2/avr51/libgcc.a(_udivdi3.o)
 .bss           0x00800462        0x0 /usr/lib/gcc/avr/4.8.2/avr51/libgcc.a(_udivmod64.o)
 .bss           0x00800462        0x0 /usr/lib/gcc/avr/4.8.2/avr51/libgcc.a(_negsi2.o)
 .bss           0x00800462        0x0 /usr/lib/gcc/avr/4.8.2/avr51/libgcc.a(_exit.o)
 .bss           0x00800462        0x0 /usr/lib/gcc/avr/4.8.2/avr51/libgcc.a(_tablejump.o)
 .bss           0x00800462        0x0 /usr/lib/gcc/avr/4.8.2/avr51/libgcc.a(_copy_data.o)
 .bss           0x00800462        0x0 /usr/lib/gcc/avr/4.8.2/avr51/libgcc.a(_clear_bss.o)
 .bss           0x00800462        0x0 /usr/lib/gcc/avr/4.8.2/avr51/libgcc.a(_adddi3.o)
 .bss           0x00800462        0x0 /usr/lib/gcc/avr/4.8.2/avr51/libgcc.a(_umulhisi3.o)
 .bss           0x00800462        0x0 /usr/lib/gcc/avr/4.8.2/../../../avr/lib/avr51/libc.a(rand.o)
 .bss           0x00800462        0x0 /usr/lib/gcc/avr/4.8.2/../../../avr/lib/avr51/libc.a(strchr_P.o)
 .bss           0x00800462        0x0 /usr/lib/gcc/avr/4.8.2/../../../avr/lib/avr51/libc.a(memcpy.o)
 .bss           0x00800462        0x0 /usr/lib/gcc/avr/4.8.2/../../../avr/lib/avr51/libc.a(fdevopen.o)
 .bss           0x00800462        0x0 /usr/lib/gcc/avr/4.8.2/../../../avr/lib/avr51/libc.a(fputc.o)
 .bss           0x00800462        0x0 /usr/lib/gcc/avr/4.8.2/../../../avr/lib/avr51/libc.a(iob.o)
 .bss           0x00800462        0x0 /usr/lib/gcc/avr/4.8.2/../../../avr/lib/avr51/libc.a(printf.o)
 .bss           0x00800462        0x0 /usr/lib/gcc/avr/4.8.2/../../../avr/lib/avr51/libc.a(putchar.o)
 .bss           0x00800462        0x0 /usr/lib/gcc/avr/4.8.2/../../../avr/lib/avr51/libc.a(puts.o)
 .bss           0x00800462        0x0 /usr/lib/gcc/avr/4.8.2/../../../avr/lib/avr51/libc.a(sprintf.o)
 .bss           0x00800462        0x0 /usr/lib/gcc/avr/4.8.2/../../../avr/lib/avr51/libc.a(ultoa_invert.o)
 .bss           0x00800462        0x0 /usr/lib/gcc/avr/4.8.2/../../../avr/lib/avr51/libc.a(eerd_byte_atmega128rfa1.o)
 .bss           0x00800462        0x0 /usr/lib/gcc/avr/4.8.2/../../../avr/lib/avr51/libc.a(eewr_byte_atmega128rfa1.o)
 .bss           0x00800462        0x0 /usr/lib/gcc/avr/4.8.2/../../../avr/lib/avr51/libc.a(calloc.o)
 .bss           0x00800462        0x0 /usr/lib/gcc/avr/4.8.2/../../../avr/lib/avr51/libc.a(malloc.o)
 .bss           0x00800462        0x0 /usr/lib/gcc/avr/4.8.2/../../../avr/lib/avr51/libc.a(memset.o)
 *(.bss*)
 *(COMMON)
 COMMON         0x00800462      0x781 main.o
                0x00800462                packet
                0x00800485                tx_task_stack
                0x00800685                sensors_task_stack
                0x00800885                error_task
                0x00800886                MULTI_SENSING_TASK
                0x008008a9                b_packet
                0x008008ae                bmac_enable_signal
                0x008008af                rx_task_stack
                0x00800aaf                bmac_rfTxInfo
                0x00800ab6                _nrk_signal_list
                0x00800aba                curr_time
                0x00800ac2                bmac_rx_pkt_signal
                0x00800ac3                rx_buf
                0x00800af5                nrk_kernel_stk_ptr
                0x00800af7                tx_buf
                0x00800b0f                RX_TASK
                0x00800b32                TX_TASK
                0x00800b55                bmac_rfRxInfo
                0x00800b61                error_num
                0x00800b62                nrk_idle_task_stk
                0x00800be2                bmac_tx_pkt_done_signal
 COMMON         0x00800be3        0x5 ../../../src/net/bmac/rf231_soc/bmac.o
                0x00800be3                app_timer0_callback
                0x00800be5                _nrk_time_trigger
                0x00800be6                app_timer0_prescale
                0x00800be7                _nrk_prev_timer_val
 COMMON         0x00800be8       0x49 ../../../src/drivers/platform/firefly3/source/ff_basic_sensor.o
                0x00800be8                eeprom_values
                0x00800bfe                B6
                0x00800c02                UT
                0x00800c06                X2
                0x00800c0a                T
                0x00800c0e                B5
                0x00800c12                is_open
                0x00800c13                X1
                0x00800c17                channel
                0x00800c18                X3
                0x00800c1c                B4
                0x00800c20                h_cnt
                0x00800c21                B7
                0x00800c25                UP
                0x00800c29                P
                0x00800c2d                B3
 COMMON         0x00800c31        0x2 ../../../src/drivers/platform/firefly3/source/twi_base_calls.o
                0x00800c31                twst
                0x00800c32                i2c_address
 COMMON         0x00800c33       0x53 ../../../src/radio/rf231_soc/source/basic_rf.o
                0x00800c33                rx_ctr
                0x00800c37                radio_sem
                0x00800c39                use_glossy
                0x00800c3a                mdmctrl0
                0x00800c3c                rfSettings
                0x00800c45                curr_t
                0x00800c4d                tx_done
                0x00800c4e                ekey
                0x00800c5e                rf_ready
                0x00800c5f                target_t
                0x00800c67                dkey
                0x00800c77                tx_ctr
                0x00800c7d                rx_ready
                0x00800c7e                dummy_t
 COMMON         0x00800c86      0x143 ../../../src/kernel/source/nrk.o
                0x00800c86                _free_node
                0x00800c88                nrk_task_TCB
                0x00800d8a                next_next_wakeup
                0x00800d8c                nrk_sem_list
                0x00800d92                nrk_task_init_cnt
                0x00800d93                nrk_wakeup_signal
                0x00800d94                nrk_high_ready_TCB
                0x00800d96                nrk_cur_task_prio
                0x00800d97                _nrk_cpu_state
                0x00800d98                _head_node
                0x00800d9a                nrk_system_time
                0x00800da2                _nrk_resource_cnt
                0x00800da3                nrk_cur_task_TCB
                0x00800da5                nrk_high_ready_prio
                0x00800da6                _nrk_readyQ
 COMMON         0x00800dc9        0x1 ../../../src/kernel/source/nrk_scheduler.o
                0x00800dc9                t
 COMMON         0x00800dca        0x6 ../../../src/kernel/source/nrk_driver.o
                0x00800dca                _nrk_driver_count
                0x00800dcb                nrk_drivers
                0x00800dcf                nrk_driver_init
 COMMON         0x00800dd0        0x8 ../../../src/kernel/hal/atmega128rfa1/nrk_ext_int.o
                0x00800dd0                ext_int1_callback
                0x00800dd2                ext_int0_callback
                0x00800dd4                ext_int2_callback
                0x00800dd6                pc_int0_callback
 COMMON         0x00800dd8        0x6 /usr/lib/gcc/avr/4.8.2/../../../avr/lib/avr51/libc.a(iob.o)
                0x00800dd8                __iob
 COMMON         0x00800dde        0x4 /usr/lib/gcc/avr/4.8.2/../../../avr/lib/avr51/libc.a(malloc.o)
                0x00800dde                __brkval
                0x00800de0                __flp
                0x00800de2                PROVIDE (__bss_end, .)
                0x00006ad8                __data_load_start = LOADADDR (.data)
                0x00006c62                __data_load_end = (__data_load_start + SIZEOF (.data))

.noinit         0x00800de2        0x0
                0x00800de2                PROVIDE (__noinit_start, .)
 *(.noinit*)
                0x00800de2                PROVIDE (__noinit_end, .)
                0x00800de2                _end = .
                0x00800de2                PROVIDE (__heap_start, .)

.eeprom         0x00810000        0x0
 *(.eeprom*)
                0x00810000                __eeprom_end = .

.fuse
 *(.fuse)
 *(.lfuse)
 *(.hfuse)
 *(.efuse)

.lock
 *(.lock*)

.signature
 *(.signature*)

.user_signatures
 *(.user_signatures*)

.stab           0x00000000    0x16a88
 *(.stab)
 .stab          0x00000000      0x6cc /usr/lib/gcc/avr/4.8.2/../../../avr/lib/avr51/crtm128rfa1.o
 .stab          0x000006cc     0x186c main.o
                               0x1878 (size before relaxing)
 .stab          0x00001f38     0x1b18 ../../../src/net/bmac/rf231_soc/bmac.o
                               0x2664 (size before relaxing)
 .stab          0x00003a50     0x12f0 ../../../src/drivers/platform/firefly3/source/ff_basic_sensor.o
                               0x1e54 (size before relaxing)
 .stab          0x00004d40      0xae0 ../../../src/drivers/platform/firefly3/source/twi_base_calls.o
                               0x165c (size before relaxing)
 .stab          0x00005820     0x2280 ../../../src/radio/rf231_soc/source/basic_rf.o
                               0x2d18 (size before relaxing)
 .stab          0x00007aa0     0x1758 ../../../src/platform/firefly3/source/ulib.o
                               0x21e4 (size before relaxing)
 .stab          0x000091f8      0x378 ../../../src/platform/firefly3/source/hal_wait.o
                                0xd50 (size before relaxing)
 .stab          0x00009570      0x7f8 ../../../src/platform/firefly3/source/nrk_eeprom.o
                               0x126c (size before relaxing)
 .stab          0x00009d68      0xb28 ../../../src/kernel/source/nrk.o
                               0x1620 (size before relaxing)
 .stab          0x0000a890      0x420 ../../../src/kernel/source/nrk_stats.o
                                0xf3c (size before relaxing)
 .stab          0x0000acb0      0xbac ../../../src/kernel/source/nrk_error.o
                               0x16d4 (size before relaxing)
 .stab          0x0000b85c      0x624 ../../../src/kernel/source/nrk_stack_check.o
                               0x1140 (size before relaxing)
 .stab          0x0000be80     0x1044 ../../../src/kernel/source/nrk_events.o
                               0x1b78 (size before relaxing)
 .stab          0x0000cec4     0x10bc ../../../src/kernel/source/nrk_task.o
                               0x1bf0 (size before relaxing)
 .stab          0x0000df80      0x918 ../../../src/kernel/source/nrk_time.o
                               0x144c (size before relaxing)
 .stab          0x0000e898      0x4bc ../../../src/kernel/source/nrk_idle_task.o
                                0xff0 (size before relaxing)
 .stab          0x0000ed54      0x99c ../../../src/kernel/source/nrk_scheduler.o
                               0x14d0 (size before relaxing)
 .stab          0x0000f6f0      0x870 ../../../src/kernel/source/nrk_driver.o
                               0x13c8 (size before relaxing)
 .stab          0x0000ff60      0x264 ../../../src/kernel/source/nrk_reserve.o
                                0x270 (size before relaxing)
 .stab          0x000101c4      0x390 ../../../src/kernel/source/nrk_sw_wdt.o
                                0xeac (size before relaxing)
 .stab          0x00010554     0x1110 ../../../src/kernel/hal/atmega128rfa1/nrk_timer.o
                               0x1c38 (size before relaxing)
 .stab          0x00011664      0x474 ../../../src/kernel/hal/atmega128rfa1/nrk_status.o
                                0xf00 (size before relaxing)
 .stab          0x00011ad8      0xa14 ../../../src/kernel/hal/atmega128rfa1/nrk_ext_int.o
                               0x14a0 (size before relaxing)
 .stab          0x000124ec      0x534 ../../../src/kernel/hal/atmega128rfa1/nrk_watchdog.o
                               0x1044 (size before relaxing)
 .stab          0x00012a20      0x894 ../../../src/kernel/hal/atmega128rfa1/nrk_cpu.o
                               0x13bc (size before relaxing)
 .stab          0x000132b4      0x204 ../../../src/kernel/hal/atmega128rfa1/atmel_hw_specific.o
                                0x210 (size before relaxing)
 .stab          0x000134b8      0x900 /usr/lib/gcc/avr/4.8.2/../../../avr/lib/avr51/libprintf_min.a(vfprintf_min.o)
                                0x978 (size before relaxing)
 .stab          0x00013db8      0x450 /usr/lib/gcc/avr/4.8.2/../../../avr/lib/avr51/libc.a(rand.o)
                                0x48c (size before relaxing)
 .stab          0x00014208       0x9c /usr/lib/gcc/avr/4.8.2/../../../avr/lib/avr51/libc.a(strchr_P.o)
                                 0xa8 (size before relaxing)
 .stab          0x000142a4       0x84 /usr/lib/gcc/avr/4.8.2/../../../avr/lib/avr51/libc.a(memcpy.o)
                                 0x90 (size before relaxing)
 .stab          0x00014328      0x408 /usr/lib/gcc/avr/4.8.2/../../../avr/lib/avr51/libc.a(fdevopen.o)
                                0x630 (size before relaxing)
 .stab          0x00014730      0x354 /usr/lib/gcc/avr/4.8.2/../../../avr/lib/avr51/libc.a(fputc.o)
                                0x534 (size before relaxing)
 .stab          0x00014a84      0x2ac /usr/lib/gcc/avr/4.8.2/../../../avr/lib/avr51/libc.a(iob.o)
                                0x48c (size before relaxing)
 .stab          0x00014d30      0x30c /usr/lib/gcc/avr/4.8.2/../../../avr/lib/avr51/libc.a(printf.o)
                                0x4ec (size before relaxing)
 .stab          0x0001503c      0x2f4 /usr/lib/gcc/avr/4.8.2/../../../avr/lib/avr51/libc.a(putchar.o)
                                0x4d4 (size before relaxing)
 .stab          0x00015330      0x36c /usr/lib/gcc/avr/4.8.2/../../../avr/lib/avr51/libc.a(puts.o)
                                0x54c (size before relaxing)
 .stab          0x0001569c      0x36c /usr/lib/gcc/avr/4.8.2/../../../avr/lib/avr51/libc.a(sprintf.o)
                                0x54c (size before relaxing)
 .stab          0x00015a08      0x480 /usr/lib/gcc/avr/4.8.2/../../../avr/lib/avr51/libc.a(ultoa_invert.o)
                                0x48c (size before relaxing)
 .stab          0x00015e88       0x90 /usr/lib/gcc/avr/4.8.2/../../../avr/lib/avr51/libc.a(eerd_byte_atmega128rfa1.o)
                                 0x9c (size before relaxing)
 .stab          0x00015f18       0xe4 /usr/lib/gcc/avr/4.8.2/../../../avr/lib/avr51/libc.a(eewr_byte_atmega128rfa1.o)
                                 0xf0 (size before relaxing)
 .stab          0x00015ffc      0x318 /usr/lib/gcc/avr/4.8.2/../../../avr/lib/avr51/libc.a(calloc.o)
                                0x378 (size before relaxing)
 .stab          0x00016314      0x708 /usr/lib/gcc/avr/4.8.2/../../../avr/lib/avr51/libc.a(malloc.o)
                                0x8e8 (size before relaxing)
 .stab          0x00016a1c       0x6c /usr/lib/gcc/avr/4.8.2/../../../avr/lib/avr51/libc.a(memset.o)
                                 0x78 (size before relaxing)

.stabstr        0x00000000     0xa447
 *(.stabstr)
 .stabstr       0x00000000     0xa447 /usr/lib/gcc/avr/4.8.2/../../../avr/lib/avr51/crtm128rfa1.o

.stab.excl
 *(.stab.excl)

.stab.exclstr
 *(.stab.exclstr)

.stab.index
 *(.stab.index)

.stab.indexstr
 *(.stab.indexstr)

.comment        0x00000000       0x11
 *(.comment)
 .comment       0x00000000       0x11 main.o
                                 0x12 (size before relaxing)
 .comment       0x00000000       0x12 ../../../src/net/bmac/rf231_soc/bmac.o
 .comment       0x00000000       0x12 ../../../src/drivers/platform/firefly3/source/ff_basic_sensor.o
 .comment       0x00000000       0x12 ../../../src/drivers/platform/firefly3/source/twi_base_calls.o
 .comment       0x00000000       0x12 ../../../src/radio/rf231_soc/source/basic_rf.o
 .comment       0x00000000       0x12 ../../../src/platform/firefly3/source/ulib.o
 .comment       0x00000000       0x12 ../../../src/platform/firefly3/source/hal_wait.o
 .comment       0x00000000       0x12 ../../../src/platform/firefly3/source/nrk_eeprom.o
 .comment       0x00000000       0x12 ../../../src/kernel/source/nrk.o
 .comment       0x00000000       0x12 ../../../src/kernel/source/nrk_stats.o
 .comment       0x00000000       0x12 ../../../src/kernel/source/nrk_error.o
 .comment       0x00000000       0x12 ../../../src/kernel/source/nrk_stack_check.o
 .comment       0x00000000       0x12 ../../../src/kernel/source/nrk_events.o
 .comment       0x00000000       0x12 ../../../src/kernel/source/nrk_task.o
 .comment       0x00000000       0x12 ../../../src/kernel/source/nrk_time.o
 .comment       0x00000000       0x12 ../../../src/kernel/source/nrk_idle_task.o
 .comment       0x00000000       0x12 ../../../src/kernel/source/nrk_scheduler.o
 .comment       0x00000000       0x12 ../../../src/kernel/source/nrk_driver.o
 .comment       0x00000000       0x12 ../../../src/kernel/source/nrk_reserve.o
 .comment       0x00000000       0x12 ../../../src/kernel/source/nrk_sw_wdt.o
 .comment       0x00000000       0x12 ../../../src/kernel/hal/atmega128rfa1/nrk_timer.o
 .comment       0x00000000       0x12 ../../../src/kernel/hal/atmega128rfa1/nrk_status.o
 .comment       0x00000000       0x12 ../../../src/kernel/hal/atmega128rfa1/nrk_ext_int.o
 .comment       0x00000000       0x12 ../../../src/kernel/hal/atmega128rfa1/nrk_watchdog.o
 .comment       0x00000000       0x12 ../../../src/kernel/hal/atmega128rfa1/nrk_cpu.o
 .comment       0x00000000       0x12 /usr/lib/gcc/avr/4.8.2/../../../avr/lib/avr51/libprintf_min.a(vfprintf_min.o)
 .comment       0x00000000       0x12 /usr/lib/gcc/avr/4.8.2/../../../avr/lib/avr51/libc.a(rand.o)
 .comment       0x00000000       0x12 /usr/lib/gcc/avr/4.8.2/../../../avr/lib/avr51/libc.a(fdevopen.o)
 .comment       0x00000000       0x12 /usr/lib/gcc/avr/4.8.2/../../../avr/lib/avr51/libc.a(fputc.o)
 .comment       0x00000000       0x12 /usr/lib/gcc/avr/4.8.2/../../../avr/lib/avr51/libc.a(iob.o)
 .comment       0x00000000       0x12 /usr/lib/gcc/avr/4.8.2/../../../avr/lib/avr51/libc.a(printf.o)
 .comment       0x00000000       0x12 /usr/lib/gcc/avr/4.8.2/../../../avr/lib/avr51/libc.a(putchar.o)
 .comment       0x00000000       0x12 /usr/lib/gcc/avr/4.8.2/../../../avr/lib/avr51/libc.a(puts.o)
 .comment       0x00000000       0x12 /usr/lib/gcc/avr/4.8.2/../../../avr/lib/avr51/libc.a(sprintf.o)
 .comment       0x00000000       0x12 /usr/lib/gcc/avr/4.8.2/../../../avr/lib/avr51/libc.a(calloc.o)
 .comment       0x00000000       0x12 /usr/lib/gcc/avr/4.8.2/../../../avr/lib/avr51/libc.a(malloc.o)

.debug
 *(.debug)

.line
 *(.line)

.debug_srcinfo
 *(.debug_srcinfo)

.debug_sfnames
 *(.debug_sfnames)

.debug_aranges
 *(.debug_aranges)

.debug_pubnames
 *(.debug_pubnames)

.debug_info
 *(.debug_info)
 *(.gnu.linkonce.wi.*)

.debug_abbrev
 *(.debug_abbrev)

.debug_line
 *(.debug_line)

.debug_frame
 *(.debug_frame)

.debug_str
 *(.debug_str)

.debug_loc
 *(.debug_loc)

.debug_macinfo
 *(.debug_macinfo)

.debug_pubtypes
 *(.debug_pubtypes)

.debug_ranges
 *(.debug_ranges)

.debug_macro
 *(.debug_macro)
OUTPUT(main.elf elf32-avr)
LOAD linker stubs

Cross Reference Table

Symbol                                            File
B3                                                ../../../src/drivers/platform/firefly3/source/ff_basic_sensor.o
B4                                                ../../../src/drivers/platform/firefly3/source/ff_basic_sensor.o
B5                                                ../../../src/drivers/platform/firefly3/source/ff_basic_sensor.o
B6                                                ../../../src/drivers/platform/firefly3/source/ff_basic_sensor.o
B7                                                ../../../src/drivers/platform/firefly3/source/ff_basic_sensor.o
MULTI_SENSING_TASK                                main.o
NRK_ADC_INPUT_0                                   ../../../src/platform/firefly3/source/ulib.o
NRK_ADC_INPUT_1                                   ../../../src/platform/firefly3/source/ulib.o
NRK_ADC_INPUT_2                                   ../../../src/platform/firefly3/source/ulib.o
NRK_ADC_INPUT_3                                   ../../../src/platform/firefly3/source/ulib.o
NRK_ADC_INPUT_4                                   ../../../src/platform/firefly3/source/ulib.o
NRK_ADC_INPUT_5                                   ../../../src/platform/firefly3/source/ulib.o
NRK_ADC_INPUT_6                                   ../../../src/platform/firefly3/source/ulib.o
NRK_ADC_INPUT_7                                   ../../../src/platform/firefly3/source/ulib.o
NRK_ANT_0                                         ../../../src/platform/firefly3/source/ulib.o
NRK_ANT_1                                         ../../../src/platform/firefly3/source/ulib.o
NRK_BUTTON                                        ../../../src/platform/firefly3/source/ulib.o
NRK_DEBUG_0                                       ../../../src/platform/firefly3/source/ulib.o
NRK_DEBUG_1                                       ../../../src/platform/firefly3/source/ulib.o
NRK_DEBUG_2                                       ../../../src/platform/firefly3/source/ulib.o
NRK_DEBUG_3                                       ../../../src/platform/firefly3/source/ulib.o
NRK_LED_0                                         ../../../src/platform/firefly3/source/ulib.o
NRK_LED_1                                         ../../../src/platform/firefly3/source/ulib.o
NRK_LED_2                                         ../../../src/platform/firefly3/source/ulib.o
NRK_LED_3                                         ../../../src/platform/firefly3/source/ulib.o
NRK_MISO                                          ../../../src/platform/firefly3/source/ulib.o
NRK_MOSI                                          ../../../src/platform/firefly3/source/ulib.o
NRK_PORTA_0                                       ../../../src/platform/firefly3/source/ulib.o
NRK_PORTA_1                                       ../../../src/platform/firefly3/source/ulib.o
NRK_PORTA_2                                       ../../../src/platform/firefly3/source/ulib.o
NRK_PORTA_3                                       ../../../src/platform/firefly3/source/ulib.o
NRK_PORTA_4                                       ../../../src/platform/firefly3/source/ulib.o
NRK_PORTA_5                                       ../../../src/platform/firefly3/source/ulib.o
NRK_PORTA_6                                       ../../../src/platform/firefly3/source/ulib.o
NRK_PORTA_7                                       ../../../src/platform/firefly3/source/ulib.o
NRK_PORTB_0                                       ../../../src/platform/firefly3/source/ulib.o
NRK_PORTB_1                                       ../../../src/platform/firefly3/source/ulib.o
NRK_PORTB_2                                       ../../../src/platform/firefly3/source/ulib.o
NRK_PORTB_3                                       ../../../src/platform/firefly3/source/ulib.o
NRK_PORTB_4                                       ../../../src/platform/firefly3/source/ulib.o
NRK_PORTB_5                                       ../../../src/platform/firefly3/source/ulib.o
NRK_PORTB_6                                       ../../../src/platform/firefly3/source/ulib.o
NRK_PORTB_7                                       ../../../src/platform/firefly3/source/ulib.o
NRK_PORTC_0                                       ../../../src/platform/firefly3/source/ulib.o
NRK_PORTC_1                                       ../../../src/platform/firefly3/source/ulib.o
NRK_PORTC_2                                       ../../../src/platform/firefly3/source/ulib.o
NRK_PORTC_3                                       ../../../src/platform/firefly3/source/ulib.o
NRK_PORTC_4                                       ../../../src/platform/firefly3/source/ulib.o
NRK_PORTC_5                                       ../../../src/platform/firefly3/source/ulib.o
NRK_PORTC_6                                       ../../../src/platform/firefly3/source/ulib.o
NRK_PORTC_7                                       ../../../src/platform/firefly3/source/ulib.o
NRK_PORTD_0                                       ../../../src/platform/firefly3/source/ulib.o
NRK_PORTD_1                                       ../../../src/platform/firefly3/source/ulib.o
NRK_PORTD_2                                       ../../../src/platform/firefly3/source/ulib.o
NRK_PORTD_3                                       ../../../src/platform/firefly3/source/ulib.o
NRK_PORTD_4                                       ../../../src/platform/firefly3/source/ulib.o
NRK_PORTD_5                                       ../../../src/platform/firefly3/source/ulib.o
NRK_PORTD_6                                       ../../../src/platform/firefly3/source/ulib.o
NRK_PORTD_7                                       ../../../src/platform/firefly3/source/ulib.o
NRK_PORTE_0                                       ../../../src/platform/firefly3/source/ulib.o
NRK_PORTE_1                                       ../../../src/platform/firefly3/source/ulib.o
NRK_PORTE_2                                       ../../../src/platform/firefly3/source/ulib.o
                                                  ../../../src/drivers/platform/firefly3/source/ff_basic_sensor.o
NRK_PORTE_3                                       ../../../src/platform/firefly3/source/ulib.o
                                                  ../../../src/drivers/platform/firefly3/source/ff_basic_sensor.o
NRK_PORTE_4                                       ../../../src/platform/firefly3/source/ulib.o
NRK_PORTE_5                                       ../../../src/platform/firefly3/source/ulib.o
NRK_PORTE_6                                       ../../../src/platform/firefly3/source/ulib.o
NRK_PORTE_7                                       ../../../src/platform/firefly3/source/ulib.o
NRK_PORTF_0                                       ../../../src/platform/firefly3/source/ulib.o
NRK_PORTF_1                                       ../../../src/platform/firefly3/source/ulib.o
NRK_PORTF_2                                       ../../../src/platform/firefly3/source/ulib.o
NRK_PORTF_3                                       ../../../src/platform/firefly3/source/ulib.o
NRK_PORTF_4                                       ../../../src/platform/firefly3/source/ulib.o
NRK_PORTF_5                                       ../../../src/platform/firefly3/source/ulib.o
NRK_PORTF_6                                       ../../../src/platform/firefly3/source/ulib.o
                                                  ../../../src/drivers/platform/firefly3/source/ff_basic_sensor.o
NRK_PORTF_7                                       ../../../src/platform/firefly3/source/ulib.o
NRK_PORTG_0                                       ../../../src/platform/firefly3/source/ulib.o
NRK_PORTG_1                                       ../../../src/platform/firefly3/source/ulib.o
NRK_PORTG_2                                       ../../../src/platform/firefly3/source/ulib.o
NRK_PORTG_3                                       ../../../src/platform/firefly3/source/ulib.o
NRK_PORTG_4                                       ../../../src/platform/firefly3/source/ulib.o
NRK_PORTG_5                                       ../../../src/platform/firefly3/source/ulib.o
NRK_SCK                                           ../../../src/platform/firefly3/source/ulib.o
NRK_SPI_SS                                        ../../../src/platform/firefly3/source/ulib.o
NRK_UART0_RXD                                     ../../../src/platform/firefly3/source/ulib.o
NRK_UART0_TXD                                     ../../../src/platform/firefly3/source/ulib.o
NRK_UART1_RXD                                     ../../../src/platform/firefly3/source/ulib.o
NRK_UART1_TXD                                     ../../../src/platform/firefly3/source/ulib.o
P                                                 ../../../src/drivers/platform/firefly3/source/ff_basic_sensor.o
PORT_INIT                                         ../../../src/platform/firefly3/source/ulib.o
RX_TASK                                           main.o
SIG_OUTPUT_COMPARE1A                              ../../../src/kernel/hal/atmega128rfa1/nrk_timer.o
T                                                 ../../../src/drivers/platform/firefly3/source/ff_basic_sensor.o
TX_TASK                                           main.o
UP                                                ../../../src/drivers/platform/firefly3/source/ff_basic_sensor.o
UT                                                ../../../src/drivers/platform/firefly3/source/ff_basic_sensor.o
X1                                                ../../../src/drivers/platform/firefly3/source/ff_basic_sensor.o
X2                                                ../../../src/drivers/platform/firefly3/source/ff_basic_sensor.o
X3                                                ../../../src/drivers/platform/firefly3/source/ff_basic_sensor.o
__adddi3                                          /usr/lib/gcc/avr/4.8.2/avr51/libgcc.a(_adddi3.o)
                                                  ../../../src/kernel/source/nrk_time.o
__bad_interrupt                                   /usr/lib/gcc/avr/4.8.2/../../../avr/lib/avr51/crtm128rfa1.o
__brkval                                          /usr/lib/gcc/avr/4.8.2/../../../avr/lib/avr51/libc.a(malloc.o)
__bss_end                                         /usr/lib/gcc/avr/4.8.2/avr51/libgcc.a(_clear_bss.o)
__bss_start                                       /usr/lib/gcc/avr/4.8.2/avr51/libgcc.a(_clear_bss.o)
__data_end                                        /usr/lib/gcc/avr/4.8.2/avr51/libgcc.a(_copy_data.o)
__data_load_start                                 /usr/lib/gcc/avr/4.8.2/avr51/libgcc.a(_copy_data.o)
__data_start                                      /usr/lib/gcc/avr/4.8.2/avr51/libgcc.a(_copy_data.o)
__divmodhi4                                       /usr/lib/gcc/avr/4.8.2/avr51/libgcc.a(_divmodhi4.o)
                                                  ../../../src/net/bmac/rf231_soc/bmac.o
                                                  main.o
__divmodsi4                                       /usr/lib/gcc/avr/4.8.2/avr51/libgcc.a(_divmodsi4.o)
                                                  /usr/lib/gcc/avr/4.8.2/../../../avr/lib/avr51/libc.a(rand.o)
                                                  ../../../src/drivers/platform/firefly3/source/ff_basic_sensor.o
__do_clear_bss                                    /usr/lib/gcc/avr/4.8.2/avr51/libgcc.a(_clear_bss.o)
                                                  /usr/lib/gcc/avr/4.8.2/../../../avr/lib/avr51/libc.a(malloc.o)
                                                  /usr/lib/gcc/avr/4.8.2/../../../avr/lib/avr51/libc.a(iob.o)
                                                  ../../../src/kernel/hal/atmega128rfa1/nrk_cpu.o
                                                  ../../../src/kernel/hal/atmega128rfa1/nrk_watchdog.o
                                                  ../../../src/kernel/hal/atmega128rfa1/nrk_ext_int.o
                                                  ../../../src/kernel/hal/atmega128rfa1/nrk_status.o
                                                  ../../../src/kernel/hal/atmega128rfa1/nrk_timer.o
                                                  ../../../src/kernel/source/nrk_sw_wdt.o
                                                  ../../../src/kernel/source/nrk_driver.o
                                                  ../../../src/kernel/source/nrk_scheduler.o
                                                  ../../../src/kernel/source/nrk_idle_task.o
                                                  ../../../src/kernel/source/nrk_time.o
                                                  ../../../src/kernel/source/nrk_task.o
                                                  ../../../src/kernel/source/nrk_events.o
                                                  ../../../src/kernel/source/nrk_stack_check.o
                                                  ../../../src/kernel/source/nrk_error.o
                                                  ../../../src/kernel/source/nrk_stats.o
                                                  ../../../src/kernel/source/nrk.o
                                                  ../../../src/platform/firefly3/source/nrk_eeprom.o
                                                  ../../../src/platform/firefly3/source/ulib.o
                                                  ../../../src/radio/rf231_soc/source/basic_rf.o
                                                  ../../../src/drivers/platform/firefly3/source/twi_base_calls.o
                                                  ../../../src/drivers/platform/firefly3/source/ff_basic_sensor.o
                                                  ../../../src/net/bmac/rf231_soc/bmac.o
                                                  main.o
__do_copy_data                                    /usr/lib/gcc/avr/4.8.2/avr51/libgcc.a(_copy_data.o)
                                                  /usr/lib/gcc/avr/4.8.2/../../../avr/lib/avr51/libc.a(malloc.o)
                                                  /usr/lib/gcc/avr/4.8.2/../../../avr/lib/avr51/libc.a(rand.o)
                                                  ../../../src/kernel/source/nrk_stack_check.o
                                                  ../../../src/kernel/source/nrk_error.o
                                                  ../../../src/platform/firefly3/source/ulib.o
                                                  ../../../src/radio/rf231_soc/source/basic_rf.o
                                                  ../../../src/drivers/platform/firefly3/source/twi_base_calls.o
                                                  main.o
__eerd_byte_m128rfa1                              /usr/lib/gcc/avr/4.8.2/../../../avr/lib/avr51/libc.a(eerd_byte_atmega128rfa1.o)
                                                  ../../../src/platform/firefly3/source/nrk_eeprom.o
__eewr_byte_m128rfa1                              /usr/lib/gcc/avr/4.8.2/../../../avr/lib/avr51/libc.a(eewr_byte_atmega128rfa1.o)
                                                  ../../../src/platform/firefly3/source/nrk_eeprom.o
__eewr_r18_m128rfa1                               /usr/lib/gcc/avr/4.8.2/../../../avr/lib/avr51/libc.a(eewr_byte_atmega128rfa1.o)
__flp                                             /usr/lib/gcc/avr/4.8.2/../../../avr/lib/avr51/libc.a(malloc.o)
__heap_end                                        /usr/lib/gcc/avr/4.8.2/../../../avr/lib/avr51/crtm128rfa1.o
                                                  /usr/lib/gcc/avr/4.8.2/../../../avr/lib/avr51/libc.a(malloc.o)
__heap_start                                      /usr/lib/gcc/avr/4.8.2/../../../avr/lib/avr51/libc.a(malloc.o)
__init                                            /usr/lib/gcc/avr/4.8.2/../../../avr/lib/avr51/crtm128rfa1.o
__iob                                             /usr/lib/gcc/avr/4.8.2/../../../avr/lib/avr51/libc.a(puts.o)
                                                  /usr/lib/gcc/avr/4.8.2/../../../avr/lib/avr51/libc.a(putchar.o)
                                                  /usr/lib/gcc/avr/4.8.2/../../../avr/lib/avr51/libc.a(printf.o)
                                                  /usr/lib/gcc/avr/4.8.2/../../../avr/lib/avr51/libc.a(iob.o)
                                                  /usr/lib/gcc/avr/4.8.2/../../../avr/lib/avr51/libc.a(fdevopen.o)
                                                  ../../../src/kernel/source/nrk_error.o
                                                  ../../../src/platform/firefly3/source/ulib.o
__malloc_heap_end                                 /usr/lib/gcc/avr/4.8.2/../../../avr/lib/avr51/libc.a(malloc.o)
__malloc_heap_start                               /usr/lib/gcc/avr/4.8.2/../../../avr/lib/avr51/libc.a(malloc.o)
__malloc_margin                                   /usr/lib/gcc/avr/4.8.2/../../../avr/lib/avr51/libc.a(malloc.o)
__mulohisi3                                       /usr/lib/gcc/avr/4.8.2/avr51/libgcc.a(_mulshisi3.o)
                                                  /usr/lib/gcc/avr/4.8.2/../../../avr/lib/avr51/libc.a(rand.o)
                                                  ../../../src/drivers/platform/firefly3/source/ff_basic_sensor.o
__mulshisi3                                       /usr/lib/gcc/avr/4.8.2/avr51/libgcc.a(_mulshisi3.o)
                                                  ../../../src/drivers/platform/firefly3/source/ff_basic_sensor.o
__mulsi3                                          /usr/lib/gcc/avr/4.8.2/avr51/libgcc.a(_mulsi3.o)
                                                  ../../../src/kernel/source/nrk_scheduler.o
                                                  ../../../src/kernel/source/nrk_time.o
                                                  ../../../src/drivers/platform/firefly3/source/ff_basic_sensor.o
__muluhisi3                                       /usr/lib/gcc/avr/4.8.2/avr51/libgcc.a(_muluhisi3.o)
                                                  /usr/lib/gcc/avr/4.8.2/../../../avr/lib/avr51/libc.a(rand.o)
                                                  /usr/lib/gcc/avr/4.8.2/avr51/libgcc.a(_mulsi3.o)
                                                  /usr/lib/gcc/avr/4.8.2/avr51/libgcc.a(_mulshisi3.o)
                                                  ../../../src/kernel/source/nrk_scheduler.o
                                                  ../../../src/kernel/source/nrk_time.o
                                                  ../../../src/radio/rf231_soc/source/basic_rf.o
                                                  ../../../src/drivers/platform/firefly3/source/ff_basic_sensor.o
__negsi2                                          /usr/lib/gcc/avr/4.8.2/avr51/libgcc.a(_negsi2.o)
                                                  /usr/lib/gcc/avr/4.8.2/avr51/libgcc.a(_divmodsi4.o)
__stack                                           /usr/lib/gcc/avr/4.8.2/../../../avr/lib/avr51/crtm128rfa1.o
__tablejump2__                                    /usr/lib/gcc/avr/4.8.2/avr51/libgcc.a(_tablejump.o)
                                                  ../../../src/kernel/source/nrk_error.o
                                                  ../../../src/platform/firefly3/source/ulib.o
__tablejump__                                     /usr/lib/gcc/avr/4.8.2/avr51/libgcc.a(_tablejump.o)
__udivdi3                                         /usr/lib/gcc/avr/4.8.2/avr51/libgcc.a(_udivdi3.o)
                                                  ../../../src/kernel/source/nrk_time.o
__udivdi3_umoddi3                                 /usr/lib/gcc/avr/4.8.2/avr51/libgcc.a(_udivdi3.o)
__udivmod64                                       /usr/lib/gcc/avr/4.8.2/avr51/libgcc.a(_udivmod64.o)
                                                  /usr/lib/gcc/avr/4.8.2/avr51/libgcc.a(_udivdi3.o)
__udivmodhi4                                      /usr/lib/gcc/avr/4.8.2/avr51/libgcc.a(_udivmodhi4.o)
                                                  /usr/lib/gcc/avr/4.8.2/avr51/libgcc.a(_divmodhi4.o)
                                                  ../../../src/net/bmac/rf231_soc/bmac.o
__udivmodsi4                                      /usr/lib/gcc/avr/4.8.2/avr51/libgcc.a(_udivmodsi4.o)
                                                  /usr/lib/gcc/avr/4.8.2/avr51/libgcc.a(_divmodsi4.o)
                                                  ../../../src/kernel/source/nrk_scheduler.o
                                                  ../../../src/kernel/source/nrk_time.o
                                                  ../../../src/drivers/platform/firefly3/source/ff_basic_sensor.o
                                                  ../../../src/net/bmac/rf231_soc/bmac.o
__ultoa_invert                                    /usr/lib/gcc/avr/4.8.2/../../../avr/lib/avr51/libc.a(ultoa_invert.o)
                                                  /usr/lib/gcc/avr/4.8.2/../../../avr/lib/avr51/libprintf_min.a(vfprintf_min.o)
__umoddi3                                         /usr/lib/gcc/avr/4.8.2/avr51/libgcc.a(_udivdi3.o)
__umulhisi3                                       /usr/lib/gcc/avr/4.8.2/avr51/libgcc.a(_umulhisi3.o)
                                                  /usr/lib/gcc/avr/4.8.2/avr51/libgcc.a(_muluhisi3.o)
__vector_1                                        ../../../src/kernel/hal/atmega128rfa1/nrk_ext_int.o
                                                  /usr/lib/gcc/avr/4.8.2/../../../avr/lib/avr51/crtm128rfa1.o
__vector_10                                       /usr/lib/gcc/avr/4.8.2/../../../avr/lib/avr51/crtm128rfa1.o
__vector_11                                       /usr/lib/gcc/avr/4.8.2/../../../avr/lib/avr51/crtm128rfa1.o
__vector_12                                       /usr/lib/gcc/avr/4.8.2/../../../avr/lib/avr51/crtm128rfa1.o
__vector_13                                       ../../../src/kernel/hal/atmega128rfa1/nrk_timer.o
                                                  /usr/lib/gcc/avr/4.8.2/../../../avr/lib/avr51/crtm128rfa1.o
__vector_14                                       /usr/lib/gcc/avr/4.8.2/../../../avr/lib/avr51/crtm128rfa1.o
__vector_15                                       ../../../src/kernel/hal/atmega128rfa1/nrk_timer.o
                                                  /usr/lib/gcc/avr/4.8.2/../../../avr/lib/avr51/crtm128rfa1.o
__vector_16                                       /usr/lib/gcc/avr/4.8.2/../../../avr/lib/avr51/crtm128rfa1.o
__vector_17                                       /usr/lib/gcc/avr/4.8.2/../../../avr/lib/avr51/crtm128rfa1.o
__vector_18                                       /usr/lib/gcc/avr/4.8.2/../../../avr/lib/avr51/crtm128rfa1.o
__vector_19                                       /usr/lib/gcc/avr/4.8.2/../../../avr/lib/avr51/crtm128rfa1.o
__vector_2                                        ../../../src/kernel/hal/atmega128rfa1/nrk_ext_int.o
                                                  /usr/lib/gcc/avr/4.8.2/../../../avr/lib/avr51/crtm128rfa1.o
__vector_20                                       /usr/lib/gcc/avr/4.8.2/../../../avr/lib/avr51/crtm128rfa1.o
__vector_21                                       /usr/lib/gcc/avr/4.8.2/../../../avr/lib/avr51/crtm128rfa1.o
__vector_22                                       /usr/lib/gcc/avr/4.8.2/../../../avr/lib/avr51/crtm128rfa1.o
__vector_23                                       /usr/lib/gcc/avr/4.8.2/../../../avr/lib/avr51/crtm128rfa1.o
__vector_24                                       /usr/lib/gcc/avr/4.8.2/../../../avr/lib/avr51/crtm128rfa1.o
__vector_25                                       ../../../src/platform/firefly3/source/ulib.o
                                                  /usr/lib/gcc/avr/4.8.2/../../../avr/lib/avr51/crtm128rfa1.o
__vector_26                                       /usr/lib/gcc/avr/4.8.2/../../../avr/lib/avr51/crtm128rfa1.o
__vector_27                                       /usr/lib/gcc/avr/4.8.2/../../../avr/lib/avr51/crtm128rfa1.o
__vector_28                                       /usr/lib/gcc/avr/4.8.2/../../../avr/lib/avr51/crtm128rfa1.o
__vector_29                                       /usr/lib/gcc/avr/4.8.2/../../../avr/lib/avr51/crtm128rfa1.o
__vector_3                                        ../../../src/kernel/hal/atmega128rfa1/nrk_ext_int.o
                                                  /usr/lib/gcc/avr/4.8.2/../../../avr/lib/avr51/crtm128rfa1.o
__vector_30                                       /usr/lib/gcc/avr/4.8.2/../../../avr/lib/avr51/crtm128rfa1.o
__vector_31                                       /usr/lib/gcc/avr/4.8.2/../../../avr/lib/avr51/crtm128rfa1.o
__vector_32                                       ../../../src/kernel/hal/atmega128rfa1/nrk_timer.o
                                                  /usr/lib/gcc/avr/4.8.2/../../../avr/lib/avr51/crtm128rfa1.o
__vector_33                                       /usr/lib/gcc/avr/4.8.2/../../../avr/lib/avr51/crtm128rfa1.o
__vector_34                                       /usr/lib/gcc/avr/4.8.2/../../../avr/lib/avr51/crtm128rfa1.o
__vector_35                                       /usr/lib/gcc/avr/4.8.2/../../../avr/lib/avr51/crtm128rfa1.o
__vector_36                                       /usr/lib/gcc/avr/4.8.2/../../../avr/lib/avr51/crtm128rfa1.o
__vector_37                                       /usr/lib/gcc/avr/4.8.2/../../../avr/lib/avr51/crtm128rfa1.o
__vector_38                                       /usr/lib/gcc/avr/4.8.2/../../../avr/lib/avr51/crtm128rfa1.o
__vector_39                                       /usr/lib/gcc/avr/4.8.2/../../../avr/lib/avr51/crtm128rfa1.o
__vector_4                                        /usr/lib/gcc/avr/4.8.2/../../../avr/lib/avr51/crtm128rfa1.o
__vector_40                                       /usr/lib/gcc/avr/4.8.2/../../../avr/lib/avr51/crtm128rfa1.o
__vector_41                                       /usr/lib/gcc/avr/4.8.2/../../../avr/lib/avr51/crtm128rfa1.o
__vector_42                                       /usr/lib/gcc/avr/4.8.2/../../../avr/lib/avr51/crtm128rfa1.o
__vector_43                                       /usr/lib/gcc/avr/4.8.2/../../../avr/lib/avr51/crtm128rfa1.o
__vector_44                                       /usr/lib/gcc/avr/4.8.2/../../../avr/lib/avr51/crtm128rfa1.o
__vector_45                                       /usr/lib/gcc/avr/4.8.2/../../../avr/lib/avr51/crtm128rfa1.o
__vector_46                                       /usr/lib/gcc/avr/4.8.2/../../../avr/lib/avr51/crtm128rfa1.o
__vector_47                                       /usr/lib/gcc/avr/4.8.2/../../../avr/lib/avr51/crtm128rfa1.o
__vector_48                                       /usr/lib/gcc/avr/4.8.2/../../../avr/lib/avr51/crtm128rfa1.o
__vector_49                                       /usr/lib/gcc/avr/4.8.2/../../../avr/lib/avr51/crtm128rfa1.o
__vector_5                                        /usr/lib/gcc/avr/4.8.2/../../../avr/lib/avr51/crtm128rfa1.o
__vector_50                                       /usr/lib/gcc/avr/4.8.2/../../../avr/lib/avr51/crtm128rfa1.o
__vector_51                                       /usr/lib/gcc/avr/4.8.2/../../../avr/lib/avr51/crtm128rfa1.o
__vector_52                                       /usr/lib/gcc/avr/4.8.2/../../../avr/lib/avr51/crtm128rfa1.o
__vector_53                                       /usr/lib/gcc/avr/4.8.2/../../../avr/lib/avr51/crtm128rfa1.o
__vector_54                                       /usr/lib/gcc/avr/4.8.2/../../../avr/lib/avr51/crtm128rfa1.o
__vector_55                                       /usr/lib/gcc/avr/4.8.2/../../../avr/lib/avr51/crtm128rfa1.o
__vector_56                                       /usr/lib/gcc/avr/4.8.2/../../../avr/lib/avr51/crtm128rfa1.o
__vector_57                                       ../../../src/radio/rf231_soc/source/basic_rf.o
                                                  /usr/lib/gcc/avr/4.8.2/../../../avr/lib/avr51/crtm128rfa1.o
__vector_58                                       ../../../src/radio/rf231_soc/source/basic_rf.o
                                                  /usr/lib/gcc/avr/4.8.2/../../../avr/lib/avr51/crtm128rfa1.o
__vector_59                                       ../../../src/radio/rf231_soc/source/basic_rf.o
                                                  /usr/lib/gcc/avr/4.8.2/../../../avr/lib/avr51/crtm128rfa1.o
__vector_6                                        /usr/lib/gcc/avr/4.8.2/../../../avr/lib/avr51/crtm128rfa1.o
__vector_60                                       ../../../src/radio/rf231_soc/source/basic_rf.o
                                                  /usr/lib/gcc/avr/4.8.2/../../../avr/lib/avr51/crtm128rfa1.o
__vector_61                                       ../../../src/radio/rf231_soc/source/basic_rf.o
                                                  /usr/lib/gcc/avr/4.8.2/../../../avr/lib/avr51/crtm128rfa1.o
__vector_62                                       ../../../src/radio/rf231_soc/source/basic_rf.o
                                                  /usr/lib/gcc/avr/4.8.2/../../../avr/lib/avr51/crtm128rfa1.o
__vector_63                                       ../../../src/radio/rf231_soc/source/basic_rf.o
                                                  /usr/lib/gcc/avr/4.8.2/../../../avr/lib/avr51/crtm128rfa1.o
__vector_64                                       ../../../src/radio/rf231_soc/source/basic_rf.o
                                                  /usr/lib/gcc/avr/4.8.2/../../../avr/lib/avr51/crtm128rfa1.o
__vector_65                                       /usr/lib/gcc/avr/4.8.2/../../../avr/lib/avr51/crtm128rfa1.o
__vector_66                                       /usr/lib/gcc/avr/4.8.2/../../../avr/lib/avr51/crtm128rfa1.o
__vector_67                                       /usr/lib/gcc/avr/4.8.2/../../../avr/lib/avr51/crtm128rfa1.o
__vector_68                                       /usr/lib/gcc/avr/4.8.2/../../../avr/lib/avr51/crtm128rfa1.o
__vector_69                                       /usr/lib/gcc/avr/4.8.2/../../../avr/lib/avr51/crtm128rfa1.o
__vector_7                                        /usr/lib/gcc/avr/4.8.2/../../../avr/lib/avr51/crtm128rfa1.o
__vector_70                                       /usr/lib/gcc/avr/4.8.2/../../../avr/lib/avr51/crtm128rfa1.o
__vector_71                                       /usr/lib/gcc/avr/4.8.2/../../../avr/lib/avr51/crtm128rfa1.o
__vector_8                                        /usr/lib/gcc/avr/4.8.2/../../../avr/lib/avr51/crtm128rfa1.o
__vector_9                                        ../../../src/kernel/hal/atmega128rfa1/nrk_ext_int.o
                                                  /usr/lib/gcc/avr/4.8.2/../../../avr/lib/avr51/crtm128rfa1.o
__vector_default                                  ../../../src/kernel/hal/atmega128rfa1/nrk_timer.o
                                                  /usr/lib/gcc/avr/4.8.2/../../../avr/lib/avr51/crtm128rfa1.o
__vectors                                         /usr/lib/gcc/avr/4.8.2/../../../avr/lib/avr51/crtm128rfa1.o
_b_pow                                            ../../../src/net/bmac/rf231_soc/bmac.o
_bmac_channel_check                               ../../../src/net/bmac/rf231_soc/bmac.o
_bmac_rx                                          ../../../src/net/bmac/rf231_soc/bmac.o
_bmac_tx                                          ../../../src/net/bmac/rf231_soc/bmac.o
_div                                              /usr/lib/gcc/avr/4.8.2/avr51/libgcc.a(_divmodhi4.o)
_exit                                             /usr/lib/gcc/avr/4.8.2/avr51/libgcc.a(_exit.o)
_free_node                                        ../../../src/kernel/hal/atmega128rfa1/nrk_cpu.o
                                                  ../../../src/kernel/source/nrk_scheduler.o
                                                  ../../../src/kernel/source/nrk_task.o
                                                  ../../../src/kernel/source/nrk_events.o
                                                  ../../../src/kernel/source/nrk_stats.o
                                                  ../../../src/kernel/source/nrk.o
_head_node                                        ../../../src/kernel/hal/atmega128rfa1/nrk_cpu.o
                                                  ../../../src/kernel/source/nrk_scheduler.o
                                                  ../../../src/kernel/source/nrk_task.o
                                                  ../../../src/kernel/source/nrk_events.o
                                                  ../../../src/kernel/source/nrk_stats.o
                                                  ../../../src/kernel/source/nrk.o
_nrk_cpu_state                                    ../../../src/kernel/source/nrk_driver.o
                                                  ../../../src/kernel/source/nrk_scheduler.o
                                                  ../../../src/kernel/source/nrk_idle_task.o
                                                  ../../../src/kernel/source/nrk_task.o
                                                  ../../../src/kernel/source/nrk_events.o
                                                  ../../../src/kernel/source/nrk.o
_nrk_driver_count                                 ../../../src/kernel/source/nrk_driver.o
_nrk_errno_set                                    ../../../src/kernel/source/nrk_error.o
                                                  ../../../src/kernel/source/nrk_driver.o
                                                  ../../../src/kernel/source/nrk_events.o
                                                  ../../../src/drivers/platform/firefly3/source/ff_basic_sensor.o
_nrk_get_next_wakeup                              ../../../src/kernel/hal/atmega128rfa1/nrk_timer.o
                                                  ../../../src/kernel/source/nrk_idle_task.o
                                                  ../../../src/kernel/source/nrk_task.o
_nrk_high_speed_timer_get                         ../../../src/kernel/hal/atmega128rfa1/nrk_timer.o
                                                  ../../../src/kernel/source/nrk_scheduler.o
_nrk_high_speed_timer_reset                       ../../../src/kernel/hal/atmega128rfa1/nrk_timer.o
                                                  ../../../src/kernel/source/nrk_scheduler.o
_nrk_high_speed_timer_start                       ../../../src/kernel/hal/atmega128rfa1/nrk_timer.o
_nrk_high_speed_timer_stop                        ../../../src/kernel/hal/atmega128rfa1/nrk_timer.o
_nrk_os_timer_get                                 ../../../src/kernel/hal/atmega128rfa1/nrk_timer.o
                                                  ../../../src/kernel/source/nrk_scheduler.o
                                                  ../../../src/kernel/source/nrk_time.o
                                                  ../../../src/kernel/source/nrk_task.o
_nrk_os_timer_reset                               ../../../src/kernel/hal/atmega128rfa1/nrk_timer.o
_nrk_os_timer_set                                 ../../../src/kernel/hal/atmega128rfa1/nrk_timer.o
_nrk_os_timer_start                               ../../../src/kernel/hal/atmega128rfa1/nrk_timer.o
_nrk_os_timer_stop                                ../../../src/kernel/hal/atmega128rfa1/nrk_timer.o
_nrk_precision_os_timer_get                       ../../../src/kernel/hal/atmega128rfa1/nrk_timer.o
_nrk_precision_os_timer_reset                     ../../../src/kernel/hal/atmega128rfa1/nrk_timer.o
                                                  ../../../src/kernel/source/nrk_scheduler.o
_nrk_precision_os_timer_start                     ../../../src/kernel/hal/atmega128rfa1/nrk_timer.o
_nrk_precision_os_timer_stop                      ../../../src/kernel/hal/atmega128rfa1/nrk_timer.o
_nrk_prev_timer_val                               ../../../src/kernel/hal/atmega128rfa1/nrk_cpu.o
                                                  ../../../src/kernel/hal/atmega128rfa1/nrk_timer.o
                                                  ../../../src/kernel/source/nrk_driver.o
                                                  ../../../src/kernel/source/nrk_scheduler.o
                                                  ../../../src/kernel/source/nrk_idle_task.o
                                                  ../../../src/kernel/source/nrk_time.o
                                                  ../../../src/kernel/source/nrk_task.o
                                                  ../../../src/kernel/source/nrk_events.o
                                                  ../../../src/kernel/source/nrk_error.o
                                                  ../../../src/radio/rf231_soc/source/basic_rf.o
                                                  ../../../src/drivers/platform/firefly3/source/twi_base_calls.o
                                                  ../../../src/drivers/platform/firefly3/source/ff_basic_sensor.o
                                                  ../../../src/net/bmac/rf231_soc/bmac.o
_nrk_readyQ                                       ../../../src/kernel/hal/atmega128rfa1/nrk_cpu.o
                                                  ../../../src/kernel/source/nrk_scheduler.o
                                                  ../../../src/kernel/source/nrk_events.o
                                                  ../../../src/kernel/source/nrk_stats.o
                                                  ../../../src/kernel/source/nrk.o
_nrk_resource_cnt                                 ../../../src/kernel/hal/atmega128rfa1/nrk_cpu.o
                                                  ../../../src/kernel/source/nrk_scheduler.o
                                                  ../../../src/kernel/source/nrk_events.o
                                                  ../../../src/kernel/source/nrk_stats.o
                                                  ../../../src/kernel/source/nrk.o
_nrk_scheduler                                    ../../../src/kernel/source/nrk_scheduler.o
                                                  ../../../src/kernel/source/nrk.o
_nrk_set_next_wakeup                              ../../../src/kernel/hal/atmega128rfa1/nrk_timer.o
                                                  ../../../src/kernel/source/nrk_scheduler.o
                                                  ../../../src/kernel/source/nrk_task.o
_nrk_setup_timer                                  ../../../src/kernel/hal/atmega128rfa1/nrk_timer.o
                                                  ../../../src/kernel/hal/atmega128rfa1/nrk_cpu.o
_nrk_signal_list                                  ../../../src/kernel/hal/atmega128rfa1/nrk_cpu.o
                                                  ../../../src/kernel/hal/atmega128rfa1/nrk_watchdog.o
                                                  ../../../src/kernel/hal/atmega128rfa1/nrk_ext_int.o
                                                  ../../../src/kernel/hal/atmega128rfa1/nrk_status.o
                                                  ../../../src/kernel/hal/atmega128rfa1/nrk_timer.o
                                                  ../../../src/kernel/source/nrk_sw_wdt.o
                                                  ../../../src/kernel/source/nrk_driver.o
                                                  ../../../src/kernel/source/nrk_scheduler.o
                                                  ../../../src/kernel/source/nrk_idle_task.o
                                                  ../../../src/kernel/source/nrk_time.o
                                                  ../../../src/kernel/source/nrk_task.o
                                                  ../../../src/kernel/source/nrk_events.o
                                                  ../../../src/kernel/source/nrk_stack_check.o
                                                  ../../../src/kernel/source/nrk_error.o
                                                  ../../../src/kernel/source/nrk_stats.o
                                                  ../../../src/kernel/source/nrk.o
                                                  ../../../src/platform/firefly3/source/nrk_eeprom.o
                                                  ../../../src/platform/firefly3/source/ulib.o
                                                  ../../../src/radio/rf231_soc/source/basic_rf.o
                                                  ../../../src/drivers/platform/firefly3/source/twi_base_calls.o
                                                  ../../../src/drivers/platform/firefly3/source/ff_basic_sensor.o
                                                  ../../../src/net/bmac/rf231_soc/bmac.o
                                                  main.o
_nrk_startup_error                                ../../../src/kernel/hal/atmega128rfa1/nrk_status.o
                                                  ../../../src/kernel/source/nrk.o
_nrk_ticks_to_time                                ../../../src/kernel/source/nrk_time.o
_nrk_time_to_ticks                                ../../../src/kernel/source/nrk_time.o
                                                  ../../../src/net/bmac/rf231_soc/bmac.o
_nrk_time_to_ticks_long                           ../../../src/kernel/source/nrk_time.o
                                                  ../../../src/kernel/source/nrk_task.o
                                                  ../../../src/kernel/source/nrk.o
_nrk_time_trigger                                 ../../../src/kernel/hal/atmega128rfa1/nrk_cpu.o
                                                  ../../../src/kernel/hal/atmega128rfa1/nrk_timer.o
                                                  ../../../src/kernel/source/nrk_driver.o
                                                  ../../../src/kernel/source/nrk_scheduler.o
                                                  ../../../src/kernel/source/nrk_idle_task.o
                                                  ../../../src/kernel/source/nrk_time.o
                                                  ../../../src/kernel/source/nrk_task.o
                                                  ../../../src/kernel/source/nrk_events.o
                                                  ../../../src/kernel/source/nrk_error.o
                                                  ../../../src/radio/rf231_soc/source/basic_rf.o
                                                  ../../../src/drivers/platform/firefly3/source/twi_base_calls.o
                                                  ../../../src/drivers/platform/firefly3/source/ff_basic_sensor.o
                                                  ../../../src/net/bmac/rf231_soc/bmac.o
_nrk_timer_tick                                   ../../../src/kernel/source/nrk.o
                                                  ../../../src/kernel/hal/atmega128rfa1/nrk_cpu.o
_nrk_wait_for_scheduler                           ../../../src/kernel/source/nrk_task.o
aes_decrypt                                       ../../../src/radio/rf231_soc/source/basic_rf.o
aes_encrypt                                       ../../../src/radio/rf231_soc/source/basic_rf.o
aes_setkey                                        ../../../src/radio/rf231_soc/source/basic_rf.o
app_timer0_callback                               ../../../src/kernel/hal/atmega128rfa1/nrk_cpu.o
                                                  ../../../src/kernel/hal/atmega128rfa1/nrk_timer.o
                                                  ../../../src/kernel/source/nrk_driver.o
                                                  ../../../src/kernel/source/nrk_scheduler.o
                                                  ../../../src/kernel/source/nrk_idle_task.o
                                                  ../../../src/kernel/source/nrk_time.o
                                                  ../../../src/kernel/source/nrk_task.o
                                                  ../../../src/kernel/source/nrk_events.o
                                                  ../../../src/kernel/source/nrk_error.o
                                                  ../../../src/radio/rf231_soc/source/basic_rf.o
                                                  ../../../src/drivers/platform/firefly3/source/twi_base_calls.o
                                                  ../../../src/drivers/platform/firefly3/source/ff_basic_sensor.o
                                                  ../../../src/net/bmac/rf231_soc/bmac.o
app_timer0_prescale                               ../../../src/kernel/hal/atmega128rfa1/nrk_cpu.o
                                                  ../../../src/kernel/hal/atmega128rfa1/nrk_timer.o
                                                  ../../../src/kernel/source/nrk_driver.o
                                                  ../../../src/kernel/source/nrk_scheduler.o
                                                  ../../../src/kernel/source/nrk_idle_task.o
                                                  ../../../src/kernel/source/nrk_time.o
                                                  ../../../src/kernel/source/nrk_task.o
                                                  ../../../src/kernel/source/nrk_events.o
                                                  ../../../src/kernel/source/nrk_error.o
                                                  ../../../src/radio/rf231_soc/source/basic_rf.o
                                                  ../../../src/drivers/platform/firefly3/source/twi_base_calls.o
                                                  ../../../src/drivers/platform/firefly3/source/ff_basic_sensor.o
                                                  ../../../src/net/bmac/rf231_soc/bmac.o
b_packet                                          main.o
blink_dash                                        ../../../src/kernel/source/nrk_error.o
blink_dot                                         ../../../src/kernel/source/nrk_error.o
blink_morse_code_error                            ../../../src/kernel/source/nrk_error.o
bmac_addr_decode_dest_mac                         ../../../src/net/bmac/rf231_soc/bmac.o
bmac_addr_decode_disable                          ../../../src/net/bmac/rf231_soc/bmac.o
bmac_addr_decode_enable                           ../../../src/net/bmac/rf231_soc/bmac.o
bmac_addr_decode_set_my_mac                       ../../../src/net/bmac/rf231_soc/bmac.o
bmac_auto_ack_disable                             ../../../src/net/bmac/rf231_soc/bmac.o
bmac_auto_ack_enable                              ../../../src/net/bmac/rf231_soc/bmac.o
bmac_disable                                      ../../../src/net/bmac/rf231_soc/bmac.o
bmac_enable                                       ../../../src/net/bmac/rf231_soc/bmac.o
bmac_enable_signal                                ../../../src/net/bmac/rf231_soc/bmac.o
                                                  main.o
bmac_encryption_disable                           ../../../src/net/bmac/rf231_soc/bmac.o
bmac_encryption_enable                            ../../../src/net/bmac/rf231_soc/bmac.o
bmac_encryption_set_ctr_counter                   ../../../src/net/bmac/rf231_soc/bmac.o
bmac_encryption_set_key                           ../../../src/net/bmac/rf231_soc/bmac.o
bmac_get_rx_pkt_signal                            ../../../src/net/bmac/rf231_soc/bmac.o
bmac_get_tx_done_signal                           ../../../src/net/bmac/rf231_soc/bmac.o
                                                  main.o
bmac_init                                         ../../../src/net/bmac/rf231_soc/bmac.o
                                                  main.o
bmac_nw_task                                      ../../../src/net/bmac/rf231_soc/bmac.o
bmac_rfRxInfo                                     ../../../src/net/bmac/rf231_soc/bmac.o
                                                  main.o
bmac_rfTxInfo                                     ../../../src/net/bmac/rf231_soc/bmac.o
                                                  main.o
bmac_rx_failure_count_get                         ../../../src/net/bmac/rf231_soc/bmac.o
bmac_rx_failure_count_reset                       ../../../src/net/bmac/rf231_soc/bmac.o
bmac_rx_pkt_get                                   ../../../src/net/bmac/rf231_soc/bmac.o
                                                  main.o
bmac_rx_pkt_is_encrypted                          ../../../src/net/bmac/rf231_soc/bmac.o
bmac_rx_pkt_ready                                 ../../../src/net/bmac/rf231_soc/bmac.o
bmac_rx_pkt_release                               ../../../src/net/bmac/rf231_soc/bmac.o
                                                  main.o
bmac_rx_pkt_set_buffer                            ../../../src/net/bmac/rf231_soc/bmac.o
                                                  main.o
bmac_rx_pkt_signal                                ../../../src/net/bmac/rf231_soc/bmac.o
                                                  main.o
bmac_set_cca_active                               ../../../src/net/bmac/rf231_soc/bmac.o
bmac_set_cca_thresh                               ../../../src/net/bmac/rf231_soc/bmac.o
bmac_set_channel                                  ../../../src/net/bmac/rf231_soc/bmac.o
bmac_set_rf_power                                 ../../../src/net/bmac/rf231_soc/bmac.o
bmac_set_rx_check_rate                            ../../../src/net/bmac/rf231_soc/bmac.o
bmac_started                                      ../../../src/net/bmac/rf231_soc/bmac.o
                                                  main.o
bmac_task_config                                  ../../../src/net/bmac/rf231_soc/bmac.o
                                                  main.o
bmac_tx_pkt                                       ../../../src/net/bmac/rf231_soc/bmac.o
bmac_tx_pkt_done_signal                           ../../../src/net/bmac/rf231_soc/bmac.o
                                                  main.o
bmac_tx_pkt_nonblocking                           ../../../src/net/bmac/rf231_soc/bmac.o
                                                  main.o
bmac_tx_reserve_get                               ../../../src/net/bmac/rf231_soc/bmac.o
bmac_tx_reserve_set                               ../../../src/net/bmac/rf231_soc/bmac.o
bmac_wait_until_rx_pkt                            ../../../src/net/bmac/rf231_soc/bmac.o
                                                  main.o
calc_press                                        ../../../src/drivers/platform/firefly3/source/ff_basic_sensor.o
calc_temp                                         ../../../src/drivers/platform/firefly3/source/ff_basic_sensor.o
calc_true_press                                   ../../../src/drivers/platform/firefly3/source/ff_basic_sensor.o
calc_true_temp                                    ../../../src/drivers/platform/firefly3/source/ff_basic_sensor.o
calloc                                            /usr/lib/gcc/avr/4.8.2/../../../avr/lib/avr51/libc.a(calloc.o)
                                                  /usr/lib/gcc/avr/4.8.2/../../../avr/lib/avr51/libc.a(fdevopen.o)
channel                                           ../../../src/drivers/platform/firefly3/source/ff_basic_sensor.o
close                                             ../../../src/drivers/platform/firefly3/source/ff_basic_sensor.o
close_i2c                                         ../../../src/drivers/platform/firefly3/source/twi_base_calls.o
                                                  ../../../src/drivers/platform/firefly3/source/ff_basic_sensor.o
curr_t                                            ../../../src/radio/rf231_soc/source/basic_rf.o
curr_time                                         main.o
delay                                             ../../../src/drivers/platform/firefly3/source/ff_basic_sensor.o
dev_manager_ff3_sensors                           ../../../src/drivers/platform/firefly3/source/ff_basic_sensor.o
                                                  main.o
dkey                                              ../../../src/radio/rf231_soc/source/basic_rf.o
dummy_t                                           ../../../src/radio/rf231_soc/source/basic_rf.o
dump_stack_info                                   ../../../src/kernel/source/nrk_stack_check.o
ee24xx_read_bytes                                 ../../../src/drivers/platform/firefly3/source/twi_base_calls.o
                                                  ../../../src/drivers/platform/firefly3/source/ff_basic_sensor.o
ee24xx_write_bytes                                ../../../src/drivers/platform/firefly3/source/twi_base_calls.o
                                                  ../../../src/drivers/platform/firefly3/source/ff_basic_sensor.o
ee24xx_write_page                                 ../../../src/drivers/platform/firefly3/source/twi_base_calls.o
eeprom_values                                     ../../../src/drivers/platform/firefly3/source/ff_basic_sensor.o
ekey                                              ../../../src/radio/rf231_soc/source/basic_rf.o
error                                             ../../../src/drivers/platform/firefly3/source/twi_base_calls.o
error_num                                         ../../../src/kernel/hal/atmega128rfa1/nrk_cpu.o
                                                  ../../../src/kernel/hal/atmega128rfa1/nrk_watchdog.o
                                                  ../../../src/kernel/hal/atmega128rfa1/nrk_ext_int.o
                                                  ../../../src/kernel/hal/atmega128rfa1/nrk_status.o
                                                  ../../../src/kernel/hal/atmega128rfa1/nrk_timer.o
                                                  ../../../src/kernel/source/nrk_sw_wdt.o
                                                  ../../../src/kernel/source/nrk_driver.o
                                                  ../../../src/kernel/source/nrk_scheduler.o
                                                  ../../../src/kernel/source/nrk_idle_task.o
                                                  ../../../src/kernel/source/nrk_time.o
                                                  ../../../src/kernel/source/nrk_task.o
                                                  ../../../src/kernel/source/nrk_events.o
                                                  ../../../src/kernel/source/nrk_stack_check.o
                                                  ../../../src/kernel/source/nrk_error.o
                                                  ../../../src/kernel/source/nrk_stats.o
                                                  ../../../src/kernel/source/nrk.o
                                                  ../../../src/platform/firefly3/source/nrk_eeprom.o
                                                  ../../../src/platform/firefly3/source/ulib.o
                                                  ../../../src/radio/rf231_soc/source/basic_rf.o
                                                  ../../../src/drivers/platform/firefly3/source/twi_base_calls.o
                                                  ../../../src/drivers/platform/firefly3/source/ff_basic_sensor.o
                                                  ../../../src/net/bmac/rf231_soc/bmac.o
                                                  main.o
error_task                                        ../../../src/kernel/hal/atmega128rfa1/nrk_cpu.o
                                                  ../../../src/kernel/hal/atmega128rfa1/nrk_watchdog.o
                                                  ../../../src/kernel/hal/atmega128rfa1/nrk_ext_int.o
                                                  ../../../src/kernel/hal/atmega128rfa1/nrk_status.o
                                                  ../../../src/kernel/hal/atmega128rfa1/nrk_timer.o
                                                  ../../../src/kernel/source/nrk_sw_wdt.o
                                                  ../../../src/kernel/source/nrk_driver.o
                                                  ../../../src/kernel/source/nrk_scheduler.o
                                                  ../../../src/kernel/source/nrk_idle_task.o
                                                  ../../../src/kernel/source/nrk_time.o
                                                  ../../../src/kernel/source/nrk_task.o
                                                  ../../../src/kernel/source/nrk_events.o
                                                  ../../../src/kernel/source/nrk_stack_check.o
                                                  ../../../src/kernel/source/nrk_error.o
                                                  ../../../src/kernel/source/nrk_stats.o
                                                  ../../../src/kernel/source/nrk.o
                                                  ../../../src/platform/firefly3/source/nrk_eeprom.o
                                                  ../../../src/platform/firefly3/source/ulib.o
                                                  ../../../src/radio/rf231_soc/source/basic_rf.o
                                                  ../../../src/drivers/platform/firefly3/source/twi_base_calls.o
                                                  ../../../src/drivers/platform/firefly3/source/ff_basic_sensor.o
                                                  ../../../src/net/bmac/rf231_soc/bmac.o
                                                  main.o
exit                                              /usr/lib/gcc/avr/4.8.2/avr51/libgcc.a(_exit.o)
                                                  /usr/lib/gcc/avr/4.8.2/../../../avr/lib/avr51/crtm128rfa1.o
ext_int0_callback                                 ../../../src/kernel/hal/atmega128rfa1/nrk_ext_int.o
ext_int1_callback                                 ../../../src/kernel/hal/atmega128rfa1/nrk_ext_int.o
ext_int2_callback                                 ../../../src/kernel/hal/atmega128rfa1/nrk_ext_int.o
fdevopen                                          /usr/lib/gcc/avr/4.8.2/../../../avr/lib/avr51/libc.a(fdevopen.o)
                                                  ../../../src/platform/firefly3/source/ulib.o
fputc                                             /usr/lib/gcc/avr/4.8.2/../../../avr/lib/avr51/libc.a(fputc.o)
                                                  /usr/lib/gcc/avr/4.8.2/../../../avr/lib/avr51/libc.a(putchar.o)
                                                  /usr/lib/gcc/avr/4.8.2/../../../avr/lib/avr51/libprintf_min.a(vfprintf_min.o)
                                                  ../../../src/kernel/source/nrk_error.o
                                                  ../../../src/platform/firefly3/source/ulib.o
free                                              /usr/lib/gcc/avr/4.8.2/../../../avr/lib/avr51/libc.a(malloc.o)
get_adc_val                                       ../../../src/drivers/platform/firefly3/source/ff_basic_sensor.o
get_eeprom_values                                 ../../../src/drivers/platform/firefly3/source/ff_basic_sensor.o
get_status                                        ../../../src/drivers/platform/firefly3/source/ff_basic_sensor.o
getc0                                             ../../../src/platform/firefly3/source/ulib.o
getc1                                             ../../../src/platform/firefly3/source/ulib.o
h_cnt                                             ../../../src/drivers/platform/firefly3/source/ff_basic_sensor.o
halWait                                           ../../../src/platform/firefly3/source/hal_wait.o
i2c_address                                       ../../../src/drivers/platform/firefly3/source/twi_base_calls.o
init                                              ../../../src/drivers/platform/firefly3/source/ff_basic_sensor.o
init_adc                                          ../../../src/drivers/platform/firefly3/source/ff_basic_sensor.o
init_i2c                                          ../../../src/drivers/platform/firefly3/source/twi_base_calls.o
                                                  ../../../src/drivers/platform/firefly3/source/ff_basic_sensor.o
init_node                                         main.o
is_open                                           ../../../src/drivers/platform/firefly3/source/ff_basic_sensor.o
main                                              main.o
                                                  /usr/lib/gcc/avr/4.8.2/../../../avr/lib/avr51/crtm128rfa1.o
malloc                                            /usr/lib/gcc/avr/4.8.2/../../../avr/lib/avr51/libc.a(malloc.o)
                                                  /usr/lib/gcc/avr/4.8.2/../../../avr/lib/avr51/libc.a(calloc.o)
mdmctrl0                                          ../../../src/radio/rf231_soc/source/basic_rf.o
memcpy                                            /usr/lib/gcc/avr/4.8.2/../../../avr/lib/avr51/libc.a(memcpy.o)
                                                  ../../../src/radio/rf231_soc/source/basic_rf.o
memset                                            /usr/lib/gcc/avr/4.8.2/../../../avr/lib/avr51/libc.a(memset.o)
                                                  /usr/lib/gcc/avr/4.8.2/../../../avr/lib/avr51/libc.a(calloc.o)
next_next_wakeup                                  ../../../src/kernel/source/nrk_driver.o
                                                  ../../../src/kernel/source/nrk_scheduler.o
                                                  ../../../src/kernel/source/nrk_idle_task.o
                                                  ../../../src/kernel/source/nrk_task.o
                                                  ../../../src/kernel/source/nrk_events.o
                                                  ../../../src/kernel/source/nrk.o
nrk_TCB_init                                      ../../../src/kernel/source/nrk.o
                                                  ../../../src/kernel/source/nrk_task.o
nrk_activate_task                                 ../../../src/kernel/source/nrk_task.o
                                                  ../../../src/kernel/source/nrk.o
                                                  ../../../src/net/bmac/rf231_soc/bmac.o
                                                  main.o
nrk_add_to_readyQ                                 ../../../src/kernel/source/nrk_task.o
                                                  ../../../src/kernel/source/nrk_scheduler.o
nrk_battery_save                                  ../../../src/kernel/hal/atmega128rfa1/nrk_cpu.o
nrk_close                                         ../../../src/kernel/source/nrk_driver.o
nrk_create_taskset                                main.o
nrk_cur_task_TCB                                  ../../../src/kernel/hal/atmega128rfa1/nrk_cpu.o
                                                  ../../../src/kernel/hal/atmega128rfa1/nrk_timer.o
                                                  ../../../src/kernel/source/nrk_scheduler.o
                                                  ../../../src/kernel/source/nrk_task.o
                                                  ../../../src/kernel/source/nrk_events.o
                                                  ../../../src/kernel/source/nrk_stack_check.o
                                                  ../../../src/kernel/source/nrk_error.o
                                                  ../../../src/kernel/source/nrk_stats.o
                                                  ../../../src/kernel/source/nrk.o
                                                  ../../../src/net/bmac/rf231_soc/bmac.o
nrk_cur_task_prio                                 ../../../src/kernel/hal/atmega128rfa1/nrk_cpu.o
                                                  ../../../src/kernel/source/nrk_scheduler.o
                                                  ../../../src/kernel/source/nrk_events.o
                                                  ../../../src/kernel/source/nrk_stats.o
                                                  ../../../src/kernel/source/nrk.o
nrk_driver_init                                   ../../../src/kernel/source/nrk_driver.o
nrk_drivers                                       ../../../src/kernel/source/nrk_driver.o
nrk_eeprom_read_byte                              ../../../src/platform/firefly3/source/nrk_eeprom.o
nrk_eeprom_write_byte                             ../../../src/platform/firefly3/source/nrk_eeprom.o
nrk_errno_get                                     ../../../src/kernel/source/nrk_error.o
nrk_error_add                                     ../../../src/kernel/source/nrk_error.o
                                                  ../../../src/kernel/hal/atmega128rfa1/nrk_cpu.o
                                                  ../../../src/kernel/source/nrk_idle_task.o
                                                  ../../../src/kernel/source/nrk_stack_check.o
                                                  ../../../src/platform/firefly3/source/ulib.o
nrk_error_get                                     ../../../src/kernel/source/nrk_error.o
nrk_error_print                                   ../../../src/kernel/source/nrk_error.o
nrk_event_signal                                  ../../../src/kernel/source/nrk_events.o
                                                  ../../../src/platform/firefly3/source/ulib.o
                                                  ../../../src/net/bmac/rf231_soc/bmac.o
nrk_event_wait                                    ../../../src/kernel/source/nrk_events.o
                                                  ../../../src/platform/firefly3/source/ulib.o
                                                  ../../../src/net/bmac/rf231_soc/bmac.o
                                                  main.o
nrk_ext_int_configure                             ../../../src/kernel/hal/atmega128rfa1/nrk_ext_int.o
nrk_ext_int_disable                               ../../../src/kernel/hal/atmega128rfa1/nrk_ext_int.o
nrk_ext_int_enable                                ../../../src/kernel/hal/atmega128rfa1/nrk_ext_int.o
nrk_get_button                                    ../../../src/platform/firefly3/source/ulib.o
nrk_get_high_ready_task_ID                        ../../../src/kernel/source/nrk_task.o
                                                  ../../../src/kernel/source/nrk_scheduler.o
                                                  ../../../src/kernel/source/nrk.o
nrk_get_pid                                       ../../../src/kernel/source/nrk_task.o
                                                  main.o
nrk_get_resource_index                            ../../../src/kernel/source/nrk_events.o
nrk_get_status                                    ../../../src/kernel/source/nrk_driver.o
nrk_gpio_clr                                      ../../../src/platform/firefly3/source/ulib.o
                                                  ../../../src/drivers/platform/firefly3/source/ff_basic_sensor.o
nrk_gpio_direction                                ../../../src/platform/firefly3/source/ulib.o
                                                  ../../../src/drivers/platform/firefly3/source/ff_basic_sensor.o
nrk_gpio_get                                      ../../../src/platform/firefly3/source/ulib.o
                                                  ../../../src/drivers/platform/firefly3/source/ff_basic_sensor.o
nrk_gpio_pullups                                  ../../../src/platform/firefly3/source/ulib.o
                                                  ../../../src/drivers/platform/firefly3/source/ff_basic_sensor.o
nrk_gpio_set                                      ../../../src/platform/firefly3/source/ulib.o
                                                  ../../../src/drivers/platform/firefly3/source/ff_basic_sensor.o
nrk_gpio_toggle                                   ../../../src/platform/firefly3/source/ulib.o
nrk_halt                                          ../../../src/kernel/source/nrk.o
nrk_high_ready_TCB                                ../../../src/kernel/hal/atmega128rfa1/atmel_hw_specific.o
                                                  ../../../src/kernel/hal/atmega128rfa1/nrk_cpu.o
                                                  ../../../src/kernel/source/nrk_scheduler.o
                                                  ../../../src/kernel/source/nrk_events.o
                                                  ../../../src/kernel/source/nrk_stats.o
                                                  ../../../src/kernel/source/nrk.o
nrk_high_ready_prio                               ../../../src/kernel/hal/atmega128rfa1/nrk_cpu.o
                                                  ../../../src/kernel/source/nrk_scheduler.o
                                                  ../../../src/kernel/source/nrk_events.o
                                                  ../../../src/kernel/source/nrk_stats.o
                                                  ../../../src/kernel/source/nrk.o
nrk_high_speed_timer_wait                         ../../../src/kernel/hal/atmega128rfa1/nrk_timer.o
                                                  ../../../src/kernel/source/nrk_scheduler.o
nrk_idle                                          ../../../src/kernel/hal/atmega128rfa1/nrk_cpu.o
                                                  ../../../src/kernel/source/nrk_idle_task.o
                                                  ../../../src/kernel/source/nrk_task.o
nrk_idle_task                                     ../../../src/kernel/source/nrk_idle_task.o
                                                  ../../../src/kernel/source/nrk.o
nrk_idle_task_stk                                 ../../../src/kernel/hal/atmega128rfa1/nrk_cpu.o
                                                  ../../../src/kernel/hal/atmega128rfa1/nrk_watchdog.o
                                                  ../../../src/kernel/hal/atmega128rfa1/nrk_timer.o
                                                  ../../../src/kernel/source/nrk_sw_wdt.o
                                                  ../../../src/kernel/source/nrk_driver.o
                                                  ../../../src/kernel/source/nrk_scheduler.o
                                                  ../../../src/kernel/source/nrk_idle_task.o
                                                  ../../../src/kernel/source/nrk_time.o
                                                  ../../../src/kernel/source/nrk_task.o
                                                  ../../../src/kernel/source/nrk_events.o
                                                  ../../../src/kernel/source/nrk_stack_check.o
                                                  ../../../src/kernel/source/nrk_error.o
                                                  ../../../src/kernel/source/nrk_stats.o
                                                  ../../../src/kernel/source/nrk.o
                                                  ../../../src/radio/rf231_soc/source/basic_rf.o
                                                  ../../../src/drivers/platform/firefly3/source/twi_base_calls.o
                                                  ../../../src/drivers/platform/firefly3/source/ff_basic_sensor.o
                                                  ../../../src/net/bmac/rf231_soc/bmac.o
                                                  main.o
nrk_init                                          ../../../src/kernel/source/nrk.o
                                                  main.o
nrk_int_disable                                   ../../../src/kernel/source/nrk.o
                                                  ../../../src/kernel/hal/atmega128rfa1/nrk_watchdog.o
                                                  ../../../src/kernel/source/nrk_task.o
                                                  ../../../src/kernel/source/nrk_events.o
                                                  ../../../src/kernel/source/nrk_error.o
                                                  ../../../src/platform/firefly3/source/ulib.o
                                                  ../../../src/radio/rf231_soc/source/basic_rf.o
nrk_int_enable                                    ../../../src/kernel/source/nrk.o
                                                  ../../../src/kernel/hal/atmega128rfa1/nrk_cpu.o
                                                  ../../../src/kernel/hal/atmega128rfa1/nrk_watchdog.o
                                                  ../../../src/kernel/source/nrk_scheduler.o
                                                  ../../../src/kernel/source/nrk_task.o
                                                  ../../../src/kernel/source/nrk_events.o
                                                  ../../../src/platform/firefly3/source/ulib.o
                                                  ../../../src/radio/rf231_soc/source/basic_rf.o
nrk_kernel_error_add                              ../../../src/kernel/source/nrk_error.o
                                                  ../../../src/kernel/hal/atmega128rfa1/nrk_ext_int.o
                                                  ../../../src/kernel/hal/atmega128rfa1/nrk_timer.o
                                                  ../../../src/kernel/source/nrk_scheduler.o
                                                  ../../../src/kernel/source/nrk.o
                                                  ../../../src/drivers/platform/firefly3/source/ff_basic_sensor.o
                                                  ../../../src/net/bmac/rf231_soc/bmac.o
nrk_kernel_stk_ptr                                ../../../src/kernel/hal/atmega128rfa1/nrk_cpu.o
                                                  ../../../src/kernel/hal/atmega128rfa1/nrk_watchdog.o
                                                  ../../../src/kernel/hal/atmega128rfa1/nrk_timer.o
                                                  ../../../src/kernel/source/nrk_sw_wdt.o
                                                  ../../../src/kernel/source/nrk_driver.o
                                                  ../../../src/kernel/source/nrk_scheduler.o
                                                  ../../../src/kernel/source/nrk_idle_task.o
                                                  ../../../src/kernel/source/nrk_time.o
                                                  ../../../src/kernel/source/nrk_task.o
                                                  ../../../src/kernel/source/nrk_events.o
                                                  ../../../src/kernel/source/nrk_stack_check.o
                                                  ../../../src/kernel/source/nrk_error.o
                                                  ../../../src/kernel/source/nrk_stats.o
                                                  ../../../src/kernel/source/nrk.o
                                                  ../../../src/radio/rf231_soc/source/basic_rf.o
                                                  ../../../src/drivers/platform/firefly3/source/twi_base_calls.o
                                                  ../../../src/drivers/platform/firefly3/source/ff_basic_sensor.o
                                                  ../../../src/net/bmac/rf231_soc/bmac.o
                                                  main.o
nrk_kprintf                                       ../../../src/platform/firefly3/source/ulib.o
                                                  ../../../src/kernel/source/nrk_stack_check.o
                                                  ../../../src/kernel/source/nrk_error.o
                                                  ../../../src/net/bmac/rf231_soc/bmac.o
                                                  main.o
nrk_led_clr                                       ../../../src/platform/firefly3/source/ulib.o
                                                  ../../../src/kernel/source/nrk_error.o
                                                  main.o
nrk_led_set                                       ../../../src/platform/firefly3/source/ulib.o
                                                  ../../../src/kernel/source/nrk_error.o
                                                  main.o
nrk_led_toggle                                    ../../../src/platform/firefly3/source/ulib.o
nrk_open                                          ../../../src/kernel/source/nrk_driver.o
                                                  main.o
nrk_print_readyQ                                  ../../../src/kernel/source/nrk_task.o
nrk_read                                          ../../../src/kernel/source/nrk_driver.o
                                                  main.o
nrk_register_driver                               ../../../src/kernel/source/nrk_driver.o
                                                  main.o
nrk_register_drivers                              main.o
nrk_rem_from_readyQ                               ../../../src/kernel/source/nrk_task.o
                                                  ../../../src/kernel/source/nrk_scheduler.o
nrk_sem_create                                    ../../../src/kernel/source/nrk_events.o
nrk_sem_delete                                    ../../../src/kernel/source/nrk_events.o
nrk_sem_list                                      ../../../src/kernel/hal/atmega128rfa1/nrk_cpu.o
                                                  ../../../src/kernel/source/nrk_scheduler.o
                                                  ../../../src/kernel/source/nrk_events.o
                                                  ../../../src/kernel/source/nrk_stats.o
                                                  ../../../src/kernel/source/nrk.o
nrk_sem_pend                                      ../../../src/kernel/source/nrk_events.o
nrk_sem_post                                      ../../../src/kernel/source/nrk_events.o
nrk_sem_query                                     ../../../src/kernel/source/nrk_events.o
nrk_set_next_wakeup                               ../../../src/kernel/source/nrk_task.o
nrk_set_status                                    ../../../src/kernel/source/nrk_driver.o
                                                  main.o
nrk_setup_ports                                   ../../../src/platform/firefly3/source/ulib.o
                                                  main.o
nrk_setup_uart                                    ../../../src/platform/firefly3/source/ulib.o
                                                  main.o
nrk_signal_create                                 ../../../src/kernel/source/nrk_events.o
                                                  ../../../src/kernel/source/nrk.o
                                                  ../../../src/platform/firefly3/source/ulib.o
                                                  ../../../src/net/bmac/rf231_soc/bmac.o
nrk_signal_delete                                 ../../../src/kernel/source/nrk_events.o
nrk_signal_get_registered_mask                    ../../../src/kernel/source/nrk_events.o
nrk_signal_register                               ../../../src/kernel/source/nrk_events.o
                                                  ../../../src/platform/firefly3/source/ulib.o
                                                  ../../../src/net/bmac/rf231_soc/bmac.o
                                                  main.o
nrk_signal_unregister                             ../../../src/kernel/source/nrk_events.o
nrk_sleep                                         ../../../src/kernel/hal/atmega128rfa1/nrk_cpu.o
                                                  ../../../src/kernel/source/nrk_idle_task.o
nrk_spin_wait_us                                  ../../../src/kernel/hal/atmega128rfa1/nrk_timer.o
                                                  ../../../src/kernel/source/nrk_idle_task.o
                                                  ../../../src/kernel/source/nrk_error.o
                                                  ../../../src/drivers/platform/firefly3/source/ff_basic_sensor.o
nrk_stack_check                                   ../../../src/kernel/source/nrk_stack_check.o
                                                  ../../../src/kernel/source/nrk_idle_task.o
                                                  ../../../src/kernel/source/nrk_task.o
nrk_stack_check_pid                               ../../../src/kernel/source/nrk_stack_check.o
nrk_stack_pointer_init                            ../../../src/kernel/hal/atmega128rfa1/nrk_cpu.o
                                                  ../../../src/kernel/source/nrk.o
nrk_stack_pointer_restore                         ../../../src/kernel/hal/atmega128rfa1/nrk_cpu.o
                                                  ../../../src/kernel/source/nrk_scheduler.o
nrk_start                                         ../../../src/kernel/source/nrk.o
                                                  main.o
nrk_start_high_ready_task                         ../../../src/kernel/hal/atmega128rfa1/atmel_hw_specific.o
                                                  ../../../src/kernel/source/nrk_scheduler.o
                                                  ../../../src/kernel/source/nrk.o
nrk_system_time                                   ../../../src/kernel/hal/atmega128rfa1/nrk_cpu.o
                                                  ../../../src/kernel/source/nrk_scheduler.o
                                                  ../../../src/kernel/source/nrk_time.o
                                                  ../../../src/kernel/source/nrk_events.o
                                                  ../../../src/kernel/source/nrk_stats.o
                                                  ../../../src/kernel/source/nrk.o
nrk_target_start                                  ../../../src/kernel/hal/atmega128rfa1/nrk_cpu.o
                                                  ../../../src/kernel/source/nrk.o
nrk_task_TCB                                      ../../../src/kernel/hal/atmega128rfa1/nrk_cpu.o
                                                  ../../../src/kernel/source/nrk_scheduler.o
                                                  ../../../src/kernel/source/nrk_task.o
                                                  ../../../src/kernel/source/nrk_events.o
                                                  ../../../src/kernel/source/nrk_stack_check.o
                                                  ../../../src/kernel/source/nrk_stats.o
                                                  ../../../src/kernel/source/nrk.o
nrk_task_init_cnt                                 ../../../src/kernel/source/nrk.o
nrk_task_set_entry_function                       ../../../src/kernel/hal/atmega128rfa1/nrk_cpu.o
                                                  ../../../src/kernel/source/nrk.o
                                                  ../../../src/net/bmac/rf231_soc/bmac.o
nrk_task_set_stk                                  ../../../src/kernel/hal/atmega128rfa1/nrk_cpu.o
                                                  ../../../src/kernel/source/nrk.o
                                                  ../../../src/net/bmac/rf231_soc/bmac.o
                                                  main.o
nrk_task_stk_init                                 ../../../src/kernel/hal/atmega128rfa1/nrk_cpu.o
                                                  ../../../src/kernel/source/nrk_task.o
nrk_terminate_task                                ../../../src/kernel/source/nrk_task.o
nrk_time_add                                      ../../../src/kernel/source/nrk_time.o
nrk_time_compact_nanos                            ../../../src/kernel/source/nrk_time.o
                                                  ../../../src/radio/rf231_soc/source/basic_rf.o
nrk_time_get                                      ../../../src/kernel/source/nrk_time.o
                                                  ../../../src/kernel/source/nrk_task.o
                                                  ../../../src/radio/rf231_soc/source/basic_rf.o
                                                  main.o
nrk_time_set                                      ../../../src/kernel/source/nrk_time.o
                                                  main.o
nrk_time_sub                                      ../../../src/kernel/source/nrk_time.o
                                                  ../../../src/kernel/source/nrk_task.o
                                                  ../../../src/radio/rf231_soc/source/basic_rf.o
nrk_timer_int_configure                           ../../../src/kernel/hal/atmega128rfa1/nrk_timer.o
nrk_timer_int_read                                ../../../src/kernel/hal/atmega128rfa1/nrk_timer.o
nrk_timer_int_reset                               ../../../src/kernel/hal/atmega128rfa1/nrk_timer.o
nrk_timer_int_start                               ../../../src/kernel/hal/atmega128rfa1/nrk_timer.o
nrk_timer_int_stop                                ../../../src/kernel/hal/atmega128rfa1/nrk_timer.o
nrk_uart_data_ready                               ../../../src/platform/firefly3/source/ulib.o
nrk_uart_rx_signal_get                            ../../../src/platform/firefly3/source/ulib.o
nrk_version                                       ../../../src/kernel/source/nrk.o
nrk_wait                                          ../../../src/kernel/source/nrk_task.o
                                                  ../../../src/net/bmac/rf231_soc/bmac.o
nrk_wait_ticks                                    ../../../src/kernel/source/nrk_task.o
nrk_wait_until                                    ../../../src/kernel/source/nrk_task.o
nrk_wait_until_next_n_periods                     ../../../src/kernel/source/nrk_task.o
                                                  ../../../src/net/bmac/rf231_soc/bmac.o
nrk_wait_until_next_period                        ../../../src/kernel/source/nrk_task.o
                                                  ../../../src/net/bmac/rf231_soc/bmac.o
                                                  main.o
nrk_wait_until_nw                                 ../../../src/kernel/source/nrk_task.o
                                                  ../../../src/kernel/source/nrk_events.o
nrk_wait_until_ticks                              ../../../src/kernel/source/nrk_task.o
                                                  ../../../src/kernel/source/nrk_events.o
                                                  ../../../src/net/bmac/rf231_soc/bmac.o
nrk_wakeup_signal                                 ../../../src/kernel/hal/atmega128rfa1/nrk_cpu.o
                                                  ../../../src/kernel/source/nrk_scheduler.o
                                                  ../../../src/kernel/source/nrk_events.o
                                                  ../../../src/kernel/source/nrk_stats.o
                                                  ../../../src/kernel/source/nrk.o
nrk_watchdog_check                                ../../../src/kernel/hal/atmega128rfa1/nrk_watchdog.o
nrk_watchdog_disable                              ../../../src/kernel/hal/atmega128rfa1/nrk_watchdog.o
nrk_watchdog_enable                               ../../../src/kernel/hal/atmega128rfa1/nrk_watchdog.o
nrk_watchdog_reset                                ../../../src/kernel/hal/atmega128rfa1/nrk_watchdog.o
nrk_write                                         ../../../src/kernel/source/nrk_driver.o
open                                              ../../../src/drivers/platform/firefly3/source/ff_basic_sensor.o
packet                                            main.o
pause                                             ../../../src/kernel/source/nrk_error.o
pc_int0_callback                                  ../../../src/kernel/hal/atmega128rfa1/nrk_ext_int.o
printf                                            /usr/lib/gcc/avr/4.8.2/../../../avr/lib/avr51/libc.a(printf.o)
                                                  ../../../src/kernel/source/nrk_stack_check.o
                                                  ../../../src/kernel/source/nrk_error.o
                                                  ../../../src/radio/rf231_soc/source/basic_rf.o
                                                  ../../../src/drivers/platform/firefly3/source/twi_base_calls.o
                                                  main.o
putc0                                             ../../../src/platform/firefly3/source/ulib.o
putc1                                             ../../../src/platform/firefly3/source/ulib.o
putchar                                           /usr/lib/gcc/avr/4.8.2/../../../avr/lib/avr51/libc.a(putchar.o)
                                                  ../../../src/radio/rf231_soc/source/basic_rf.o
puts                                              /usr/lib/gcc/avr/4.8.2/../../../avr/lib/avr51/libc.a(puts.o)
                                                  ../../../src/radio/rf231_soc/source/basic_rf.o
                                                  main.o
radio_sem                                         ../../../src/radio/rf231_soc/source/basic_rf.o
rand                                              /usr/lib/gcc/avr/4.8.2/../../../avr/lib/avr51/libc.a(rand.o)
                                                  ../../../src/net/bmac/rf231_soc/bmac.o
rand_r                                            /usr/lib/gcc/avr/4.8.2/../../../avr/lib/avr51/libc.a(rand.o)
read                                              ../../../src/drivers/platform/firefly3/source/ff_basic_sensor.o
read_eeprom_aes_key                               ../../../src/platform/firefly3/source/nrk_eeprom.o
read_eeprom_channel                               ../../../src/platform/firefly3/source/nrk_eeprom.o
read_eeprom_current_image_checksum                ../../../src/platform/firefly3/source/nrk_eeprom.o
read_eeprom_load_img_pages                        ../../../src/platform/firefly3/source/nrk_eeprom.o
read_eeprom_mac_address                           ../../../src/platform/firefly3/source/nrk_eeprom.o
read_sensors                                      main.o
read_uncomp_press                                 ../../../src/drivers/platform/firefly3/source/ff_basic_sensor.o
read_uncomp_temp                                  ../../../src/drivers/platform/firefly3/source/ff_basic_sensor.o
rfSettings                                        ../../../src/radio/rf231_soc/source/basic_rf.o
rf_addr_decode_disable                            ../../../src/radio/rf231_soc/source/basic_rf.o
                                                  ../../../src/net/bmac/rf231_soc/bmac.o
rf_addr_decode_enable                             ../../../src/radio/rf231_soc/source/basic_rf.o
                                                  ../../../src/net/bmac/rf231_soc/bmac.o
rf_addr_decode_set_my_mac                         ../../../src/radio/rf231_soc/source/basic_rf.o
                                                  ../../../src/net/bmac/rf231_soc/bmac.o
rf_auto_ack_disable                               ../../../src/radio/rf231_soc/source/basic_rf.o
                                                  ../../../src/net/bmac/rf231_soc/bmac.o
rf_auto_ack_enable                                ../../../src/radio/rf231_soc/source/basic_rf.o
                                                  ../../../src/net/bmac/rf231_soc/bmac.o
rf_busy                                           ../../../src/radio/rf231_soc/source/basic_rf.o
rf_carrier_off                                    ../../../src/radio/rf231_soc/source/basic_rf.o
rf_carrier_on                                     ../../../src/radio/rf231_soc/source/basic_rf.o
rf_cc2591_rx_on                                   ../../../src/radio/rf231_soc/source/basic_rf.o
rf_cc2591_tx_on                                   ../../../src/radio/rf231_soc/source/basic_rf.o
rf_cca_check                                      ../../../src/radio/rf231_soc/source/basic_rf.o
                                                  ../../../src/net/bmac/rf231_soc/bmac.o
rf_data_mode                                      ../../../src/radio/rf231_soc/source/basic_rf.o
rf_disable_glossy                                 ../../../src/radio/rf231_soc/source/basic_rf.o
rf_enable_glossy                                  ../../../src/radio/rf231_soc/source/basic_rf.o
rf_flush_rx_fifo                                  ../../../src/radio/rf231_soc/source/basic_rf.o
rf_get_sem                                        ../../../src/radio/rf231_soc/source/basic_rf.o
rf_glossy_interrupt                               ../../../src/radio/rf231_soc/source/basic_rf.o
rf_init                                           ../../../src/radio/rf231_soc/source/basic_rf.o
                                                  ../../../src/net/bmac/rf231_soc/bmac.o
rf_polling_rx_on                                  ../../../src/radio/rf231_soc/source/basic_rf.o
rf_power_down                                     ../../../src/radio/rf231_soc/source/basic_rf.o
                                                  ../../../src/net/bmac/rf231_soc/bmac.o
rf_power_up                                       ../../../src/radio/rf231_soc/source/basic_rf.o
                                                  ../../../src/net/bmac/rf231_soc/bmac.o
rf_ready                                          ../../../src/radio/rf231_soc/source/basic_rf.o
rf_rx_callback                                    ../../../src/net/bmac/rf231_soc/bmac.o
rf_rx_check_fifop                                 ../../../src/radio/rf231_soc/source/basic_rf.o
rf_rx_check_sfd                                   ../../../src/radio/rf231_soc/source/basic_rf.o
rf_rx_off                                         ../../../src/radio/rf231_soc/source/basic_rf.o
                                                  ../../../src/net/bmac/rf231_soc/bmac.o
rf_rx_on                                          ../../../src/radio/rf231_soc/source/basic_rf.o
                                                  ../../../src/net/bmac/rf231_soc/bmac.o
rf_rx_packet                                      ../../../src/radio/rf231_soc/source/basic_rf.o
rf_rx_packet_nonblock                             ../../../src/radio/rf231_soc/source/basic_rf.o
                                                  ../../../src/net/bmac/rf231_soc/bmac.o
rf_rx_set_serial                                  ../../../src/radio/rf231_soc/source/basic_rf.o
rf_security_disable                               ../../../src/radio/rf231_soc/source/basic_rf.o
rf_security_last_pkt_status                       ../../../src/radio/rf231_soc/source/basic_rf.o
                                                  ../../../src/net/bmac/rf231_soc/bmac.o
rf_security_set_ctr_counter                       ../../../src/radio/rf231_soc/source/basic_rf.o
                                                  ../../../src/net/bmac/rf231_soc/bmac.o
rf_security_set_key                               ../../../src/radio/rf231_soc/source/basic_rf.o
                                                  ../../../src/net/bmac/rf231_soc/bmac.o
rf_set_cca_mode                                   ../../../src/radio/rf231_soc/source/basic_rf.o
rf_set_cca_thresh                                 ../../../src/radio/rf231_soc/source/basic_rf.o
                                                  ../../../src/net/bmac/rf231_soc/bmac.o
rf_set_preamble_length                            ../../../src/radio/rf231_soc/source/basic_rf.o
rf_set_rx                                         ../../../src/radio/rf231_soc/source/basic_rf.o
rf_test_mode                                      ../../../src/radio/rf231_soc/source/basic_rf.o
rf_tx_packet                                      ../../../src/radio/rf231_soc/source/basic_rf.o
rf_tx_packet_repeat                               ../../../src/radio/rf231_soc/source/basic_rf.o
                                                  ../../../src/net/bmac/rf231_soc/bmac.o
rf_tx_power                                       ../../../src/radio/rf231_soc/source/basic_rf.o
                                                  ../../../src/net/bmac/rf231_soc/bmac.o
rf_tx_set_serial                                  ../../../src/radio/rf231_soc/source/basic_rf.o
rf_tx_tdma_packet                                 ../../../src/radio/rf231_soc/source/basic_rf.o
rx_buf                                            main.o
rx_ctr                                            ../../../src/radio/rf231_soc/source/basic_rf.o
rx_end_callback                                   ../../../src/radio/rf231_soc/source/basic_rf.o
rx_end_func                                       ../../../src/radio/rf231_soc/source/basic_rf.o
rx_ready                                          ../../../src/radio/rf231_soc/source/basic_rf.o
rx_start_callback                                 ../../../src/radio/rf231_soc/source/basic_rf.o
rx_start_func                                     ../../../src/radio/rf231_soc/source/basic_rf.o
rx_task                                           main.o
rx_task_stack                                     main.o
sensors_task_stack                                main.o
set_i2c_device                                    ../../../src/drivers/platform/firefly3/source/twi_base_calls.o
                                                  ../../../src/drivers/platform/firefly3/source/ff_basic_sensor.o
set_status                                        ../../../src/drivers/platform/firefly3/source/ff_basic_sensor.o
setup_uart0                                       ../../../src/platform/firefly3/source/ulib.o
setup_uart1                                       ../../../src/platform/firefly3/source/ulib.o
sprintf                                           /usr/lib/gcc/avr/4.8.2/../../../avr/lib/avr51/libc.a(sprintf.o)
                                                  ../../../src/kernel/source/nrk_error.o
srand                                             /usr/lib/gcc/avr/4.8.2/../../../avr/lib/avr51/libc.a(rand.o)
strchr_P                                          /usr/lib/gcc/avr/4.8.2/../../../avr/lib/avr51/libc.a(strchr_P.o)
                                                  /usr/lib/gcc/avr/4.8.2/../../../avr/lib/avr51/libprintf_min.a(vfprintf_min.o)
t                                                 ../../../src/kernel/source/nrk_scheduler.o
target_t                                          ../../../src/radio/rf231_soc/source/basic_rf.o
twst                                              ../../../src/drivers/platform/firefly3/source/twi_base_calls.o
tx_buf                                            main.o
tx_ctr                                            ../../../src/radio/rf231_soc/source/basic_rf.o
tx_done                                           ../../../src/radio/rf231_soc/source/basic_rf.o
tx_task                                           main.o
tx_task_stack                                     main.o
use_glossy                                        ../../../src/radio/rf231_soc/source/basic_rf.o
vfprintf                                          /usr/lib/gcc/avr/4.8.2/../../../avr/lib/avr51/libprintf_min.a(vfprintf_min.o)
                                                  /usr/lib/gcc/avr/4.8.2/../../../avr/lib/avr51/libc.a(sprintf.o)
                                                  /usr/lib/gcc/avr/4.8.2/../../../avr/lib/avr51/libc.a(printf.o)
write_eeprom_aes_key                              ../../../src/platform/firefly3/source/nrk_eeprom.o
write_eeprom_current_image_checksum               ../../../src/platform/firefly3/source/nrk_eeprom.o
write_eeprom_load_img_pages                       ../../../src/platform/firefly3/source/nrk_eeprom.o
